{
  "contractName": "FlightSuretyData",
  "abi": [
    {
      "constant": true,
      "inputs": [],
      "name": "flightCount",
      "outputs": [
        {
          "name": "",
          "type": "uint8"
        }
      ],
      "payable": false,
      "stateMutability": "view",
      "type": "function"
    },
    {
      "constant": true,
      "inputs": [
        {
          "name": "",
          "type": "address"
        },
        {
          "name": "",
          "type": "uint256"
        }
      ],
      "name": "clientPurchases",
      "outputs": [
        {
          "name": "",
          "type": "string"
        }
      ],
      "payable": false,
      "stateMutability": "view",
      "type": "function"
    },
    {
      "constant": true,
      "inputs": [
        {
          "name": "",
          "type": "address"
        }
      ],
      "name": "airlines",
      "outputs": [
        {
          "name": "",
          "type": "bool"
        }
      ],
      "payable": false,
      "stateMutability": "view",
      "type": "function"
    },
    {
      "constant": true,
      "inputs": [
        {
          "name": "",
          "type": "address"
        }
      ],
      "name": "clientPurchaseCount",
      "outputs": [
        {
          "name": "",
          "type": "uint256"
        }
      ],
      "payable": false,
      "stateMutability": "view",
      "type": "function"
    },
    {
      "constant": true,
      "inputs": [
        {
          "name": "",
          "type": "address"
        },
        {
          "name": "",
          "type": "uint256"
        }
      ],
      "name": "clientPayments",
      "outputs": [
        {
          "name": "",
          "type": "uint256"
        }
      ],
      "payable": false,
      "stateMutability": "view",
      "type": "function"
    },
    {
      "constant": true,
      "inputs": [
        {
          "name": "",
          "type": "uint256"
        }
      ],
      "name": "airlineList",
      "outputs": [
        {
          "name": "",
          "type": "address"
        }
      ],
      "payable": false,
      "stateMutability": "view",
      "type": "function"
    },
    {
      "constant": true,
      "inputs": [
        {
          "name": "",
          "type": "address"
        }
      ],
      "name": "clientWithdraw",
      "outputs": [
        {
          "name": "",
          "type": "uint256"
        }
      ],
      "payable": false,
      "stateMutability": "view",
      "type": "function"
    },
    {
      "constant": true,
      "inputs": [
        {
          "name": "",
          "type": "uint256"
        }
      ],
      "name": "flightNames",
      "outputs": [
        {
          "name": "",
          "type": "string"
        }
      ],
      "payable": false,
      "stateMutability": "view",
      "type": "function"
    },
    {
      "constant": true,
      "inputs": [],
      "name": "airlineCount",
      "outputs": [
        {
          "name": "",
          "type": "uint256"
        }
      ],
      "payable": false,
      "stateMutability": "view",
      "type": "function"
    },
    {
      "inputs": [],
      "payable": false,
      "stateMutability": "nonpayable",
      "type": "constructor"
    },
    {
      "payable": true,
      "stateMutability": "payable",
      "type": "fallback"
    },
    {
      "constant": false,
      "inputs": [],
      "name": "getContractOwner",
      "outputs": [
        {
          "name": "",
          "type": "address"
        }
      ],
      "payable": false,
      "stateMutability": "nonpayable",
      "type": "function"
    },
    {
      "constant": true,
      "inputs": [],
      "name": "isOperational",
      "outputs": [
        {
          "name": "",
          "type": "bool"
        }
      ],
      "payable": false,
      "stateMutability": "view",
      "type": "function"
    },
    {
      "constant": false,
      "inputs": [
        {
          "name": "flight",
          "type": "string"
        }
      ],
      "name": "unsetFlight",
      "outputs": [],
      "payable": false,
      "stateMutability": "nonpayable",
      "type": "function"
    },
    {
      "constant": false,
      "inputs": [
        {
          "name": "updatedTimestamp",
          "type": "uint256"
        },
        {
          "name": "flight",
          "type": "string"
        },
        {
          "name": "airline",
          "type": "address"
        }
      ],
      "name": "setFlight",
      "outputs": [],
      "payable": false,
      "stateMutability": "nonpayable",
      "type": "function"
    },
    {
      "constant": false,
      "inputs": [
        {
          "name": "flight",
          "type": "string"
        }
      ],
      "name": "getFlight",
      "outputs": [
        {
          "name": "",
          "type": "uint8"
        },
        {
          "name": "",
          "type": "uint256"
        },
        {
          "name": "",
          "type": "address"
        },
        {
          "name": "",
          "type": "bool"
        },
        {
          "name": "",
          "type": "uint256"
        }
      ],
      "payable": false,
      "stateMutability": "nonpayable",
      "type": "function"
    },
    {
      "constant": false,
      "inputs": [
        {
          "name": "mode",
          "type": "bool"
        }
      ],
      "name": "setOperatingStatus",
      "outputs": [],
      "payable": false,
      "stateMutability": "nonpayable",
      "type": "function"
    },
    {
      "constant": false,
      "inputs": [
        {
          "name": "newAirline",
          "type": "address"
        }
      ],
      "name": "registerAirline",
      "outputs": [],
      "payable": false,
      "stateMutability": "nonpayable",
      "type": "function"
    },
    {
      "constant": false,
      "inputs": [
        {
          "name": "flight",
          "type": "string"
        },
        {
          "name": "client",
          "type": "address"
        }
      ],
      "name": "buy",
      "outputs": [],
      "payable": true,
      "stateMutability": "payable",
      "type": "function"
    },
    {
      "constant": false,
      "inputs": [
        {
          "name": "client",
          "type": "address"
        }
      ],
      "name": "withdraw",
      "outputs": [],
      "payable": false,
      "stateMutability": "nonpayable",
      "type": "function"
    },
    {
      "constant": false,
      "inputs": [
        {
          "name": "flight",
          "type": "string"
        }
      ],
      "name": "creditInsurees",
      "outputs": [],
      "payable": false,
      "stateMutability": "nonpayable",
      "type": "function"
    },
    {
      "constant": false,
      "inputs": [
        {
          "name": "flight",
          "type": "string"
        }
      ],
      "name": "pay",
      "outputs": [],
      "payable": false,
      "stateMutability": "nonpayable",
      "type": "function"
    },
    {
      "constant": false,
      "inputs": [],
      "name": "fund",
      "outputs": [],
      "payable": true,
      "stateMutability": "payable",
      "type": "function"
    },
    {
      "constant": false,
      "inputs": [
        {
          "name": "airline",
          "type": "address"
        }
      ],
      "name": "isAirline",
      "outputs": [
        {
          "name": "",
          "type": "bool"
        }
      ],
      "payable": false,
      "stateMutability": "nonpayable",
      "type": "function"
    }
  ],
  "bytecode": "0x60806040526001600060146101000a81548160ff02191690831515021790555060006003556000600760006101000a81548160ff021916908360ff16021790555034801561004c57600080fd5b50336000806101000a81548173ffffffffffffffffffffffffffffffffffffffff021916908373ffffffffffffffffffffffffffffffffffffffff160217905550611c8d8061009c6000396000f300608060405260043610610128576000357c0100000000000000000000000000000000000000000000000000000000900463ffffffff1680630e248a1114610132578063110466ed1461018d5780631688972d146101bc5780631bc09567146102255780632ad2ba7c146102565780632b66d72e1461031c5780633fcf1cf4146103575780634168476914610392578063442890d5146103ed5780634f7238381461044457806351cff8d91461049b57806370516e38146104de57806374c727691461053f578063775afd62146105ac5780639ddf41531461063f578063b2bf7ad014610696578063b60d42881461073c578063bdfd987714610746578063cd905dff14610789578063ce059596146107b8578063e1a3e55c14610887578063f5526774146108d5575b610130610900565b005b34801561013e57600080fd5b50610173600480360381019080803573ffffffffffffffffffffffffffffffffffffffff169060200190929190505050610902565b604051808215151515815260200191505060405180910390f35b34801561019957600080fd5b506101ba600480360381019080803515159060200190929190505050610958565b005b3480156101c857600080fd5b50610223600480360381019080803590602001908201803590602001908080601f0160208091040260200160405190810160405280939291908181526020018383808284378201915050505050509192919290505050610a39565b005b34801561023157600080fd5b5061023a610ac3565b604051808260ff1660ff16815260200191505060405180910390f35b34801561026257600080fd5b506102a1600480360381019080803573ffffffffffffffffffffffffffffffffffffffff16906020019092919080359060200190929190505050610ad6565b6040518080602001828103825283818151815260200191508051906020019080838360005b838110156102e15780820151818401526020810190506102c6565b50505050905090810190601f16801561030e5780820380516001836020036101000a031916815260200191505b509250505060405180910390f35b34801561032857600080fd5b50610355600480360381019080803590602001908201803590602001919091929391929390505050610b9e565b005b34801561036357600080fd5b50610390600480360381019080803590602001908201803590602001919091929391929390505050610d4d565b005b34801561039e57600080fd5b506103d3600480360381019080803573ffffffffffffffffffffffffffffffffffffffff169060200190929190505050610eed565b604051808215151515815260200191505060405180910390f35b3480156103f957600080fd5b50610402610f0d565b604051808273ffffffffffffffffffffffffffffffffffffffff1673ffffffffffffffffffffffffffffffffffffffff16815260200191505060405180910390f35b34801561045057600080fd5b50610485600480360381019080803573ffffffffffffffffffffffffffffffffffffffff169060200190929190505050610f36565b6040518082815260200191505060405180910390f35b3480156104a757600080fd5b506104dc600480360381019080803573ffffffffffffffffffffffffffffffffffffffff169060200190929190505050610f4e565b005b3480156104ea57600080fd5b50610529600480360381019080803573ffffffffffffffffffffffffffffffffffffffff16906020019092919080359060200190929190505050610fd7565b6040518082815260200191505060405180910390f35b34801561054b57600080fd5b5061056a60048036038101908080359060200190929190505050611007565b604051808273ffffffffffffffffffffffffffffffffffffffff1673ffffffffffffffffffffffffffffffffffffffff16815260200191505060405180910390f35b3480156105b857600080fd5b5061063d60048036038101908080359060200190929190803590602001908201803590602001908080601f0160208091040260200160405190810160405280939291908181526020018383808284378201915050505050509192919290803573ffffffffffffffffffffffffffffffffffffffff169060200190929190505050611045565b005b34801561064b57600080fd5b50610680600480360381019080803573ffffffffffffffffffffffffffffffffffffffff1690602001909291905050506112a9565b6040518082815260200191505060405180910390f35b3480156106a257600080fd5b506106c1600480360381019080803590602001909291905050506112c1565b6040518080602001828103825283818151815260200191508051906020019080838360005b838110156107015780820151818401526020810190506106e6565b50505050905090810190601f16801561072e5780820380516001836020036101000a031916815260200191505b509250505060405180910390f35b610744610900565b005b34801561075257600080fd5b50610787600480360381019080803573ffffffffffffffffffffffffffffffffffffffff16906020019092919050505061137c565b005b34801561079557600080fd5b5061079e611517565b604051808215151515815260200191505060405180910390f35b3480156107c457600080fd5b5061081f600480360381019080803590602001908201803590602001908080601f016020809104026020016040519081016040528093929190818152602001838380828437820191505050505050919291929050505061152d565b604051808660ff1660ff1681526020018581526020018473ffffffffffffffffffffffffffffffffffffffff1673ffffffffffffffffffffffffffffffffffffffff168152602001831515151581526020018281526020019550505050505060405180910390f35b6108d3600480360381019080803590602001908201803590602001919091929391929390803573ffffffffffffffffffffffffffffffffffffffff1690602001909291905050506117ad565b005b3480156108e157600080fd5b506108ea611aa1565b6040518082815260200191505060405180910390f35b565b6000600160008373ffffffffffffffffffffffffffffffffffffffff1673ffffffffffffffffffffffffffffffffffffffff16815260200190815260200160002060009054906101000a900460ff169050919050565b6000809054906101000a900473ffffffffffffffffffffffffffffffffffffffff1673ffffffffffffffffffffffffffffffffffffffff163373ffffffffffffffffffffffffffffffffffffffff16141515610a1c576040517f08c379a000000000000000000000000000000000000000000000000000000000815260040180806020018281038252601c8152602001807f43616c6c6572206973206e6f7420636f6e7472616374206f776e65720000000081525060200191505060405180910390fd5b80600060146101000a81548160ff02191690831515021790555050565b600580826040518082805190602001908083835b602083101515610a725780518252602082019150602081019050602083039250610a4d565b6001836020036101000a038019825116818451168082178552505050505050905001915050908152602001604051809103902060000160006101000a81548160ff021916908360ff16021790555050565b600760009054906101000a900460ff1681565b600a60205281600052604060002081815481101515610af157fe5b90600052602060002001600091509150508054600181600116156101000203166002900480601f016020809104026020016040519081016040528092919081815260200182805460018160011615610100020316600290048015610b965780601f10610b6b57610100808354040283529160200191610b96565b820191906000526020600020905b815481529060010190602001808311610b7957829003601f168201915b505050505081565b600080600091505b6005848460405180838380828437820191505092505050908152602001604051809103902060040154821015610d06576005848460405180838380828437820191505092505050908152602001604051809103902060050182815481101515610c0b57fe5b9060005260206000200160009054906101000a900473ffffffffffffffffffffffffffffffffffffffff169050600260036005868660405180838380828437820191505092505050908152602001604051809103902060030160008473ffffffffffffffffffffffffffffffffffffffff1673ffffffffffffffffffffffffffffffffffffffff1681526020019081526020016000205402811515610cac57fe5b04600860008373ffffffffffffffffffffffffffffffffffffffff1673ffffffffffffffffffffffffffffffffffffffff168152602001908152602001600020600082825401925050819055508180600101925050610ba6565b60016005858560405180838380828437820191505092505050908152602001604051809103902060020160146101000a81548160ff02191690831515021790555050505050565b600080600091505b6005848460405180838380828437820191505092505050908152602001604051809103902060040154821015610ea6576005848460405180838380828437820191505092505050908152602001604051809103902060050182815481101515610dba57fe5b9060005260206000200160009054906101000a900473ffffffffffffffffffffffffffffffffffffffff1690506005848460405180838380828437820191505092505050908152602001604051809103902060030160008273ffffffffffffffffffffffffffffffffffffffff1673ffffffffffffffffffffffffffffffffffffffff16815260200190815260200160002054600860008373ffffffffffffffffffffffffffffffffffffffff1673ffffffffffffffffffffffffffffffffffffffff168152602001908152602001600020600082825401925050819055508180600101925050610d55565b60016005858560405180838380828437820191505092505050908152602001604051809103902060020160146101000a81548160ff02191690831515021790555050505050565b60016020528060005260406000206000915054906101000a900460ff1681565b60008060009054906101000a900473ffffffffffffffffffffffffffffffffffffffff16905090565b60096020528060005260406000206000915090505481565b8073ffffffffffffffffffffffffffffffffffffffff166108fc600860008473ffffffffffffffffffffffffffffffffffffffff1673ffffffffffffffffffffffffffffffffffffffff168152602001908152602001600020549081150290604051600060405180830381858888f19350505050158015610fd3573d6000803e3d6000fd5b5050565b600b60205281600052604060002081815481101515610ff257fe5b90600052602060002001600091509150505481565b60028181548110151561101657fe5b906000526020600020016000915054906101000a900473ffffffffffffffffffffffffffffffffffffffff1681565b60008060008160000160006101000a81548160ff021916908360ff160217905550848160010181905550828160020160006101000a81548173ffffffffffffffffffffffffffffffffffffffff021916908373ffffffffffffffffffffffffffffffffffffffff16021790555060008160020160146101000a81548160ff02191690831515021790555060008160040181905550806005856040518082805190602001908083835b60208310151561111257805182526020820191506020810190506020830392506110ed565b6001836020036101000a03801982511681845116808217855250505050505090500191505090815260200160405180910390206000820160009054906101000a900460ff168160000160006101000a81548160ff021916908360ff160217905550600182015481600101556002820160009054906101000a900473ffffffffffffffffffffffffffffffffffffffff168160020160006101000a81548173ffffffffffffffffffffffffffffffffffffffff021916908373ffffffffffffffffffffffffffffffffffffffff1602179055506002820160149054906101000a900460ff168160020160146101000a81548160ff021916908315150217905550600482015481600401556005820181600501908054611231929190611aa7565b509050506006849080600181540180825580915050906001820390600052602060002001600090919290919091509080519060200190611272929190611af9565b50506001600760008282829054906101000a900460ff160192506101000a81548160ff021916908360ff1602179055505050505050565b60086020528060005260406000206000915090505481565b6006818154811015156112d057fe5b906000526020600020016000915090508054600181600116156101000203166002900480601f0160208091040260200160405190810160405280929190818152602001828054600181600116156101000203166002900480156113745780601f1061134957610100808354040283529160200191611374565b820191906000526020600020905b81548152906001019060200180831161135757829003601f168201915b505050505081565b8060001515600160008373ffffffffffffffffffffffffffffffffffffffff1673ffffffffffffffffffffffffffffffffffffffff16815260200190815260200160002060009054906101000a900460ff161515141515611445576040517f08c379a00000000000000000000000000000000000000000000000000000000081526004018080602001828103825260188152602001807f6169726c696e652064696420726567697374726174696f6e000000000000000081525060200191505060405180910390fd5b60018060008473ffffffffffffffffffffffffffffffffffffffff1673ffffffffffffffffffffffffffffffffffffffff16815260200190815260200160002060006101000a81548160ff02191690831515021790555060028290806001815401808255809150509060018203906000526020600020016000909192909190916101000a81548173ffffffffffffffffffffffffffffffffffffffff021916908373ffffffffffffffffffffffffffffffffffffffff1602179055505060016003600082825401925050819055505050565b60008060149054906101000a900460ff16905090565b60008060008060006005866040518082805190602001908083835b60208310151561156d5780518252602082019150602081019050602083039250611548565b6001836020036101000a038019825116818451168082178552505050505050905001915050908152602001604051809103902060000160009054906101000a900460ff166005876040518082805190602001908083835b6020831015156115e957805182526020820191506020810190506020830392506115c4565b6001836020036101000a0380198251168184511680821785525050505050509050019150509081526020016040518091039020600101546005886040518082805190602001908083835b6020831015156116585780518252602082019150602081019050602083039250611633565b6001836020036101000a038019825116818451168082178552505050505050905001915050908152602001604051809103902060020160009054906101000a900473ffffffffffffffffffffffffffffffffffffffff166005896040518082805190602001908083835b6020831015156116e757805182526020820191506020810190506020830392506116c2565b6001836020036101000a038019825116818451168082178552505050505050905001915050908152602001604051809103902060020160149054906101000a900460ff1660058a6040518082805190602001908083835b602083101515611763578051825260208201915060208101905060208303925061173e565b6001836020036101000a0380198251168184511680821785525050505050509050019150509081526020016040518091039020600401549450945094509450945091939590929450565b6000341180156117c55750670de0b6b3a76400003411155b1515611839576040517f08c379a000000000000000000000000000000000000000000000000000000000815260040180806020018281038252601c8152602001807f5061796d656e74206973206e6f74206265747765656e2030202d20310000000081525060200191505060405180910390fd5b60016005848460405180838380828437820191505092505050908152602001604051809103902060040160008282540192505081905550600583836040518083838082843782019150509250505090815260200160405180910390206005018190806001815401808255809150509060018203906000526020600020016000909192909190916101000a81548173ffffffffffffffffffffffffffffffffffffffff021916908373ffffffffffffffffffffffffffffffffffffffff16021790555050346005848460405180838380828437820191505092505050908152602001604051809103902060030160008373ffffffffffffffffffffffffffffffffffffffff1673ffffffffffffffffffffffffffffffffffffffff168152602001908152602001600020819055506001600960008373ffffffffffffffffffffffffffffffffffffffff1673ffffffffffffffffffffffffffffffffffffffff16815260200190815260200160002060008282540192505081905550600a60008273ffffffffffffffffffffffffffffffffffffffff1673ffffffffffffffffffffffffffffffffffffffff168152602001908152602001600020838390918060018154018082558091505090600182039060005260206000200160009091929390919293909192909192509190611a31929190611b79565b5050600b60008273ffffffffffffffffffffffffffffffffffffffff1673ffffffffffffffffffffffffffffffffffffffff168152602001908152602001600020349080600181540180825580915050906001820390600052602060002001600090919290919091505550505050565b60035481565b828054828255906000526020600020908101928215611ae85760005260206000209182015b82811115611ae7578254825591600101919060010190611acc565b5b509050611af59190611bf9565b5090565b828054600181600116156101000203166002900490600052602060002090601f016020900481019282601f10611b3a57805160ff1916838001178555611b68565b82800160010185558215611b68579182015b82811115611b67578251825591602001919060010190611b4c565b5b509050611b759190611c3c565b5090565b828054600181600116156101000203166002900490600052602060002090601f016020900481019282601f10611bba57803560ff1916838001178555611be8565b82800160010185558215611be8579182015b82811115611be7578235825591602001919060010190611bcc565b5b509050611bf59190611c3c565b5090565b611c3991905b80821115611c3557600081816101000a81549073ffffffffffffffffffffffffffffffffffffffff021916905550600101611bff565b5090565b90565b611c5e91905b80821115611c5a576000816000905550600101611c42565b5090565b905600a165627a7a723058200f451e70fa8e71b8578b81948af1d8d90f78d66c0f25c6156371710f8b3befa60029",
  "source": "pragma solidity ^0.4.25;\n\n\ncontract FlightSuretyData {\n\n\n    /********************************************************************************************/\n    /*                                       DATA VARIABLES                                     */\n    /********************************************************************************************/\n    uint8 private constant STATUS_CODE_CANCEl = 5; \n    uint8 private constant STATUS_CODE_UNKNOWN = 0;\n    uint8 private constant STATUS_CODE_ON_TIME = 10;\n    uint8 private constant STATUS_CODE_LATE_AIRLINE = 20;\n    uint8 private constant STATUS_CODE_LATE_WEATHER = 30;\n    uint8 private constant STATUS_CODE_LATE_TECHNICAL = 40;\n    uint8 private constant STATUS_CODE_LATE_OTHER = 50;\n\n    address private contractOwner;                                      // Account used to deploy contract\n    bool private operational = true;                                    // Blocks all state changes throughout the contract if false\n    // airlines\n    mapping(address=>bool) public airlines;\n    address[] public airlineList;\n    uint256 public airlineCount = 0;\n    mapping(address=>uint256) emptyMapping;\n    \n    // flights\n    struct Flight {\n        uint8 statusCode;\n        uint256 updatedTimestamp;        \n        address airline;\n        bool repayment;\n        mapping(address=>uint256) clientPayments; \n        uint256 clientCount;\n        address[] clientaddresses;\n    }\n    mapping(string => Flight) private flights;\n    string[] public flightNames;\n    uint8 public flightCount = 0;\n\n    // clients\n    mapping(address=>uint256) public clientWithdraw;\n    mapping(address=>uint256) public clientPurchaseCount;\n    mapping(address=> string[]) public clientPurchases;\n    mapping(address=> uint256[]) public clientPayments;    \n    /********************************************************************************************/\n    /*                                       EVENT DEFINITIONS                                  */\n    /********************************************************************************************/\n\n    /**\n    * @dev Constructor\n    *      The deploying account becomes contractOwner\n    */\n    constructor\n                                (\n                                ) \n                                public \n    {\n        contractOwner = msg.sender;\n    }\n\n    /********************************************************************************************/\n    /*                                       FUNCTION MODIFIERS                                 */\n    /********************************************************************************************/\n\n    // Modifiers help avoid duplication of code. They are typically used to validate something\n    // before a function is allowed to be executed.\n\n    /**\n    * @dev Modifier that requires the \"operational\" boolean variable to be \"true\"\n    *      This is used on all state changing functions to pause the contract in \n    *      the event there is an issue that needs to be fixed\n    */\n    modifier requireIsOperational() \n    {\n        require(operational, \"Contract is currently not operational\");\n        _;  // All modifiers require an \"_\" which indicates where the function body will be added\n    }\n\n    /**\n    * @dev Modifier that requires the \"ContractOwner\" account to be the function caller\n    */\n    modifier requireContractOwner()\n    {\n        require(msg.sender == contractOwner, \"Caller is not contract owner\");\n        _;\n    }\n    \n    /**\n    * @dev Modifier that requires the airline did not do registration\n    */\n     modifier requireNoRegistration(address airline)\n    {\n        require(airlines[airline]==false, \"airline did registration\");\n        _;\n    }\n\n    /********************************************************************************************/\n    /*                                       UTILITY FUNCTIONS                                  */\n    /********************************************************************************************/\n\n    // Genranal\n     function getContractOwner()\n                                public \n                                returns(address)\n    {\n        return contractOwner;\n    } \n\n    /**\n    * @dev Get operating status of contract\n    *\n    * @return A bool that is the current operating status\n    */      \n    function isOperational() \n                            public \n                            view \n                            returns(bool) \n    {\n        return operational;\n    }\n\n    // Flight\n    \n    /**\n     *  @dev Credits payouts to insurees\n    */\n    \n    function unsetFlight(\n                            string flight\n                        )\n    {   \n        flights[flight].statusCode = STATUS_CODE_CANCEl;\n    }\n\n    function setFlight(\n                            uint256 updatedTimestamp,\n                            string flight,\n                            address airline\n                        )\n                        public\n    {\n        address[]  emptyArray;\n        Flight storage newFlight;\n        newFlight.statusCode=STATUS_CODE_UNKNOWN;\n        newFlight.updatedTimestamp=updatedTimestamp;        \n        newFlight.airline=airline;\n        newFlight.repayment=false;\n        newFlight.clientCount=0;\n        flights[flight] = newFlight;\n        flightNames.push(flight);\n        flightCount+=1;\n    }\n\n    function getFlight(string flight)\n                            public\n                            returns(uint8,uint256,address, bool, uint256)\n    {\n        return  (\n        flights[flight].statusCode,\n        flights[flight].updatedTimestamp,\n        flights[flight].airline,\n         flights[flight].repayment,\n         flights[flight].clientCount);\n    }\n\n   \n\n\n    /**\n    * @dev Sets contract operations on/off\n    *\n    * When operational mode is disabled, all write transactions except for this one will fail\n    */    \n    function setOperatingStatus\n                            (\n                                bool mode\n                            ) \n                            external\n                            requireContractOwner \n    {\n        operational = mode;\n    }\n\n    /********************************************************************************************/\n    /*                                     SMART CONTRACT FUNCTIONS                             */\n    /********************************************************************************************/\n\n   /**\n    * @dev Add an airline to the registration queue\n    *      Can only be called from FlightSuretyApp contract\n    *\n    */   \n    function registerAirline\n                            (  \n                                address newAirline \n                            )\n                            external\n                            requireNoRegistration(newAirline)\n    {\n        airlines[newAirline]=true;\n        airlineList.push(newAirline);\n        airlineCount+=1;\n    }\n\n\n   /**\n    * @dev Buy insurance for a flight\n    *\n    */   \n    function buy\n                            (      \n                                string flight,\n                                address client\n                            )\n                            external\n                            payable\n    {\n        require(msg.value>0 && msg.value<=1 ether,\"Payment is not between 0 - 1\");\n       flights[flight].clientCount+=1;\n        flights[flight].clientaddresses.push(client);\n       flights[flight].clientPayments[client]=msg.value;\n        clientPurchaseCount[client] += 1;\n        clientPurchases[client].push(flight);\n        clientPayments[client].push(msg.value);\n    }\n\n    /**\n     *  @dev client withdraw \n    */\n    function withdraw\n                                (\n                                    address client\n                                )\n                                external\n    {\n        client.transfer(clientWithdraw[client]);\n    }\n    \n    /**\n     *  @dev Credits payouts to insurees\n    */\n    function creditInsurees\n                                (\n                                    string flight\n                                )\n                                external\n    {\n\n        for(uint256 i=0; i < flights[flight].clientCount ; i++){\n            address clientAddress = flights[flight].clientaddresses[i];\n            clientWithdraw[clientAddress]+= flights[flight].clientPayments[clientAddress];\n        }\n        flights[flight].repayment = true;\n    }\n    \n\n    /**\n     *  @dev Transfers eligible payout funds to insuree\n     *\n    */\n    function pay\n                            (\n                                string flight\n                            )\n                            external\n    {\n        for(uint256 i=0; i < flights[flight].clientCount ; i++){\n            address clientAddress = flights[flight].clientaddresses[i];\n            clientWithdraw[clientAddress]+= flights[flight].clientPayments[clientAddress]*3/2;\n        }\n        flights[flight].repayment = true;\n    }\n\n   /**\n    * @dev Initial funding for the insurance. Unless there are too many delayed flights\n    *      resulting in insurance payouts, the contract should be self-sustaining\n    *\n    */   \n    function fund\n                            (   \n                            )\n                            public\n                            payable\n    {\n    }\n\n    function getFlightKey\n                        (\n                            address airline,\n                            string memory flight,\n                            uint256 timestamp\n                        )\n                        pure\n                        internal\n                        returns(bytes32) \n    {\n        return keccak256(abi.encodePacked(airline, flight, timestamp));\n    }\n\n    function isAirline\n                      (\n                          address airline\n                      )\n                      external\n                      returns(bool)\n    {\n        return airlines[airline];\n    }\n\n    /**\n    * @dev Fallback function for funding smart contract.\n    *\n    */\n    function() \n                            external \n                            payable \n    {\n        fund();\n    }\n\n\n}\n\n\n",
  "sourcePath": "/Users/yiulapsang/Desktop/workspace/blockchain/FlightSurety/contracts/FlightSuretyData.sol",
  "compiler": {
    "name": "solc",
    "version": "0.4.26+commit.4563c3fc.Emscripten.clang"
  },
  "schemaVersion": "3.3.3",
  "updatedAt": "2021-04-22T11:49:33.246Z",
  "networkType": "ethereum",
  "devdoc": {
    "methods": {
      "buy(string,address)": {
        "details": "Buy insurance for a flight    "
      },
      "creditInsurees(string)": {
        "details": "Credits payouts to insurees"
      },
      "fund()": {
        "details": "Initial funding for the insurance. Unless there are too many delayed flights     resulting in insurance payouts, the contract should be self-sustaining    "
      },
      "isOperational()": {
        "details": "Get operating status of contract",
        "return": "A bool that is the current operating status"
      },
      "pay(string)": {
        "details": "Transfers eligible payout funds to insuree    "
      },
      "registerAirline(address)": {
        "details": "Add an airline to the registration queue     Can only be called from FlightSuretyApp contract    "
      },
      "setOperatingStatus(bool)": {
        "details": "Sets contract operations on/off    * When operational mode is disabled, all write transactions except for this one will fail"
      },
      "unsetFlight(string)": {
        "details": "Credits payouts to insurees"
      },
      "withdraw(address)": {
        "details": "client withdraw "
      }
    }
  },
  "userdoc": {
    "methods": {
      "getContractOwner()": {
        "notice": "*****************************************************************************************"
      }
    }
  }
}