{
  "contractName": "FlightSuretyData",
  "abi": [
    {
      "constant": true,
      "inputs": [
        {
          "name": "",
          "type": "address"
        }
      ],
      "name": "airlines",
      "outputs": [
        {
          "name": "",
          "type": "bool"
        }
      ],
      "payable": false,
      "stateMutability": "view",
      "type": "function"
    },
    {
      "constant": true,
      "inputs": [
        {
          "name": "",
          "type": "uint256"
        }
      ],
      "name": "airlineList",
      "outputs": [
        {
          "name": "",
          "type": "address"
        }
      ],
      "payable": false,
      "stateMutability": "view",
      "type": "function"
    },
    {
      "constant": true,
      "inputs": [
        {
          "name": "",
          "type": "address"
        }
      ],
      "name": "clientWithdraw",
      "outputs": [
        {
          "name": "",
          "type": "uint256"
        }
      ],
      "payable": false,
      "stateMutability": "view",
      "type": "function"
    },
    {
      "constant": true,
      "inputs": [],
      "name": "airlineCount",
      "outputs": [
        {
          "name": "",
          "type": "uint256"
        }
      ],
      "payable": false,
      "stateMutability": "view",
      "type": "function"
    },
    {
      "inputs": [],
      "payable": false,
      "stateMutability": "nonpayable",
      "type": "constructor"
    },
    {
      "payable": true,
      "stateMutability": "payable",
      "type": "fallback"
    },
    {
      "constant": false,
      "inputs": [],
      "name": "getContractOwner",
      "outputs": [
        {
          "name": "",
          "type": "address"
        }
      ],
      "payable": false,
      "stateMutability": "nonpayable",
      "type": "function"
    },
    {
      "constant": true,
      "inputs": [],
      "name": "isOperational",
      "outputs": [
        {
          "name": "",
          "type": "bool"
        }
      ],
      "payable": false,
      "stateMutability": "view",
      "type": "function"
    },
    {
      "constant": false,
      "inputs": [
        {
          "name": "mode",
          "type": "bool"
        }
      ],
      "name": "setOperatingStatus",
      "outputs": [],
      "payable": false,
      "stateMutability": "nonpayable",
      "type": "function"
    },
    {
      "constant": false,
      "inputs": [
        {
          "name": "newAirline",
          "type": "address"
        }
      ],
      "name": "registerAirline",
      "outputs": [],
      "payable": false,
      "stateMutability": "nonpayable",
      "type": "function"
    },
    {
      "constant": false,
      "inputs": [
        {
          "name": "flight",
          "type": "string"
        }
      ],
      "name": "buy",
      "outputs": [],
      "payable": true,
      "stateMutability": "payable",
      "type": "function"
    },
    {
      "constant": false,
      "inputs": [],
      "name": "withdraw",
      "outputs": [],
      "payable": false,
      "stateMutability": "nonpayable",
      "type": "function"
    },
    {
      "constant": false,
      "inputs": [
        {
          "name": "flight",
          "type": "string"
        }
      ],
      "name": "creditInsurees",
      "outputs": [],
      "payable": false,
      "stateMutability": "nonpayable",
      "type": "function"
    },
    {
      "constant": false,
      "inputs": [
        {
          "name": "flight",
          "type": "string"
        }
      ],
      "name": "pay",
      "outputs": [],
      "payable": false,
      "stateMutability": "nonpayable",
      "type": "function"
    },
    {
      "constant": false,
      "inputs": [],
      "name": "fund",
      "outputs": [],
      "payable": true,
      "stateMutability": "payable",
      "type": "function"
    },
    {
      "constant": false,
      "inputs": [
        {
          "name": "airline",
          "type": "address"
        }
      ],
      "name": "isAirline",
      "outputs": [
        {
          "name": "",
          "type": "bool"
        }
      ],
      "payable": false,
      "stateMutability": "nonpayable",
      "type": "function"
    }
  ],
  "bytecode": "0x60806040526001600060146101000a81548160ff021916908315150217905550600060035534801561003057600080fd5b50336000806101000a81548173ffffffffffffffffffffffffffffffffffffffff021916908373ffffffffffffffffffffffffffffffffffffffff160217905550610d68806100806000396000f3006080604052600436106100d0576000357c0100000000000000000000000000000000000000000000000000000000900463ffffffff1680630e248a11146100da578063110466ed146101355780632b66d72e146101645780633ccfd60b1461019f5780633fcf1cf4146101b657806341684769146101f1578063442890d51461024c578063492cc769146102a357806374c72769146102d15780639ddf41531461033e578063b60d428814610395578063bdfd98771461039f578063cd905dff146103e2578063f552677414610411575b6100d861043c565b005b3480156100e657600080fd5b5061011b600480360381019080803573ffffffffffffffffffffffffffffffffffffffff16906020019092919050505061043e565b604051808215151515815260200191505060405180910390f35b34801561014157600080fd5b50610162600480360381019080803515159060200190929190505050610494565b005b34801561017057600080fd5b5061019d600480360381019080803590602001908201803590602001919091929391929390505050610575565b005b3480156101ab57600080fd5b506101b461070e565b005b3480156101c257600080fd5b506101ef600480360381019080803590602001908201803590602001919091929391929390505050610796565b005b3480156101fd57600080fd5b50610232600480360381019080803573ffffffffffffffffffffffffffffffffffffffff169060200190929190505050610920565b604051808215151515815260200191505060405180910390f35b34801561025857600080fd5b50610261610940565b604051808273ffffffffffffffffffffffffffffffffffffffff1673ffffffffffffffffffffffffffffffffffffffff16815260200191505060405180910390f35b6102cf600480360381019080803590602001908201803590602001919091929391929390505050610969565b005b3480156102dd57600080fd5b506102fc60048036038101908080359060200190929190505050610ae9565b604051808273ffffffffffffffffffffffffffffffffffffffff1673ffffffffffffffffffffffffffffffffffffffff16815260200191505060405180910390f35b34801561034a57600080fd5b5061037f600480360381019080803573ffffffffffffffffffffffffffffffffffffffff169060200190929190505050610b27565b6040518082815260200191505060405180910390f35b61039d61043c565b005b3480156103ab57600080fd5b506103e0600480360381019080803573ffffffffffffffffffffffffffffffffffffffff169060200190929190505050610b3f565b005b3480156103ee57600080fd5b506103f7610cda565b604051808215151515815260200191505060405180910390f35b34801561041d57600080fd5b50610426610cf0565b6040518082815260200191505060405180910390f35b565b6000600160008373ffffffffffffffffffffffffffffffffffffffff1673ffffffffffffffffffffffffffffffffffffffff16815260200190815260200160002060009054906101000a900460ff169050919050565b6000809054906101000a900473ffffffffffffffffffffffffffffffffffffffff1673ffffffffffffffffffffffffffffffffffffffff163373ffffffffffffffffffffffffffffffffffffffff16141515610558576040517f08c379a000000000000000000000000000000000000000000000000000000000815260040180806020018281038252601c8152602001807f43616c6c6572206973206e6f7420636f6e7472616374206f776e65720000000081525060200191505060405180910390fd5b80600060146101000a81548160ff02191690831515021790555050565b600080600091505b60048484604051808383808284378201915050925050509081526020016040518091039020805490508210156106d75760048484604051808383808284378201915050925050509081526020016040518091039020828154811015156105df57fe5b9060005260206000200160009054906101000a900473ffffffffffffffffffffffffffffffffffffffff169050600260036005868660405180838380828437820191505092505050908152602001604051809103902060008473ffffffffffffffffffffffffffffffffffffffff1673ffffffffffffffffffffffffffffffffffffffff168152602001908152602001600020540281151561067d57fe5b04600660008373ffffffffffffffffffffffffffffffffffffffff1673ffffffffffffffffffffffffffffffffffffffff16815260200190815260200160002060008282540192505081905550818060010192505061057d565b6004848460405180838380828437820191505092505050908152602001604051809103902060006107089190610cf6565b50505050565b3373ffffffffffffffffffffffffffffffffffffffff166108fc600660003373ffffffffffffffffffffffffffffffffffffffff1673ffffffffffffffffffffffffffffffffffffffff168152602001908152602001600020549081150290604051600060405180830381858888f19350505050158015610793573d6000803e3d6000fd5b50565b600080600091505b60048484604051808383808284378201915050925050509081526020016040518091039020805490508210156108e957600484846040518083838082843782019150509250505090815260200160405180910390208281548110151561080057fe5b9060005260206000200160009054906101000a900473ffffffffffffffffffffffffffffffffffffffff1690506005848460405180838380828437820191505092505050908152602001604051809103902060008273ffffffffffffffffffffffffffffffffffffffff1673ffffffffffffffffffffffffffffffffffffffff16815260200190815260200160002054600660008373ffffffffffffffffffffffffffffffffffffffff1673ffffffffffffffffffffffffffffffffffffffff16815260200190815260200160002060008282540192505081905550818060010192505061079e565b60048484604051808383808284378201915050925050509081526020016040518091039020600061091a9190610cf6565b50505050565b60016020528060005260406000206000915054906101000a900460ff1681565b60008060009054906101000a900473ffffffffffffffffffffffffffffffffffffffff16905090565b6000341180156109815750670de0b6b3a76400003411155b15156109f5576040517f08c379a000000000000000000000000000000000000000000000000000000000815260040180806020018281038252601c8152602001807f5061796d656e74206973206e6f74206265747765656e2030202d20310000000081525060200191505060405180910390fd5b346005838360405180838380828437820191505092505050908152602001604051809103902060003373ffffffffffffffffffffffffffffffffffffffff1673ffffffffffffffffffffffffffffffffffffffff16815260200190815260200160002081905550600482826040518083838082843782019150509250505090815260200160405180910390203390806001815401808255809150509060018203906000526020600020016000909192909190916101000a81548173ffffffffffffffffffffffffffffffffffffffff021916908373ffffffffffffffffffffffffffffffffffffffff160217905550505050565b600281815481101515610af857fe5b906000526020600020016000915054906101000a900473ffffffffffffffffffffffffffffffffffffffff1681565b60066020528060005260406000206000915090505481565b8060001515600160008373ffffffffffffffffffffffffffffffffffffffff1673ffffffffffffffffffffffffffffffffffffffff16815260200190815260200160002060009054906101000a900460ff161515141515610c08576040517f08c379a00000000000000000000000000000000000000000000000000000000081526004018080602001828103825260188152602001807f6169726c696e652064696420726567697374726174696f6e000000000000000081525060200191505060405180910390fd5b60018060008473ffffffffffffffffffffffffffffffffffffffff1673ffffffffffffffffffffffffffffffffffffffff16815260200190815260200160002060006101000a81548160ff02191690831515021790555060028290806001815401808255809150509060018203906000526020600020016000909192909190916101000a81548173ffffffffffffffffffffffffffffffffffffffff021916908373ffffffffffffffffffffffffffffffffffffffff1602179055505060016003600082825401925050819055505050565b60008060149054906101000a900460ff16905090565b60035481565b5080546000825590600052602060002090810190610d149190610d17565b50565b610d3991905b80821115610d35576000816000905550600101610d1d565b5090565b905600a165627a7a723058202a37a2dcb971d15b2826fa64456ea0253549bdbd2b81f53a653f25b7d00d9d3d0029",
  "source": "pragma solidity ^0.4.25;\r\n\r\n\r\ncontract FlightSuretyData {\r\n\r\n\r\n    /********************************************************************************************/\r\n    /*                                       DATA VARIABLES                                     */\r\n    /********************************************************************************************/\r\n\r\n    address private contractOwner;                                      // Account used to deploy contract\r\n    bool private operational = true;                                    // Blocks all state changes throughout the contract if false\r\n    mapping(address=>bool) public airlines;\r\n    address[] public airlineList;\r\n    uint256 public airlineCount = 0;\r\n    mapping(string=>address[]) private  clientBuyAddress;\r\n    mapping(string=>mapping(address=>uint256)) private  clientBuy;\r\n    mapping(address=>uint256) public clientWithdraw;\r\n    /********************************************************************************************/\r\n    /*                                       EVENT DEFINITIONS                                  */\r\n    /********************************************************************************************/\r\n\r\n\r\n    /**\r\n    * @dev Constructor\r\n    *      The deploying account becomes contractOwner\r\n    */\r\n    constructor\r\n                                (\r\n                                ) \r\n                                public \r\n    {\r\n        contractOwner = msg.sender;\r\n    }\r\n\r\n    /********************************************************************************************/\r\n    /*                                       FUNCTION MODIFIERS                                 */\r\n    /********************************************************************************************/\r\n\r\n    // Modifiers help avoid duplication of code. They are typically used to validate something\r\n    // before a function is allowed to be executed.\r\n\r\n    /**\r\n    * @dev Modifier that requires the \"operational\" boolean variable to be \"true\"\r\n    *      This is used on all state changing functions to pause the contract in \r\n    *      the event there is an issue that needs to be fixed\r\n    */\r\n    modifier requireIsOperational() \r\n    {\r\n        require(operational, \"Contract is currently not operational\");\r\n        _;  // All modifiers require an \"_\" which indicates where the function body will be added\r\n    }\r\n\r\n    /**\r\n    * @dev Modifier that requires the \"ContractOwner\" account to be the function caller\r\n    */\r\n    modifier requireContractOwner()\r\n    {\r\n        require(msg.sender == contractOwner, \"Caller is not contract owner\");\r\n        _;\r\n    }\r\n    \r\n    /**\r\n    * @dev Modifier that requires the airline did not do registration\r\n    */\r\n     modifier requireNoRegistration(address airline)\r\n    {\r\n        require(airlines[airline]==false, \"airline did registration\");\r\n        _;\r\n    }\r\n\r\n    /********************************************************************************************/\r\n    /*                                       UTILITY FUNCTIONS                                  */\r\n    /********************************************************************************************/\r\n\r\n    function getContractOwner()\r\n                                public \r\n                                returns(address)\r\n    {\r\n        return contractOwner;\r\n    } \r\n\r\n    /**\r\n    * @dev Get operating status of contract\r\n    *\r\n    * @return A bool that is the current operating status\r\n    */      \r\n    function isOperational() \r\n                            public \r\n                            view \r\n                            returns(bool) \r\n    {\r\n        return operational;\r\n    }\r\n\r\n\r\n    /**\r\n    * @dev Sets contract operations on/off\r\n    *\r\n    * When operational mode is disabled, all write transactions except for this one will fail\r\n    */    \r\n    function setOperatingStatus\r\n                            (\r\n                                bool mode\r\n                            ) \r\n                            external\r\n                            requireContractOwner \r\n    {\r\n        operational = mode;\r\n    }\r\n\r\n    /********************************************************************************************/\r\n    /*                                     SMART CONTRACT FUNCTIONS                             */\r\n    /********************************************************************************************/\r\n\r\n   /**\r\n    * @dev Add an airline to the registration queue\r\n    *      Can only be called from FlightSuretyApp contract\r\n    *\r\n    */   \r\n    function registerAirline\r\n                            (  \r\n                                address newAirline \r\n                            )\r\n                            external\r\n                            requireNoRegistration(newAirline)\r\n    {\r\n        airlines[newAirline]=true;\r\n        airlineList.push(newAirline);\r\n        airlineCount+=1;\r\n    }\r\n\r\n\r\n   /**\r\n    * @dev Buy insurance for a flight\r\n    *\r\n    */   \r\n    function buy\r\n                            (      \r\n                                string flight\r\n                            )\r\n                            external\r\n                            payable\r\n    {\r\n        require(msg.value>0 && msg.value<=1 ether,\"Payment is not between 0 - 1\");\r\n       clientBuy[flight][msg.sender]=msg.value;\r\n       clientBuyAddress[flight].push(msg.sender);\r\n    }\r\n\r\n    /**\r\n     *  @dev client withdraw \r\n    */\r\n    function withdraw\r\n                                (\r\n                                    \r\n                                )\r\n                                external\r\n    {\r\n        msg.sender.transfer(clientWithdraw[msg.sender]);\r\n    }\r\n    \r\n    /**\r\n     *  @dev Credits payouts to insurees\r\n    */\r\n    function creditInsurees\r\n                                (\r\n                                    string flight\r\n                                )\r\n                                external\r\n    {\r\n        for(uint256 i=0; i < clientBuyAddress[flight].length ; i++){\r\n            address clientAddress = clientBuyAddress[flight][i];\r\n            clientWithdraw[clientAddress]+=clientBuy[flight][clientAddress];\r\n        }\r\n        delete clientBuyAddress[flight];\r\n    }\r\n    \r\n\r\n    /**\r\n     *  @dev Transfers eligible payout funds to insuree\r\n     *\r\n    */\r\n    function pay\r\n                            (\r\n                                string flight\r\n                            )\r\n                            external\r\n    {\r\n         for(uint256 i=0; i < clientBuyAddress[flight].length ; i++){\r\n            address clientAddress = clientBuyAddress[flight][i];\r\n            clientWithdraw[clientAddress]+=clientBuy[flight][clientAddress]*3/2;\r\n        }\r\n        delete clientBuyAddress[flight];\r\n    }\r\n\r\n   /**\r\n    * @dev Initial funding for the insurance. Unless there are too many delayed flights\r\n    *      resulting in insurance payouts, the contract should be self-sustaining\r\n    *\r\n    */   \r\n    function fund\r\n                            (   \r\n                            )\r\n                            public\r\n                            payable\r\n    {\r\n    }\r\n\r\n    function getFlightKey\r\n                        (\r\n                            address airline,\r\n                            string memory flight,\r\n                            uint256 timestamp\r\n                        )\r\n                        pure\r\n                        internal\r\n                        returns(bytes32) \r\n    {\r\n        return keccak256(abi.encodePacked(airline, flight, timestamp));\r\n    }\r\n\r\n    function isAirline\r\n                      (\r\n                          address airline\r\n                      )\r\n                      external\r\n                      returns(bool)\r\n    {\r\n        return airlines[airline];\r\n    }\r\n\r\n    /**\r\n    * @dev Fallback function for funding smart contract.\r\n    *\r\n    */\r\n    function() \r\n                            external \r\n                            payable \r\n    {\r\n        fund();\r\n    }\r\n\r\n\r\n}\r\n\r\n",
  "sourcePath": "C:\\Users\\15077693d\\Desktop\\workplace\\blockchain\\FlightSurety\\contracts\\FlightSuretyData.sol",
  "compiler": {
    "name": "solc",
    "version": "0.4.26+commit.4563c3fc.Emscripten.clang"
  },
  "schemaVersion": "3.3.3",
  "updatedAt": "2021-04-20T15:46:47.373Z",
  "networkType": "ethereum",
  "devdoc": {
    "methods": {
      "buy(string)": {
        "details": "Buy insurance for a flight\r     "
      },
      "creditInsurees(string)": {
        "details": "Credits payouts to insurees\r"
      },
      "fund()": {
        "details": "Initial funding for the insurance. Unless there are too many delayed flights\r     resulting in insurance payouts, the contract should be self-sustaining\r     "
      },
      "isOperational()": {
        "details": "Get operating status of contract\r ",
        "return": "A bool that is the current operating status\r"
      },
      "pay(string)": {
        "details": "Transfers eligible payout funds to insuree\r     "
      },
      "registerAirline(address)": {
        "details": "Add an airline to the registration queue\r     Can only be called from FlightSuretyApp contract\r     "
      },
      "setOperatingStatus(bool)": {
        "details": "Sets contract operations on/off\r     * When operational mode is disabled, all write transactions except for this one will fail\r"
      },
      "withdraw()": {
        "details": "client withdraw \r"
      }
    }
  },
  "userdoc": {
    "methods": {
      "getContractOwner()": {
        "notice": "*****************************************************************************************"
      }
    }
  }
}