{
  "contractName": "FlightSuretyData",
  "abi": [
    {
      "constant": true,
      "inputs": [],
      "name": "flightCount",
      "outputs": [
        {
          "name": "",
          "type": "uint8"
        }
      ],
      "payable": false,
      "stateMutability": "view",
      "type": "function"
    },
    {
      "constant": true,
      "inputs": [
        {
          "name": "",
          "type": "address"
        },
        {
          "name": "",
          "type": "uint256"
        }
      ],
      "name": "clientPurchases",
      "outputs": [
        {
          "name": "",
          "type": "string"
        }
      ],
      "payable": false,
      "stateMutability": "view",
      "type": "function"
    },
    {
      "constant": true,
      "inputs": [
        {
          "name": "",
          "type": "address"
        }
      ],
      "name": "airlines",
      "outputs": [
        {
          "name": "",
          "type": "bool"
        }
      ],
      "payable": false,
      "stateMutability": "view",
      "type": "function"
    },
    {
      "constant": true,
      "inputs": [
        {
          "name": "",
          "type": "uint256"
        }
      ],
      "name": "airlineList",
      "outputs": [
        {
          "name": "",
          "type": "address"
        }
      ],
      "payable": false,
      "stateMutability": "view",
      "type": "function"
    },
    {
      "constant": true,
      "inputs": [
        {
          "name": "",
          "type": "address"
        }
      ],
      "name": "clientWithdraw",
      "outputs": [
        {
          "name": "",
          "type": "uint256"
        }
      ],
      "payable": false,
      "stateMutability": "view",
      "type": "function"
    },
    {
      "constant": true,
      "inputs": [
        {
          "name": "",
          "type": "uint256"
        }
      ],
      "name": "flightNames",
      "outputs": [
        {
          "name": "",
          "type": "string"
        }
      ],
      "payable": false,
      "stateMutability": "view",
      "type": "function"
    },
    {
      "constant": true,
      "inputs": [],
      "name": "airlineCount",
      "outputs": [
        {
          "name": "",
          "type": "uint256"
        }
      ],
      "payable": false,
      "stateMutability": "view",
      "type": "function"
    },
    {
      "inputs": [],
      "payable": false,
      "stateMutability": "nonpayable",
      "type": "constructor"
    },
    {
      "payable": true,
      "stateMutability": "payable",
      "type": "fallback"
    },
    {
      "constant": false,
      "inputs": [],
      "name": "getContractOwner",
      "outputs": [
        {
          "name": "",
          "type": "address"
        }
      ],
      "payable": false,
      "stateMutability": "nonpayable",
      "type": "function"
    },
    {
      "constant": true,
      "inputs": [],
      "name": "isOperational",
      "outputs": [
        {
          "name": "",
          "type": "bool"
        }
      ],
      "payable": false,
      "stateMutability": "view",
      "type": "function"
    },
    {
      "constant": false,
      "inputs": [
        {
          "name": "flight",
          "type": "string"
        }
      ],
      "name": "unsetFlight",
      "outputs": [],
      "payable": false,
      "stateMutability": "nonpayable",
      "type": "function"
    },
    {
      "constant": false,
      "inputs": [
        {
          "name": "updatedTimestamp",
          "type": "uint256"
        },
        {
          "name": "flight",
          "type": "string"
        },
        {
          "name": "airline",
          "type": "address"
        }
      ],
      "name": "setFlight",
      "outputs": [],
      "payable": false,
      "stateMutability": "nonpayable",
      "type": "function"
    },
    {
      "constant": false,
      "inputs": [
        {
          "name": "flight",
          "type": "string"
        }
      ],
      "name": "getFlight",
      "outputs": [
        {
          "name": "",
          "type": "uint8"
        },
        {
          "name": "",
          "type": "uint256"
        },
        {
          "name": "",
          "type": "address"
        },
        {
          "name": "",
          "type": "bool"
        },
        {
          "name": "",
          "type": "uint256"
        }
      ],
      "payable": false,
      "stateMutability": "nonpayable",
      "type": "function"
    },
    {
      "constant": false,
      "inputs": [
        {
          "name": "mode",
          "type": "bool"
        }
      ],
      "name": "setOperatingStatus",
      "outputs": [],
      "payable": false,
      "stateMutability": "nonpayable",
      "type": "function"
    },
    {
      "constant": false,
      "inputs": [
        {
          "name": "newAirline",
          "type": "address"
        }
      ],
      "name": "registerAirline",
      "outputs": [],
      "payable": false,
      "stateMutability": "nonpayable",
      "type": "function"
    },
    {
      "constant": false,
      "inputs": [
        {
          "name": "flight",
          "type": "string"
        },
        {
          "name": "client",
          "type": "address"
        }
      ],
      "name": "buy",
      "outputs": [],
      "payable": true,
      "stateMutability": "payable",
      "type": "function"
    },
    {
      "constant": false,
      "inputs": [
        {
          "name": "client",
          "type": "address"
        }
      ],
      "name": "withdraw",
      "outputs": [],
      "payable": false,
      "stateMutability": "nonpayable",
      "type": "function"
    },
    {
      "constant": false,
      "inputs": [
        {
          "name": "flight",
          "type": "string"
        }
      ],
      "name": "creditInsurees",
      "outputs": [],
      "payable": false,
      "stateMutability": "nonpayable",
      "type": "function"
    },
    {
      "constant": false,
      "inputs": [
        {
          "name": "flight",
          "type": "string"
        }
      ],
      "name": "pay",
      "outputs": [],
      "payable": false,
      "stateMutability": "nonpayable",
      "type": "function"
    },
    {
      "constant": false,
      "inputs": [],
      "name": "fund",
      "outputs": [],
      "payable": true,
      "stateMutability": "payable",
      "type": "function"
    },
    {
      "constant": false,
      "inputs": [
        {
          "name": "airline",
          "type": "address"
        }
      ],
      "name": "isAirline",
      "outputs": [
        {
          "name": "",
          "type": "bool"
        }
      ],
      "payable": false,
      "stateMutability": "nonpayable",
      "type": "function"
    }
  ],
  "bytecode": "0x60806040526001600060146101000a81548160ff02191690831515021790555060006003556000600760006101000a81548160ff021916908360ff16021790555034801561004c57600080fd5b50336000806101000a81548173ffffffffffffffffffffffffffffffffffffffff021916908373ffffffffffffffffffffffffffffffffffffffff1602179055506119c18061009c6000396000f300608060405260043610610112576000357c0100000000000000000000000000000000000000000000000000000000900463ffffffff1680630e248a111461011c578063110466ed146101775780631688972d146101a65780631bc095671461020f5780632ad2ba7c146102405780632b66d72e146103065780633fcf1cf414610341578063416847691461037c578063442890d5146103d757806351cff8d91461042e57806374c7276914610471578063775afd62146104de5780639ddf415314610571578063b2bf7ad0146105c8578063b60d42881461066e578063bdfd987714610678578063cd905dff146106bb578063ce059596146106ea578063e1a3e55c146107b9578063f552677414610807575b61011a610832565b005b34801561012857600080fd5b5061015d600480360381019080803573ffffffffffffffffffffffffffffffffffffffff169060200190929190505050610834565b604051808215151515815260200191505060405180910390f35b34801561018357600080fd5b506101a460048036038101908080351515906020019092919050505061088a565b005b3480156101b257600080fd5b5061020d600480360381019080803590602001908201803590602001908080601f016020809104026020016040519081016040528093929190818152602001838380828437820191505050505050919291929050505061096b565b005b34801561021b57600080fd5b506102246109f5565b604051808260ff1660ff16815260200191505060405180910390f35b34801561024c57600080fd5b5061028b600480360381019080803573ffffffffffffffffffffffffffffffffffffffff16906020019092919080359060200190929190505050610a08565b6040518080602001828103825283818151815260200191508051906020019080838360005b838110156102cb5780820151818401526020810190506102b0565b50505050905090810190601f1680156102f85780820380516001836020036101000a031916815260200191505b509250505060405180910390f35b34801561031257600080fd5b5061033f600480360381019080803590602001908201803590602001919091929391929390505050610ad0565b005b34801561034d57600080fd5b5061037a600480360381019080803590602001908201803590602001919091929391929390505050610c7f565b005b34801561038857600080fd5b506103bd600480360381019080803573ffffffffffffffffffffffffffffffffffffffff169060200190929190505050610e1f565b604051808215151515815260200191505060405180910390f35b3480156103e357600080fd5b506103ec610e3f565b604051808273ffffffffffffffffffffffffffffffffffffffff1673ffffffffffffffffffffffffffffffffffffffff16815260200191505060405180910390f35b34801561043a57600080fd5b5061046f600480360381019080803573ffffffffffffffffffffffffffffffffffffffff169060200190929190505050610e68565b005b34801561047d57600080fd5b5061049c60048036038101908080359060200190929190505050610ef1565b604051808273ffffffffffffffffffffffffffffffffffffffff1673ffffffffffffffffffffffffffffffffffffffff16815260200191505060405180910390f35b3480156104ea57600080fd5b5061056f60048036038101908080359060200190929190803590602001908201803590602001908080601f0160208091040260200160405190810160405280939291908181526020018383808284378201915050505050509192919290803573ffffffffffffffffffffffffffffffffffffffff169060200190929190505050610f2f565b005b34801561057d57600080fd5b506105b2600480360381019080803573ffffffffffffffffffffffffffffffffffffffff169060200190929190505050611193565b6040518082815260200191505060405180910390f35b3480156105d457600080fd5b506105f3600480360381019080803590602001909291905050506111ab565b6040518080602001828103825283818151815260200191508051906020019080838360005b83811015610633578082015181840152602081019050610618565b50505050905090810190601f1680156106605780820380516001836020036101000a031916815260200191505b509250505060405180910390f35b610676610832565b005b34801561068457600080fd5b506106b9600480360381019080803573ffffffffffffffffffffffffffffffffffffffff169060200190929190505050611266565b005b3480156106c757600080fd5b506106d0611401565b604051808215151515815260200191505060405180910390f35b3480156106f657600080fd5b50610751600480360381019080803590602001908201803590602001908080601f0160208091040260200160405190810160405280939291908181526020018383808284378201915050505050509192919290505050611417565b604051808660ff1660ff1681526020018581526020018473ffffffffffffffffffffffffffffffffffffffff1673ffffffffffffffffffffffffffffffffffffffff168152602001831515151581526020018281526020019550505050505060405180910390f35b610805600480360381019080803590602001908201803590602001919091929391929390803573ffffffffffffffffffffffffffffffffffffffff169060200190929190505050611697565b005b34801561081357600080fd5b5061081c611855565b6040518082815260200191505060405180910390f35b565b6000600160008373ffffffffffffffffffffffffffffffffffffffff1673ffffffffffffffffffffffffffffffffffffffff16815260200190815260200160002060009054906101000a900460ff169050919050565b6000809054906101000a900473ffffffffffffffffffffffffffffffffffffffff1673ffffffffffffffffffffffffffffffffffffffff163373ffffffffffffffffffffffffffffffffffffffff1614151561094e576040517f08c379a000000000000000000000000000000000000000000000000000000000815260040180806020018281038252601c8152602001807f43616c6c6572206973206e6f7420636f6e7472616374206f776e65720000000081525060200191505060405180910390fd5b80600060146101000a81548160ff02191690831515021790555050565b600580826040518082805190602001908083835b6020831015156109a4578051825260208201915060208101905060208303925061097f565b6001836020036101000a038019825116818451168082178552505050505050905001915050908152602001604051809103902060000160006101000a81548160ff021916908360ff16021790555050565b600760009054906101000a900460ff1681565b600960205281600052604060002081815481101515610a2357fe5b90600052602060002001600091509150508054600181600116156101000203166002900480601f016020809104026020016040519081016040528092919081815260200182805460018160011615610100020316600290048015610ac85780601f10610a9d57610100808354040283529160200191610ac8565b820191906000526020600020905b815481529060010190602001808311610aab57829003601f168201915b505050505081565b600080600091505b6005848460405180838380828437820191505092505050908152602001604051809103902060040154821015610c38576005848460405180838380828437820191505092505050908152602001604051809103902060050182815481101515610b3d57fe5b9060005260206000200160009054906101000a900473ffffffffffffffffffffffffffffffffffffffff169050600260036005868660405180838380828437820191505092505050908152602001604051809103902060030160008473ffffffffffffffffffffffffffffffffffffffff1673ffffffffffffffffffffffffffffffffffffffff1681526020019081526020016000205402811515610bde57fe5b04600860008373ffffffffffffffffffffffffffffffffffffffff1673ffffffffffffffffffffffffffffffffffffffff168152602001908152602001600020600082825401925050819055508180600101925050610ad8565b60016005858560405180838380828437820191505092505050908152602001604051809103902060020160146101000a81548160ff02191690831515021790555050505050565b600080600091505b6005848460405180838380828437820191505092505050908152602001604051809103902060040154821015610dd8576005848460405180838380828437820191505092505050908152602001604051809103902060050182815481101515610cec57fe5b9060005260206000200160009054906101000a900473ffffffffffffffffffffffffffffffffffffffff1690506005848460405180838380828437820191505092505050908152602001604051809103902060030160008273ffffffffffffffffffffffffffffffffffffffff1673ffffffffffffffffffffffffffffffffffffffff16815260200190815260200160002054600860008373ffffffffffffffffffffffffffffffffffffffff1673ffffffffffffffffffffffffffffffffffffffff168152602001908152602001600020600082825401925050819055508180600101925050610c87565b60016005858560405180838380828437820191505092505050908152602001604051809103902060020160146101000a81548160ff02191690831515021790555050505050565b60016020528060005260406000206000915054906101000a900460ff1681565b60008060009054906101000a900473ffffffffffffffffffffffffffffffffffffffff16905090565b8073ffffffffffffffffffffffffffffffffffffffff166108fc600860008473ffffffffffffffffffffffffffffffffffffffff1673ffffffffffffffffffffffffffffffffffffffff168152602001908152602001600020549081150290604051600060405180830381858888f19350505050158015610eed573d6000803e3d6000fd5b5050565b600281815481101515610f0057fe5b906000526020600020016000915054906101000a900473ffffffffffffffffffffffffffffffffffffffff1681565b60008060008160000160006101000a81548160ff021916908360ff160217905550848160010181905550828160020160006101000a81548173ffffffffffffffffffffffffffffffffffffffff021916908373ffffffffffffffffffffffffffffffffffffffff16021790555060008160020160146101000a81548160ff02191690831515021790555060008160040181905550806005856040518082805190602001908083835b602083101515610ffc5780518252602082019150602081019050602083039250610fd7565b6001836020036101000a03801982511681845116808217855250505050505090500191505090815260200160405180910390206000820160009054906101000a900460ff168160000160006101000a81548160ff021916908360ff160217905550600182015481600101556002820160009054906101000a900473ffffffffffffffffffffffffffffffffffffffff168160020160006101000a81548173ffffffffffffffffffffffffffffffffffffffff021916908373ffffffffffffffffffffffffffffffffffffffff1602179055506002820160149054906101000a900460ff168160020160146101000a81548160ff02191690831515021790555060048201548160040155600582018160050190805461111b92919061185b565b50905050600684908060018154018082558091505090600182039060005260206000200160009091929091909150908051906020019061115c9291906118ad565b50506001600760008282829054906101000a900460ff160192506101000a81548160ff021916908360ff1602179055505050505050565b60086020528060005260406000206000915090505481565b6006818154811015156111ba57fe5b906000526020600020016000915090508054600181600116156101000203166002900480601f01602080910402602001604051908101604052809291908181526020018280546001816001161561010002031660029004801561125e5780601f106112335761010080835404028352916020019161125e565b820191906000526020600020905b81548152906001019060200180831161124157829003601f168201915b505050505081565b8060001515600160008373ffffffffffffffffffffffffffffffffffffffff1673ffffffffffffffffffffffffffffffffffffffff16815260200190815260200160002060009054906101000a900460ff16151514151561132f576040517f08c379a00000000000000000000000000000000000000000000000000000000081526004018080602001828103825260188152602001807f6169726c696e652064696420726567697374726174696f6e000000000000000081525060200191505060405180910390fd5b60018060008473ffffffffffffffffffffffffffffffffffffffff1673ffffffffffffffffffffffffffffffffffffffff16815260200190815260200160002060006101000a81548160ff02191690831515021790555060028290806001815401808255809150509060018203906000526020600020016000909192909190916101000a81548173ffffffffffffffffffffffffffffffffffffffff021916908373ffffffffffffffffffffffffffffffffffffffff1602179055505060016003600082825401925050819055505050565b60008060149054906101000a900460ff16905090565b60008060008060006005866040518082805190602001908083835b6020831015156114575780518252602082019150602081019050602083039250611432565b6001836020036101000a038019825116818451168082178552505050505050905001915050908152602001604051809103902060000160009054906101000a900460ff166005876040518082805190602001908083835b6020831015156114d357805182526020820191506020810190506020830392506114ae565b6001836020036101000a0380198251168184511680821785525050505050509050019150509081526020016040518091039020600101546005886040518082805190602001908083835b602083101515611542578051825260208201915060208101905060208303925061151d565b6001836020036101000a038019825116818451168082178552505050505050905001915050908152602001604051809103902060020160009054906101000a900473ffffffffffffffffffffffffffffffffffffffff166005896040518082805190602001908083835b6020831015156115d157805182526020820191506020810190506020830392506115ac565b6001836020036101000a038019825116818451168082178552505050505050905001915050908152602001604051809103902060020160149054906101000a900460ff1660058a6040518082805190602001908083835b60208310151561164d5780518252602082019150602081019050602083039250611628565b6001836020036101000a0380198251168184511680821785525050505050509050019150509081526020016040518091039020600401549450945094509450945091939590929450565b6000341180156116af5750670de0b6b3a76400003411155b1515611723576040517f08c379a000000000000000000000000000000000000000000000000000000000815260040180806020018281038252601c8152602001807f5061796d656e74206973206e6f74206265747765656e2030202d20310000000081525060200191505060405180910390fd5b60016005848460405180838380828437820191505092505050908152602001604051809103902060040160008282540192505081905550600583836040518083838082843782019150509250505090815260200160405180910390206005018190806001815401808255809150509060018203906000526020600020016000909192909190916101000a81548173ffffffffffffffffffffffffffffffffffffffff021916908373ffffffffffffffffffffffffffffffffffffffff16021790555050346005848460405180838380828437820191505092505050908152602001604051809103902060030160008373ffffffffffffffffffffffffffffffffffffffff1673ffffffffffffffffffffffffffffffffffffffff16815260200190815260200160002081905550505050565b60035481565b82805482825590600052602060002090810192821561189c5760005260206000209182015b8281111561189b578254825591600101919060010190611880565b5b5090506118a9919061192d565b5090565b828054600181600116156101000203166002900490600052602060002090601f016020900481019282601f106118ee57805160ff191683800117855561191c565b8280016001018555821561191c579182015b8281111561191b578251825591602001919060010190611900565b5b5090506119299190611970565b5090565b61196d91905b8082111561196957600081816101000a81549073ffffffffffffffffffffffffffffffffffffffff021916905550600101611933565b5090565b90565b61199291905b8082111561198e576000816000905550600101611976565b5090565b905600a165627a7a7230582049d8c771b182c2f073d1c5327835d82f86caba5f1c60673420105c03590c247f0029",
  "source": "pragma solidity ^0.4.25;\r\n\r\n\r\ncontract FlightSuretyData {\r\n\r\n\r\n    /********************************************************************************************/\r\n    /*                                       DATA VARIABLES                                     */\r\n    /********************************************************************************************/\r\n    uint8 private constant STATUS_CODE_CANCEl = 5; \r\n    uint8 private constant STATUS_CODE_UNKNOWN = 0;\r\n    uint8 private constant STATUS_CODE_ON_TIME = 10;\r\n    uint8 private constant STATUS_CODE_LATE_AIRLINE = 20;\r\n    uint8 private constant STATUS_CODE_LATE_WEATHER = 30;\r\n    uint8 private constant STATUS_CODE_LATE_TECHNICAL = 40;\r\n    uint8 private constant STATUS_CODE_LATE_OTHER = 50;\r\n\r\n    address private contractOwner;                                      // Account used to deploy contract\r\n    bool private operational = true;                                    // Blocks all state changes throughout the contract if false\r\n    // airlines\r\n    mapping(address=>bool) public airlines;\r\n    address[] public airlineList;\r\n    uint256 public airlineCount = 0;\r\n    mapping(address=>uint256) emptyMapping;\r\n    \r\n    // flights\r\n    struct Flight {\r\n        uint8 statusCode;\r\n        uint256 updatedTimestamp;        \r\n        address airline;\r\n        bool repayment;\r\n        mapping(address=>uint256) clientPayments; \r\n        uint256 clientCount;\r\n        address[] clientaddresses;\r\n    }\r\n    mapping(string => Flight) private flights;\r\n    string[] public flightNames;\r\n    uint8 public flightCount = 0;\r\n\r\n    // clients\r\n    mapping(address=>uint256) public clientWithdraw;\r\n    mapping(address=> string[]) public clientPurchases;\r\n    /********************************************************************************************/\r\n    /*                                       EVENT DEFINITIONS                                  */\r\n    /********************************************************************************************/\r\n\r\n    /**\r\n    * @dev Constructor\r\n    *      The deploying account becomes contractOwner\r\n    */\r\n    constructor\r\n                                (\r\n                                ) \r\n                                public \r\n    {\r\n        contractOwner = msg.sender;\r\n    }\r\n\r\n    /********************************************************************************************/\r\n    /*                                       FUNCTION MODIFIERS                                 */\r\n    /********************************************************************************************/\r\n\r\n    // Modifiers help avoid duplication of code. They are typically used to validate something\r\n    // before a function is allowed to be executed.\r\n\r\n    /**\r\n    * @dev Modifier that requires the \"operational\" boolean variable to be \"true\"\r\n    *      This is used on all state changing functions to pause the contract in \r\n    *      the event there is an issue that needs to be fixed\r\n    */\r\n    modifier requireIsOperational() \r\n    {\r\n        require(operational, \"Contract is currently not operational\");\r\n        _;  // All modifiers require an \"_\" which indicates where the function body will be added\r\n    }\r\n\r\n    /**\r\n    * @dev Modifier that requires the \"ContractOwner\" account to be the function caller\r\n    */\r\n    modifier requireContractOwner()\r\n    {\r\n        require(msg.sender == contractOwner, \"Caller is not contract owner\");\r\n        _;\r\n    }\r\n    \r\n    /**\r\n    * @dev Modifier that requires the airline did not do registration\r\n    */\r\n     modifier requireNoRegistration(address airline)\r\n    {\r\n        require(airlines[airline]==false, \"airline did registration\");\r\n        _;\r\n    }\r\n\r\n    /********************************************************************************************/\r\n    /*                                       UTILITY FUNCTIONS                                  */\r\n    /********************************************************************************************/\r\n\r\n    // Genranal\r\n     function getContractOwner()\r\n                                public \r\n                                returns(address)\r\n    {\r\n        return contractOwner;\r\n    } \r\n\r\n    /**\r\n    * @dev Get operating status of contract\r\n    *\r\n    * @return A bool that is the current operating status\r\n    */      \r\n    function isOperational() \r\n                            public \r\n                            view \r\n                            returns(bool) \r\n    {\r\n        return operational;\r\n    }\r\n\r\n    // Flight\r\n    \r\n    /**\r\n     *  @dev Credits payouts to insurees\r\n    */\r\n    \r\n    function unsetFlight(\r\n                            string flight\r\n                        )\r\n    {   \r\n        flights[flight].statusCode = STATUS_CODE_CANCEl;\r\n    }\r\n\r\n    function setFlight(\r\n                            uint256 updatedTimestamp,\r\n                            string flight,\r\n                            address airline\r\n                        )\r\n                        public\r\n    {\r\n        address[]  emptyArray;\r\n        Flight storage newFlight;\r\n        newFlight.statusCode=STATUS_CODE_UNKNOWN;\r\n        newFlight.updatedTimestamp=updatedTimestamp;        \r\n        newFlight.airline=airline;\r\n        newFlight.repayment=false;\r\n        newFlight.clientCount=0;\r\n        flights[flight] = newFlight;\r\n        flightNames.push(flight);\r\n        flightCount+=1;\r\n    }\r\n\r\n    function getFlight(string flight)\r\n                            public\r\n                            returns(uint8,uint256,address, bool, uint256)\r\n    {\r\n        return  (\r\n        flights[flight].statusCode,\r\n        flights[flight].updatedTimestamp,\r\n        flights[flight].airline,\r\n         flights[flight].repayment,\r\n         flights[flight].clientCount);\r\n    }\r\n\r\n   \r\n\r\n\r\n    /**\r\n    * @dev Sets contract operations on/off\r\n    *\r\n    * When operational mode is disabled, all write transactions except for this one will fail\r\n    */    \r\n    function setOperatingStatus\r\n                            (\r\n                                bool mode\r\n                            ) \r\n                            external\r\n                            requireContractOwner \r\n    {\r\n        operational = mode;\r\n    }\r\n\r\n    /********************************************************************************************/\r\n    /*                                     SMART CONTRACT FUNCTIONS                             */\r\n    /********************************************************************************************/\r\n\r\n   /**\r\n    * @dev Add an airline to the registration queue\r\n    *      Can only be called from FlightSuretyApp contract\r\n    *\r\n    */   \r\n    function registerAirline\r\n                            (  \r\n                                address newAirline \r\n                            )\r\n                            external\r\n                            requireNoRegistration(newAirline)\r\n    {\r\n        airlines[newAirline]=true;\r\n        airlineList.push(newAirline);\r\n        airlineCount+=1;\r\n    }\r\n\r\n\r\n   /**\r\n    * @dev Buy insurance for a flight\r\n    *\r\n    */   \r\n    function buy\r\n                            (      \r\n                                string flight,\r\n                                address client\r\n                            )\r\n                            external\r\n                            payable\r\n    {\r\n        require(msg.value>0 && msg.value<=1 ether,\"Payment is not between 0 - 1\");\r\n       flights[flight].clientCount+=1;\r\n        flights[flight].clientaddresses.push(client);\r\n       flights[flight].clientPayments[client]=msg.value;\r\n    }\r\n\r\n    /**\r\n     *  @dev client withdraw \r\n    */\r\n    function withdraw\r\n                                (\r\n                                    address client\r\n                                )\r\n                                external\r\n    {\r\n        client.transfer(clientWithdraw[client]);\r\n    }\r\n    \r\n    /**\r\n     *  @dev Credits payouts to insurees\r\n    */\r\n    function creditInsurees\r\n                                (\r\n                                    string flight\r\n                                )\r\n                                external\r\n    {\r\n\r\n        for(uint256 i=0; i < flights[flight].clientCount ; i++){\r\n            address clientAddress = flights[flight].clientaddresses[i];\r\n            clientWithdraw[clientAddress]+= flights[flight].clientPayments[clientAddress];\r\n        }\r\n        flights[flight].repayment = true;\r\n    }\r\n    \r\n\r\n    /**\r\n     *  @dev Transfers eligible payout funds to insuree\r\n     *\r\n    */\r\n    function pay\r\n                            (\r\n                                string flight\r\n                            )\r\n                            external\r\n    {\r\n        for(uint256 i=0; i < flights[flight].clientCount ; i++){\r\n            address clientAddress = flights[flight].clientaddresses[i];\r\n            clientWithdraw[clientAddress]+= flights[flight].clientPayments[clientAddress]*3/2;\r\n        }\r\n        flights[flight].repayment = true;\r\n    }\r\n\r\n   /**\r\n    * @dev Initial funding for the insurance. Unless there are too many delayed flights\r\n    *      resulting in insurance payouts, the contract should be self-sustaining\r\n    *\r\n    */   \r\n    function fund\r\n                            (   \r\n                            )\r\n                            public\r\n                            payable\r\n    {\r\n    }\r\n\r\n    function getFlightKey\r\n                        (\r\n                            address airline,\r\n                            string memory flight,\r\n                            uint256 timestamp\r\n                        )\r\n                        pure\r\n                        internal\r\n                        returns(bytes32) \r\n    {\r\n        return keccak256(abi.encodePacked(airline, flight, timestamp));\r\n    }\r\n\r\n    function isAirline\r\n                      (\r\n                          address airline\r\n                      )\r\n                      external\r\n                      returns(bool)\r\n    {\r\n        return airlines[airline];\r\n    }\r\n\r\n    /**\r\n    * @dev Fallback function for funding smart contract.\r\n    *\r\n    */\r\n    function() \r\n                            external \r\n                            payable \r\n    {\r\n        fund();\r\n    }\r\n\r\n\r\n}\r\n\r\n\r\n",
  "sourcePath": "C:\\Users\\yiulaps\\Desktop\\workspace\\FlightSurety\\contracts\\FlightSuretyData.sol",
  "compiler": {
    "name": "solc",
    "version": "0.4.26+commit.4563c3fc.Emscripten.clang"
  },
  "schemaVersion": "3.3.4",
  "updatedAt": "2021-04-22T08:43:09.774Z",
  "networkType": "ethereum",
  "devdoc": {
    "methods": {
      "buy(string,address)": {
        "details": "Buy insurance for a flight\r     "
      },
      "creditInsurees(string)": {
        "details": "Credits payouts to insurees\r"
      },
      "fund()": {
        "details": "Initial funding for the insurance. Unless there are too many delayed flights\r     resulting in insurance payouts, the contract should be self-sustaining\r     "
      },
      "isOperational()": {
        "details": "Get operating status of contract\r ",
        "return": "A bool that is the current operating status\r"
      },
      "pay(string)": {
        "details": "Transfers eligible payout funds to insuree\r     "
      },
      "registerAirline(address)": {
        "details": "Add an airline to the registration queue\r     Can only be called from FlightSuretyApp contract\r     "
      },
      "setOperatingStatus(bool)": {
        "details": "Sets contract operations on/off\r     * When operational mode is disabled, all write transactions except for this one will fail\r"
      },
      "unsetFlight(string)": {
        "details": "Credits payouts to insurees\r"
      },
      "withdraw(address)": {
        "details": "client withdraw \r"
      }
    }
  },
  "userdoc": {
    "methods": {
      "getContractOwner()": {
        "notice": "*****************************************************************************************"
      }
    }
  }
}