{
  "contractName": "FlightSuretyApp",
  "abi": [
    {
      "constant": true,
      "inputs": [
        {
          "name": "",
          "type": "address"
        }
      ],
      "name": "registratingAirlinesVoteCount",
      "outputs": [
        {
          "name": "",
          "type": "uint256"
        }
      ],
      "payable": false,
      "stateMutability": "view",
      "type": "function"
    },
    {
      "constant": true,
      "inputs": [],
      "name": "REGISTRATION_FEE",
      "outputs": [
        {
          "name": "",
          "type": "uint256"
        }
      ],
      "payable": false,
      "stateMutability": "view",
      "type": "function"
    },
    {
      "constant": true,
      "inputs": [
        {
          "name": "",
          "type": "address"
        }
      ],
      "name": "registratedAirlinesEther",
      "outputs": [
        {
          "name": "",
          "type": "uint256"
        }
      ],
      "payable": false,
      "stateMutability": "view",
      "type": "function"
    },
    {
      "constant": true,
      "inputs": [
        {
          "name": "",
          "type": "address"
        },
        {
          "name": "",
          "type": "address"
        }
      ],
      "name": "registratingAirlinesVoteAddress",
      "outputs": [
        {
          "name": "",
          "type": "bool"
        }
      ],
      "payable": false,
      "stateMutability": "view",
      "type": "function"
    },
    {
      "inputs": [
        {
          "name": "dataAddress",
          "type": "address"
        },
        {
          "name": "airlineAddress",
          "type": "address"
        }
      ],
      "payable": false,
      "stateMutability": "nonpayable",
      "type": "constructor"
    },
    {
      "anonymous": false,
      "inputs": [
        {
          "indexed": false,
          "name": "airline",
          "type": "address"
        },
        {
          "indexed": false,
          "name": "flight",
          "type": "string"
        },
        {
          "indexed": false,
          "name": "timestamp",
          "type": "uint256"
        },
        {
          "indexed": false,
          "name": "status",
          "type": "uint8"
        }
      ],
      "name": "FlightStatusInfo",
      "type": "event"
    },
    {
      "anonymous": false,
      "inputs": [
        {
          "indexed": false,
          "name": "airline",
          "type": "address"
        },
        {
          "indexed": false,
          "name": "flight",
          "type": "string"
        },
        {
          "indexed": false,
          "name": "timestamp",
          "type": "uint256"
        },
        {
          "indexed": false,
          "name": "status",
          "type": "uint8"
        }
      ],
      "name": "OracleReport",
      "type": "event"
    },
    {
      "anonymous": false,
      "inputs": [
        {
          "indexed": false,
          "name": "index",
          "type": "uint8"
        },
        {
          "indexed": false,
          "name": "airline",
          "type": "address"
        },
        {
          "indexed": false,
          "name": "flight",
          "type": "string"
        },
        {
          "indexed": false,
          "name": "timestamp",
          "type": "uint256"
        }
      ],
      "name": "OracleRequest",
      "type": "event"
    },
    {
      "constant": false,
      "inputs": [],
      "name": "isOperational",
      "outputs": [
        {
          "name": "",
          "type": "bool"
        }
      ],
      "payable": false,
      "stateMutability": "nonpayable",
      "type": "function"
    },
    {
      "constant": false,
      "inputs": [
        {
          "name": "flight",
          "type": "string"
        }
      ],
      "name": "buyInsurance",
      "outputs": [],
      "payable": true,
      "stateMutability": "payable",
      "type": "function"
    },
    {
      "constant": false,
      "inputs": [
        {
          "name": "flight",
          "type": "string"
        }
      ],
      "name": "payClient",
      "outputs": [],
      "payable": false,
      "stateMutability": "nonpayable",
      "type": "function"
    },
    {
      "constant": false,
      "inputs": [],
      "name": "addEther",
      "outputs": [],
      "payable": true,
      "stateMutability": "payable",
      "type": "function"
    },
    {
      "constant": false,
      "inputs": [
        {
          "name": "newAirline",
          "type": "address"
        }
      ],
      "name": "registerAirline",
      "outputs": [
        {
          "name": "success",
          "type": "bool"
        },
        {
          "name": "votes",
          "type": "uint256"
        }
      ],
      "payable": false,
      "stateMutability": "nonpayable",
      "type": "function"
    },
    {
      "constant": false,
      "inputs": [
        {
          "name": "flight",
          "type": "string"
        }
      ],
      "name": "removeFlight",
      "outputs": [],
      "payable": false,
      "stateMutability": "nonpayable",
      "type": "function"
    },
    {
      "constant": false,
      "inputs": [
        {
          "name": "updatedTimestamp",
          "type": "uint256"
        },
        {
          "name": "flight",
          "type": "string"
        }
      ],
      "name": "registerFlight",
      "outputs": [],
      "payable": false,
      "stateMutability": "nonpayable",
      "type": "function"
    },
    {
      "constant": false,
      "inputs": [
        {
          "name": "airline",
          "type": "address"
        },
        {
          "name": "flight",
          "type": "string"
        },
        {
          "name": "timestamp",
          "type": "uint256"
        }
      ],
      "name": "fetchFlightStatus",
      "outputs": [],
      "payable": false,
      "stateMutability": "nonpayable",
      "type": "function"
    },
    {
      "constant": false,
      "inputs": [],
      "name": "registerOracle",
      "outputs": [],
      "payable": true,
      "stateMutability": "payable",
      "type": "function"
    },
    {
      "constant": true,
      "inputs": [],
      "name": "getMyIndexes",
      "outputs": [
        {
          "name": "",
          "type": "uint8[3]"
        }
      ],
      "payable": false,
      "stateMutability": "view",
      "type": "function"
    },
    {
      "constant": false,
      "inputs": [
        {
          "name": "index",
          "type": "uint8"
        },
        {
          "name": "airline",
          "type": "address"
        },
        {
          "name": "flight",
          "type": "string"
        },
        {
          "name": "timestamp",
          "type": "uint256"
        },
        {
          "name": "statusCode",
          "type": "uint8"
        }
      ],
      "name": "submitOracleResponse",
      "outputs": [],
      "payable": false,
      "stateMutability": "nonpayable",
      "type": "function"
    }
  ],
  "bytecode": "0x60806040526000600460146101000a81548160ff021916908360ff16021790555034801561002c57600080fd5b5060405160408061256d833981018060405281019080805190602001909291908051906020019092919050505081600460006101000a81548173ffffffffffffffffffffffffffffffffffffffff021916908373ffffffffffffffffffffffffffffffffffffffff160217905550600460009054906101000a900473ffffffffffffffffffffffffffffffffffffffff1673ffffffffffffffffffffffffffffffffffffffff1663bdfd9877826040518263ffffffff167c0100000000000000000000000000000000000000000000000000000000028152600401808273ffffffffffffffffffffffffffffffffffffffff1673ffffffffffffffffffffffffffffffffffffffff168152602001915050600060405180830381600087803b15801561015757600080fd5b505af115801561016b573d6000803e3d6000fd5b5050505033600360006101000a81548173ffffffffffffffffffffffffffffffffffffffff021916908373ffffffffffffffffffffffffffffffffffffffff16021790555050506123ac806101c16000396000f3006080604052600436106100db576000357c0100000000000000000000000000000000000000000000000000000000900463ffffffff168063339d2590146100e05780633b9f9fb0146100ea5780635f1cc0e61461014157806364b4f751146101945780636ea21ad6146101bf5780638894dd2b146101ed578063a637d6c2146101f7578063a67dc60d14610232578063b3ecbc7914610289578063bdfd987714610304578063c10f270014610366578063c389ba00146103e5578063cd905dff14610420578063f05737521461044f578063f83f11c014610494575b600080fd5b6100e86104f9565b005b3480156100f657600080fd5b5061012b600480360381019080803573ffffffffffffffffffffffffffffffffffffffff169060200190929190505050610621565b6040518082815260200191505060405180910390f35b34801561014d57600080fd5b50610156610639565b6040518082600360200280838360005b83811015610181578082015181840152602081019050610166565b5050505090500191505060405180910390f35b3480156101a057600080fd5b506101a96107ae565b6040518082815260200191505060405180910390f35b6101eb6004803603810190808035906020019082018035906020019190919293919293905050506107ba565b005b6101f56108b6565b005b34801561020357600080fd5b506102306004803603810190808035906020019082018035906020019190919293919293905050506109a4565b005b34801561023e57600080fd5b50610273600480360381019080803573ffffffffffffffffffffffffffffffffffffffff169060200190929190505050610a6b565b6040518082815260200191505060405180910390f35b34801561029557600080fd5b506102ea600480360381019080803573ffffffffffffffffffffffffffffffffffffffff169060200190929190803573ffffffffffffffffffffffffffffffffffffffff169060200190929190505050610a83565b604051808215151515815260200191505060405180910390f35b34801561031057600080fd5b50610345600480360381019080803573ffffffffffffffffffffffffffffffffffffffff169060200190929190505050610ab2565b60405180831515151581526020018281526020019250505060405180910390f35b34801561037257600080fd5b506103e3600480360381019080803560ff169060200190929190803573ffffffffffffffffffffffffffffffffffffffff16906020019092919080359060200190820180359060200191909192939192939080359060200190929190803560ff16906020019092919050505061122e565b005b3480156103f157600080fd5b5061041e600480360381019080803590602001908201803590602001919091929391929390505050611847565b005b34801561042c57600080fd5b50610435611a90565b604051808215151515815260200191505060405180910390f35b34801561045b57600080fd5b5061049260048036038101908080359060200190929190803590602001908201803590602001919091929391929390505050611b58565b005b3480156104a057600080fd5b506104f7600480360381019080803573ffffffffffffffffffffffffffffffffffffffff16906020019092919080359060200190820180359060200191909192939192939080359060200190929190505050611d1b565b005b610501612293565b670de0b6b3a76400003410151515610581576040517f08c379a000000000000000000000000000000000000000000000000000000000815260040180806020018281038252601c8152602001807f526567697374726174696f6e206665652069732072657175697265640000000081525060200191505060405180910390fd5b61058a33611f85565b9050604080519081016040528060011515815260200182815250600560003373ffffffffffffffffffffffffffffffffffffffff1673ffffffffffffffffffffffffffffffffffffffff16815260200190815260200160002060008201518160000160006101000a81548160ff02191690831515021790555060208201518160010190600361061a9291906122b6565b5090505050565b60006020528060005260406000206000915090505481565b610641612293565b600560003373ffffffffffffffffffffffffffffffffffffffff1673ffffffffffffffffffffffffffffffffffffffff16815260200190815260200160002060000160009054906101000a900460ff161515610705576040517f08c379a000000000000000000000000000000000000000000000000000000000815260040180806020018281038252601b8152602001807f4e6f74207265676973746572656420617320616e206f7261636c65000000000081525060200191505060405180910390fd5b600560003373ffffffffffffffffffffffffffffffffffffffff1673ffffffffffffffffffffffffffffffffffffffff1681526020019081526020016000206001016003806020026040519081016040528092919082600380156107a4576020028201916000905b82829054906101000a900460ff1660ff168152602001906001019060208260000104928301926001038202915080841161076d5790505b5050505050905090565b670de0b6b3a764000081565b600460009054906101000a900473ffffffffffffffffffffffffffffffffffffffff1673ffffffffffffffffffffffffffffffffffffffff1663e1a3e55c348484336040518563ffffffff167c010000000000000000000000000000000000000000000000000000000002815260040180806020018373ffffffffffffffffffffffffffffffffffffffff1673ffffffffffffffffffffffffffffffffffffffff168152602001828103825285858281815260200192508082843782019150509450505050506000604051808303818588803b15801561089957600080fd5b505af11580156108ad573d6000803e3d6000fd5b50505050505050565b600460009054906101000a900473ffffffffffffffffffffffffffffffffffffffff1673ffffffffffffffffffffffffffffffffffffffff1663b60d4288346040518263ffffffff167c01000000000000000000000000000000000000000000000000000000000281526004016000604051808303818588803b15801561093c57600080fd5b505af1158015610950573d6000803e3d6000fd5b505050505034600160003373ffffffffffffffffffffffffffffffffffffffff1673ffffffffffffffffffffffffffffffffffffffff16815260200190815260200160002060008282540192505081905550565b600460009054906101000a900473ffffffffffffffffffffffffffffffffffffffff1673ffffffffffffffffffffffffffffffffffffffff16632b66d72e83836040518363ffffffff167c01000000000000000000000000000000000000000000000000000000000281526004018080602001828103825284848281815260200192508082843782019150509350505050600060405180830381600087803b158015610a4f57600080fd5b505af1158015610a63573d6000803e3d6000fd5b505050505050565b60016020528060005260406000206000915090505481565b60026020528160005260406000206020528060005260406000206000915091509054906101000a900460ff1681565b600080600460009054906101000a900473ffffffffffffffffffffffffffffffffffffffff1673ffffffffffffffffffffffffffffffffffffffff16630e248a11336040518263ffffffff167c0100000000000000000000000000000000000000000000000000000000028152600401808273ffffffffffffffffffffffffffffffffffffffff1673ffffffffffffffffffffffffffffffffffffffff168152602001915050602060405180830381600087803b158015610b7257600080fd5b505af1158015610b86573d6000803e3d6000fd5b505050506040513d6020811015610b9c57600080fd5b81019080805190602001909291905050501515610c21576040517f08c379a00000000000000000000000000000000000000000000000000000000081526004018080602001828103825260158152602001807f43616c6c6572206973206e6f74206169726c696e65000000000000000000000081525060200191505060405180910390fd5b6001915060001515600260008573ffffffffffffffffffffffffffffffffffffffff1673ffffffffffffffffffffffffffffffffffffffff16815260200190815260200160002060003373ffffffffffffffffffffffffffffffffffffffff1673ffffffffffffffffffffffffffffffffffffffff16815260200190815260200160002060009054906101000a900460ff161515141515610d2a576040517f08c379a00000000000000000000000000000000000000000000000000000000081526004018080602001828103825260108152602001807f6169726c696e652064696420766f74650000000000000000000000000000000081525060200191505060405180910390fd5b60048060009054906101000a900473ffffffffffffffffffffffffffffffffffffffff1673ffffffffffffffffffffffffffffffffffffffff1663f55267746040518163ffffffff167c0100000000000000000000000000000000000000000000000000000000028152600401602060405180830381600087803b158015610db157600080fd5b505af1158015610dc5573d6000803e3d6000fd5b505050506040513d6020811015610ddb57600080fd5b81019080805190602001909291905050501015610f1957600460009054906101000a900473ffffffffffffffffffffffffffffffffffffffff1673ffffffffffffffffffffffffffffffffffffffff1663bdfd9877846040518263ffffffff167c0100000000000000000000000000000000000000000000000000000000028152600401808273ffffffffffffffffffffffffffffffffffffffff1673ffffffffffffffffffffffffffffffffffffffff168152602001915050600060405180830381600087803b158015610eaf57600080fd5b505af1158015610ec3573d6000803e3d6000fd5b5050505060016000808573ffffffffffffffffffffffffffffffffffffffff1673ffffffffffffffffffffffffffffffffffffffff16815260200190815260200160002060008282540192505081905550611150565b600460009054906101000a900473ffffffffffffffffffffffffffffffffffffffff1673ffffffffffffffffffffffffffffffffffffffff1663f55267746040518163ffffffff167c0100000000000000000000000000000000000000000000000000000000028152600401602060405180830381600087803b158015610f9f57600080fd5b505af1158015610fb3573d6000803e3d6000fd5b505050506040513d6020811015610fc957600080fd5b810190808051906020019092919050505060026000808673ffffffffffffffffffffffffffffffffffffffff1673ffffffffffffffffffffffffffffffffffffffff16815260200190815260200160002054021015156110fd57600460009054906101000a900473ffffffffffffffffffffffffffffffffffffffff1673ffffffffffffffffffffffffffffffffffffffff1663bdfd9877846040518263ffffffff167c0100000000000000000000000000000000000000000000000000000000028152600401808273ffffffffffffffffffffffffffffffffffffffff1673ffffffffffffffffffffffffffffffffffffffff168152602001915050600060405180830381600087803b1580156110e057600080fd5b505af11580156110f4573d6000803e3d6000fd5b5050505061114f565b60016000808573ffffffffffffffffffffffffffffffffffffffff1673ffffffffffffffffffffffffffffffffffffffff16815260200190815260200160002060008282540192505081905550600091505b5b6001600260008573ffffffffffffffffffffffffffffffffffffffff1673ffffffffffffffffffffffffffffffffffffffff16815260200190815260200160002060003373ffffffffffffffffffffffffffffffffffffffff1673ffffffffffffffffffffffffffffffffffffffff16815260200190815260200160002060006101000a81548160ff021916908315150217905550816000808573ffffffffffffffffffffffffffffffffffffffff1673ffffffffffffffffffffffffffffffffffffffff1681526020019081526020016000205491509150915091565b60008660ff16600560003373ffffffffffffffffffffffffffffffffffffffff1673ffffffffffffffffffffffffffffffffffffffff168152602001908152602001600020600101600060038110151561128457fe5b602091828204019190069054906101000a900460ff1660ff16148061131357508660ff16600560003373ffffffffffffffffffffffffffffffffffffffff1673ffffffffffffffffffffffffffffffffffffffff16815260200190815260200160002060010160016003811015156112f857fe5b602091828204019190069054906101000a900460ff1660ff16145b8061138857508660ff16600560003373ffffffffffffffffffffffffffffffffffffffff1673ffffffffffffffffffffffffffffffffffffffff168152602001908152602001600020600101600260038110151561136d57fe5b602091828204019190069054906101000a900460ff1660ff16145b1515611422576040517f08c379a00000000000000000000000000000000000000000000000000000000081526004018080602001828103825260238152602001807f496e64657820646f6573206e6f74206d61746368206f7261636c65207265717581526020017f657374000000000000000000000000000000000000000000000000000000000081525060400191505060405180910390fd5b8686868686604051602001808660ff1660ff167f01000000000000000000000000000000000000000000000000000000000000000281526001018573ffffffffffffffffffffffffffffffffffffffff1673ffffffffffffffffffffffffffffffffffffffff166c010000000000000000000000000281526014018484808284378201915050828152602001955050505050506040516020818303038152906040526040518082805190602001908083835b6020831015156114f957805182526020820191506020810190506020830392506114d4565b6001836020036101000a0380198251168184511680821785525050505050509050019150506040518091039020905060066000826000191660001916815260200190815260200160002060000160149054906101000a900460ff1615156115ee576040517f08c379a000000000000000000000000000000000000000000000000000000000815260040180806020018281038252602f8152602001807f466c69676874206f722074696d657374616d7020646f206e6f74206d6174636881526020017f206f7261636c652072657175657374000000000000000000000000000000000081525060400191505060405180910390fd5b60066000826000191660001916815260200190815260200160002060010160008360ff1660ff1681526020019081526020016000203390806001815401808255809150509060018203906000526020600020016000909192909190916101000a81548173ffffffffffffffffffffffffffffffffffffffff021916908373ffffffffffffffffffffffffffffffffffffffff160217905550507f43c853095c2752648493c88b4baac4d580d2594ffb00c6f1d4242d844514f7838686868686604051808673ffffffffffffffffffffffffffffffffffffffff1673ffffffffffffffffffffffffffffffffffffffff168152602001806020018481526020018360ff1660ff16815260200182810382528686828181526020019250808284378201915050965050505050505060405180910390a1600360066000836000191660001916815260200190815260200160002060010160008460ff1660ff1681526020019081526020016000208054905010151561183e577fe23f5229de535c091e3b7bec2665f5d698192d3b31393066e8987b7a05076b6c8686868686604051808673ffffffffffffffffffffffffffffffffffffffff1673ffffffffffffffffffffffffffffffffffffffff168152602001806020018481526020018360ff1660ff16815260200182810382528686828181526020019250808284378201915050965050505050505060405180910390a161183d8686868080601f016020809104026020016040519081016040528093929190818152602001838380828437820191505050505050858561212b565b5b50505050505050565b678ac7230489e80000600160003373ffffffffffffffffffffffffffffffffffffffff1673ffffffffffffffffffffffffffffffffffffffff1681526020019081526020016000205410151515611906576040517f08c379a000000000000000000000000000000000000000000000000000000000815260040180806020018281038252600f8152602001807f4e6f7420656e6f7567682066756e64000000000000000000000000000000000081525060200191505060405180910390fd5b600460009054906101000a900473ffffffffffffffffffffffffffffffffffffffff1673ffffffffffffffffffffffffffffffffffffffff16631688972d83836040518363ffffffff167c01000000000000000000000000000000000000000000000000000000000281526004018080602001828103825284848281815260200192508082843782019150509350505050600060405180830381600087803b1580156119b157600080fd5b505af11580156119c5573d6000803e3d6000fd5b50505050600460009054906101000a900473ffffffffffffffffffffffffffffffffffffffff1673ffffffffffffffffffffffffffffffffffffffff16633fcf1cf483836040518363ffffffff167c01000000000000000000000000000000000000000000000000000000000281526004018080602001828103825284848281815260200192508082843782019150509350505050600060405180830381600087803b158015611a7457600080fd5b505af1158015611a88573d6000803e3d6000fd5b505050505050565b6000600460009054906101000a900473ffffffffffffffffffffffffffffffffffffffff1673ffffffffffffffffffffffffffffffffffffffff1663cd905dff6040518163ffffffff167c0100000000000000000000000000000000000000000000000000000000028152600401602060405180830381600087803b158015611b1857600080fd5b505af1158015611b2c573d6000803e3d6000fd5b505050506040513d6020811015611b4257600080fd5b8101908080519060200190929190505050905090565b678ac7230489e80000600160003373ffffffffffffffffffffffffffffffffffffffff1673ffffffffffffffffffffffffffffffffffffffff1681526020019081526020016000205410151515611c17576040517f08c379a000000000000000000000000000000000000000000000000000000000815260040180806020018281038252600f8152602001807f4e6f7420656e6f7567682066756e64000000000000000000000000000000000081525060200191505060405180910390fd5b600460009054906101000a900473ffffffffffffffffffffffffffffffffffffffff1673ffffffffffffffffffffffffffffffffffffffff1663775afd62848484336040518563ffffffff167c010000000000000000000000000000000000000000000000000000000002815260040180858152602001806020018373ffffffffffffffffffffffffffffffffffffffff1673ffffffffffffffffffffffffffffffffffffffff1681526020018281038252858582818152602001925080828437820191505095505050505050600060405180830381600087803b158015611cfe57600080fd5b505af1158015611d12573d6000803e3d6000fd5b50505050505050565b600080611d2733612131565b91508186868686604051602001808660ff1660ff167f01000000000000000000000000000000000000000000000000000000000000000281526001018573ffffffffffffffffffffffffffffffffffffffff1673ffffffffffffffffffffffffffffffffffffffff166c010000000000000000000000000281526014018484808284378201915050828152602001955050505050506040516020818303038152906040526040518082805190602001908083835b602083101515611e005780518252602082019150602081019050602083039250611ddb565b6001836020036101000a0380198251168184511680821785525050505050509050019150506040518091039020905060408051908101604052803373ffffffffffffffffffffffffffffffffffffffff1681526020016001151581525060066000836000191660001916815260200190815260200160002060008201518160000160006101000a81548173ffffffffffffffffffffffffffffffffffffffff021916908373ffffffffffffffffffffffffffffffffffffffff16021790555060208201518160000160146101000a81548160ff0219169083151502179055509050507f3ed01f2c3fc24c6b329d931e35b03e390d23497d22b3f90e15b600343e93df118287878787604051808660ff1660ff1681526020018573ffffffffffffffffffffffffffffffffffffffff1673ffffffffffffffffffffffffffffffffffffffff1681526020018060200183815260200182810382528585828181526020019250808284378201915050965050505050505060405180910390a1505050505050565b611f8d612293565b611f95612293565b611f9e83612131565b816000600381101515611fad57fe5b602002019060ff16908160ff1681525050806000600381101515611fcd57fe5b6020020151816001600381101515611fe157fe5b602002019060ff16908160ff16815250505b80600060038110151561200257fe5b602002015160ff1681600160038110151561201957fe5b602002015160ff1614156120555761203083612131565b81600160038110151561203f57fe5b602002019060ff16908160ff1681525050611ff3565b80600160038110151561206457fe5b602002015181600260038110151561207857fe5b602002019060ff16908160ff16815250505b80600060038110151561209957fe5b602002015160ff168160026003811015156120b057fe5b602002015160ff1614806120ef57508060016003811015156120ce57fe5b602002015160ff168160026003811015156120e557fe5b602002015160ff16145b15612122576120fd83612131565b81600260038110151561210c57fe5b602002019060ff16908160ff168152505061208a565b80915050919050565b50505050565b6000806000600a91508160ff166004601481819054906101000a900460ff168092919060010191906101000a81548160ff021916908360ff16021790555060ff16430340856040516020018083600019166000191681526020018273ffffffffffffffffffffffffffffffffffffffff1673ffffffffffffffffffffffffffffffffffffffff166c01000000000000000000000000028152601401925050506040516020818303038152906040526040518082805190602001908083835b60208310151561221457805182526020820191506020810190506020830392506121ef565b6001836020036101000a03801982511681845116808217855250505050505090500191505060405180910390206001900481151561224e57fe5b06905060fa600460149054906101000a900460ff1660ff161115612289576000600460146101000a81548160ff021916908360ff1602179055505b8092505050919050565b606060405190810160405280600390602082028038833980820191505090505090565b826003601f0160209004810192821561233f5791602002820160005b8382111561231057835183826101000a81548160ff021916908360ff16021790555092602001926001016020816000010492830192600103026122d2565b801561233d5782816101000a81549060ff0219169055600101602081600001049283019260010302612310565b505b50905061234c9190612350565b5090565b61237d91905b8082111561237957600081816101000a81549060ff021916905550600101612356565b5090565b905600a165627a7a72305820cb0b6e5354263543fd4eae5b292e09014a123f1e8a9acb0cdc6f85597751637c0029",
  "source": "pragma solidity ^0.4.25;\r\n\r\n// It's important to avoid vulnerabilities due to numeric overflow bugs\r\n// OpenZeppelin's SafeMath library, when used correctly, protects agains such bugs\r\n// More info: https://www.nccgroup.trust/us/about-us/newsroom-and-events/blog/2018/november/smart-contract-insecurity-bad-arithmetic/\r\nimport \"./FlightSuretyData.sol\";\r\n\r\n/************************************************** */\r\n/* FlightSurety Smart Contract                      */\r\n/************************************************** */\r\ncontract FlightSuretyApp {\r\n\r\n\r\n    /********************************************************************************************/\r\n    /*                                       DATA VARIABLES                                     */\r\n    /********************************************************************************************/\r\n\r\n    // Flight status codees\r\n    mapping(address=>uint256) public registratingAirlinesVoteCount;\r\n    mapping(address=>uint256) public registratedAirlinesEther;\r\n    mapping(address=>mapping(address=>bool)) public registratingAirlinesVoteAddress;\r\n    address private contractOwner;          // Account used to deploy contract\r\n    FlightSuretyData private flightSuretyData;\r\n\r\n\r\n \r\n    /********************************************************************************************/\r\n    /*                                       FUNCTION MODIFIERS                                 */\r\n    /********************************************************************************************/\r\n\r\n    // Modifiers help avoid duplication of code. They are typically used to validate something\r\n    // before a function is allowed to be executed.\r\n\r\n    /**\r\n    * @dev Modifier that requires the \"operational\" boolean variable to be \"true\"\r\n    *      This is used on all state changing functions to pause the contract in \r\n    *      the event there is an issue that needs to be fixed\r\n    */\r\n    modifier requireIsOperational() \r\n    {\r\n         // Modify to call data contract's status\r\n        require(flightSuretyData.isOperational() ==true, \"Contract is currently not operational\");  \r\n        _;  // All modifiers require an \"_\" which indicates where the function body will be added\r\n    }\r\n\r\n    /**\r\n    * @dev Modifier that requires the \"ContractOwner\" account to be the function caller\r\n    */\r\n    modifier requireContractOwner()\r\n    {\r\n        require(msg.sender == contractOwner, \"Caller is not contract owner\");\r\n        _;\r\n    }\r\n    \r\n    /**\r\n    * @dev Modifier that requires the \"airlineAddress\" account to be the function caller\r\n    */\r\n    modifier requireAirline()\r\n    {\r\n        require(flightSuretyData.isAirline(msg.sender), \"Caller is not airline\");   \r\n        _;\r\n    }\r\n    \r\n     /**\r\n    * @dev Modifier that requires the first account should be payable 10 ether\r\n    */\r\n    modifier require10Ether()\r\n    {\r\n        require(registratedAirlinesEther[msg.sender]>=10 ether, \"Not enough fund\");      \r\n        _;\r\n    }\r\n    \r\n    \r\n   \r\n    /********************************************************************************************/\r\n    /*                                       CONSTRUCTOR                                        */\r\n    /********************************************************************************************/\r\n\r\n    /**\r\n    * @dev Contract constructor\r\n    *\r\n    */\r\n    constructor\r\n                                (\r\n                                    address dataAddress,\r\n                                    address airlineAddress\r\n                                ) \r\n                                public \r\n    {\r\n        flightSuretyData = FlightSuretyData(dataAddress);\r\n        flightSuretyData.registerAirline(airlineAddress);\r\n        contractOwner = msg.sender;\r\n    }\r\n\r\n    /********************************************************************************************/\r\n    /*                                       UTILITY FUNCTIONS                                  */\r\n    /********************************************************************************************/\r\n\r\n    function isOperational() \r\n                            public \r\n\r\n                            returns(bool) \r\n    {\r\n        return flightSuretyData.isOperational();  // Modify to call data contract's status\r\n    }\r\n\r\n    /********************************************************************************************/\r\n    /*                                     SMART CONTRACT FUNCTIONS                             */\r\n    /********************************************************************************************/\r\n\r\n    /**\r\n    * @dev client buy insurance\r\n    *\r\n    */ \r\n    function buyInsurance\r\n                    (    \r\n                        string flight\r\n                    )\r\n                    external\r\n                    payable\r\n    {   \r\n        flightSuretyData.buy.value(msg.value)(flight,  msg.sender);\r\n    }\r\n\r\n    /**\r\n    * @dev repay client\r\n    *\r\n    */ \r\n    function payClient\r\n                    (    \r\n                        string flight\r\n                    )\r\n                    external\r\n    {   \r\n        flightSuretyData.pay(flight);\r\n    }\r\n  \r\n\r\n    /**\r\n    * @dev airline add money \r\n    *\r\n    */ \r\n    function addEther\r\n                    (    \r\n                    \r\n                    )\r\n                    external\r\n                    payable\r\n    {   \r\n        flightSuretyData.fund.value(msg.value)();\r\n        registratedAirlinesEther[msg.sender] += msg.value;\r\n    }\r\n  \r\n   /**\r\n    * @dev Add an airline to the registration queue\r\n    *\r\n    */   \r\n    function registerAirline\r\n                            (   \r\n                                address newAirline\r\n                            )\r\n                            external\r\n                            requireAirline\r\n                            returns(bool success, uint256 votes)\r\n    {\r\n        success = true;\r\n        require(registratingAirlinesVoteAddress[newAirline][msg.sender]==false,\"airline did vote\");\r\n        if(flightSuretyData.airlineCount()<4){\r\n            flightSuretyData.registerAirline(newAirline);  \r\n            registratingAirlinesVoteCount[newAirline]+=1;\r\n        }else{\r\n            if(registratingAirlinesVoteCount[newAirline]*2 >= flightSuretyData.airlineCount()){\r\n            flightSuretyData.registerAirline(newAirline);   \r\n        }else{\r\n            registratingAirlinesVoteCount[newAirline]+=1;\r\n            success = false;\r\n        }   \r\n        }\r\n        registratingAirlinesVoteAddress[newAirline][msg.sender]=true;\r\n        return (success, registratingAirlinesVoteCount[newAirline]);\r\n    }\r\n\r\n    /**\r\n    * @dev Register a future flight for insuring.\r\n    *\r\n    */  \r\n    function removeFlight\r\n                                (\r\n                                    string flight\r\n                                )\r\n                                external\r\n                                require10Ether\r\n    {   \r\n        flightSuretyData.unsetFlight(flight);\r\n        flightSuretyData.creditInsurees(flight);\r\n    }\r\n\r\n\r\n   /**\r\n    * @dev Register a future flight for insuring.\r\n    *\r\n    */  \r\n    function registerFlight\r\n                                (\r\n                                    uint256 updatedTimestamp,\r\n                                    string flight\r\n                                )\r\n                                external\r\n                                require10Ether\r\n    {   \r\n        flightSuretyData.setFlight(\r\n                                    updatedTimestamp,\r\n                                    flight,\r\n                                    msg.sender\r\n                                    );\r\n    }\r\n    \r\n   /**\r\n    * @dev Called after oracle has updated flight status\r\n    *\r\n    */  \r\n    function processFlightStatus\r\n                                (\r\n                                    address airline,\r\n                                    string memory flight,\r\n                                    uint256 timestamp,\r\n                                    uint8 statusCode\r\n                                )\r\n                                internal\r\n    {\r\n    }\r\n\r\n\r\n    // Generate a request for oracles to fetch flight information\r\n    function fetchFlightStatus\r\n                        (\r\n                            address airline,\r\n                            string flight,\r\n                            uint256 timestamp                            \r\n                        )\r\n                        external\r\n    {\r\n        uint8 index = getRandomIndex(msg.sender);\r\n\r\n        // Generate a unique key for storing the request\r\n        bytes32 key = keccak256(abi.encodePacked(index, airline, flight, timestamp));\r\n        oracleResponses[key] = ResponseInfo({\r\n                                                requester: msg.sender,\r\n                                                isOpen: true\r\n                                            });\r\n\r\n        emit OracleRequest(index, airline, flight, timestamp);\r\n    } \r\n\r\n\r\n// region ORACLE MANAGEMENT\r\n\r\n    // Incremented to add pseudo-randomness at various points\r\n    uint8 private nonce = 0;    \r\n\r\n    // Fee to be paid when registering oracle\r\n    uint256 public constant REGISTRATION_FEE = 1 ether;\r\n\r\n    // Number of oracles that must respond for valid status\r\n    uint256 private constant MIN_RESPONSES = 3;\r\n\r\n\r\n    struct Oracle {\r\n        bool isRegistered;\r\n        uint8[3] indexes;        \r\n    }\r\n\r\n    // Track all registered oracles\r\n    mapping(address => Oracle) private oracles;\r\n\r\n    // Model for responses from oracles\r\n    struct ResponseInfo {\r\n        address requester;                              // Account that requested status\r\n        bool isOpen;                                    // If open, oracle responses are accepted\r\n        mapping(uint8 => address[]) responses;          // Mapping key is the status code reported\r\n                                                        // This lets us group responses and identify\r\n                                                        // the response that majority of the oracles\r\n    }\r\n\r\n    // Track all oracle responses\r\n    // Key = hash(index, flight, timestamp)\r\n    mapping(bytes32 => ResponseInfo) private oracleResponses;\r\n\r\n    // Event fired each time an oracle submits a response\r\n    event FlightStatusInfo(address airline, string flight, uint256 timestamp, uint8 status);\r\n\r\n    event OracleReport(address airline, string flight, uint256 timestamp, uint8 status);\r\n\r\n    // Event fired when flight status request is submitted\r\n    // Oracles track this and if they have a matching index\r\n    // they fetch data and submit a response\r\n    event OracleRequest(uint8 index, address airline, string flight, uint256 timestamp);\r\n\r\n\r\n    // Register an oracle with the contract\r\n    function registerOracle\r\n                            (\r\n                            )\r\n                            external\r\n                            payable\r\n    {\r\n        // Require registration fee\r\n        require(msg.value >= REGISTRATION_FEE, \"Registration fee is required\");\r\n\r\n        uint8[3] memory indexes = generateIndexes(msg.sender);\r\n\r\n        oracles[msg.sender] = Oracle({\r\n                                        isRegistered: true,\r\n                                        indexes: indexes\r\n                                    });\r\n    }\r\n\r\n    function getMyIndexes\r\n                            (\r\n                            )\r\n                            view\r\n                            external\r\n                            returns(uint8[3])\r\n    {\r\n        require(oracles[msg.sender].isRegistered, \"Not registered as an oracle\");\r\n\r\n        return oracles[msg.sender].indexes;\r\n    }\r\n\r\n\r\n\r\n\r\n    // Called by oracle when a response is available to an outstanding request\r\n    // For the response to be accepted, there must be a pending request that is open\r\n    // and matches one of the three Indexes randomly assigned to the oracle at the\r\n    // time of registration (i.e. uninvited oracles are not welcome)\r\n    function submitOracleResponse\r\n                        (\r\n                            uint8 index,\r\n                            address airline,\r\n                            string flight,\r\n                            uint256 timestamp,\r\n                            uint8 statusCode\r\n                        )\r\n                        external\r\n    {\r\n        require((oracles[msg.sender].indexes[0] == index) || (oracles[msg.sender].indexes[1] == index) || (oracles[msg.sender].indexes[2] == index), \"Index does not match oracle request\");\r\n\r\n\r\n        bytes32 key = keccak256(abi.encodePacked(index, airline, flight, timestamp)); \r\n        require(oracleResponses[key].isOpen, \"Flight or timestamp do not match oracle request\");\r\n\r\n        oracleResponses[key].responses[statusCode].push(msg.sender);\r\n\r\n        // Information isn't considered verified until at least MIN_RESPONSES\r\n        // oracles respond with the *** same *** information\r\n        emit OracleReport(airline, flight, timestamp, statusCode);\r\n        if (oracleResponses[key].responses[statusCode].length >= MIN_RESPONSES) {\r\n\r\n            emit FlightStatusInfo(airline, flight, timestamp, statusCode);\r\n\r\n            // Handle flight status as appropriate\r\n            processFlightStatus(airline, flight, timestamp, statusCode);\r\n        }\r\n    }\r\n\r\n\r\n    function getFlightKey\r\n                        (\r\n                            address airline,\r\n                            string flight,\r\n                            uint256 timestamp\r\n                        )\r\n                        pure\r\n                        internal\r\n                        returns(bytes32) \r\n    {\r\n        return keccak256(abi.encodePacked(airline, flight, timestamp));\r\n    }\r\n\r\n    // Returns array of three non-duplicating integers from 0-9\r\n    function generateIndexes\r\n                            (                       \r\n                                address account         \r\n                            )\r\n                            internal\r\n                            returns(uint8[3])\r\n    {\r\n        uint8[3] memory indexes;\r\n        indexes[0] = getRandomIndex(account);\r\n        \r\n        indexes[1] = indexes[0];\r\n        while(indexes[1] == indexes[0]) {\r\n            indexes[1] = getRandomIndex(account);\r\n        }\r\n\r\n        indexes[2] = indexes[1];\r\n        while((indexes[2] == indexes[0]) || (indexes[2] == indexes[1])) {\r\n            indexes[2] = getRandomIndex(account);\r\n        }\r\n\r\n        return indexes;\r\n    }\r\n\r\n    // Returns array of three non-duplicating integers from 0-9\r\n    function getRandomIndex\r\n                            (\r\n                                address account\r\n                            )\r\n                            internal\r\n                            returns (uint8)\r\n    {\r\n        uint8 maxValue = 10;\r\n\r\n        // Pseudo random number...the incrementing nonce adds variation\r\n        uint8 random = uint8(uint256(keccak256(abi.encodePacked(blockhash(block.number - nonce++), account))) % maxValue);\r\n\r\n        if (nonce > 250) {\r\n            nonce = 0;  // Can only fetch blockhashes for last 256 blocks so we adapt\r\n        }\r\n\r\n        return random;\r\n    }\r\n\r\n// endregion\r\n\r\n}   \r\n",
  "sourcePath": "C:/Users/yiulaps/Desktop/workspace/FlightSurety/contracts/FlightSuretyApp.sol",
  "compiler": {
    "name": "solc",
    "version": "0.4.26+commit.4563c3fc.Emscripten.clang"
  },
  "schemaVersion": "3.3.4",
  "updatedAt": "2021-04-22T08:43:09.762Z",
  "networkType": "ethereum",
  "devdoc": {
    "methods": {
      "addEther()": {
        "details": "airline add money \r     "
      },
      "buyInsurance(string)": {
        "details": "client buy insurance\r     "
      },
      "payClient(string)": {
        "details": "repay client\r     "
      },
      "registerAirline(address)": {
        "details": "Add an airline to the registration queue\r     "
      },
      "registerFlight(uint256,string)": {
        "details": "Register a future flight for insuring.\r     "
      },
      "removeFlight(string)": {
        "details": "Register a future flight for insuring.\r     "
      }
    }
  },
  "userdoc": {
    "methods": {
      "isOperational()": {
        "notice": "*****************************************************************************************"
      }
    }
  }
}