{
  "contractName": "FlightSuretyApp",
  "abi": [
    {
      "constant": true,
      "inputs": [],
      "name": "flightCount",
      "outputs": [
        {
          "name": "",
          "type": "uint8"
        }
      ],
      "payable": false,
      "stateMutability": "view",
      "type": "function"
    },
    {
      "constant": true,
      "inputs": [
        {
          "name": "",
          "type": "address"
        }
      ],
      "name": "registratingAirlinesVoteCount",
      "outputs": [
        {
          "name": "",
          "type": "uint256"
        }
      ],
      "payable": false,
      "stateMutability": "view",
      "type": "function"
    },
    {
      "constant": true,
      "inputs": [],
      "name": "REGISTRATION_FEE",
      "outputs": [
        {
          "name": "",
          "type": "uint256"
        }
      ],
      "payable": false,
      "stateMutability": "view",
      "type": "function"
    },
    {
      "constant": true,
      "inputs": [
        {
          "name": "",
          "type": "address"
        }
      ],
      "name": "registratedAirlinesEther",
      "outputs": [
        {
          "name": "",
          "type": "uint256"
        }
      ],
      "payable": false,
      "stateMutability": "view",
      "type": "function"
    },
    {
      "constant": true,
      "inputs": [
        {
          "name": "",
          "type": "uint256"
        }
      ],
      "name": "flightNames",
      "outputs": [
        {
          "name": "",
          "type": "string"
        }
      ],
      "payable": false,
      "stateMutability": "view",
      "type": "function"
    },
    {
      "constant": true,
      "inputs": [
        {
          "name": "",
          "type": "address"
        },
        {
          "name": "",
          "type": "address"
        }
      ],
      "name": "registratingAirlinesVoteAddress",
      "outputs": [
        {
          "name": "",
          "type": "bool"
        }
      ],
      "payable": false,
      "stateMutability": "view",
      "type": "function"
    },
    {
      "inputs": [
        {
          "name": "dataAddress",
          "type": "address"
        },
        {
          "name": "airlineAddress",
          "type": "address"
        }
      ],
      "payable": true,
      "stateMutability": "payable",
      "type": "constructor"
    },
    {
      "anonymous": false,
      "inputs": [
        {
          "indexed": false,
          "name": "airline",
          "type": "address"
        },
        {
          "indexed": false,
          "name": "flight",
          "type": "string"
        },
        {
          "indexed": false,
          "name": "timestamp",
          "type": "uint256"
        },
        {
          "indexed": false,
          "name": "status",
          "type": "uint8"
        }
      ],
      "name": "FlightStatusInfo",
      "type": "event"
    },
    {
      "anonymous": false,
      "inputs": [
        {
          "indexed": false,
          "name": "airline",
          "type": "address"
        },
        {
          "indexed": false,
          "name": "flight",
          "type": "string"
        },
        {
          "indexed": false,
          "name": "timestamp",
          "type": "uint256"
        },
        {
          "indexed": false,
          "name": "status",
          "type": "uint8"
        }
      ],
      "name": "OracleReport",
      "type": "event"
    },
    {
      "anonymous": false,
      "inputs": [
        {
          "indexed": false,
          "name": "index",
          "type": "uint8"
        },
        {
          "indexed": false,
          "name": "airline",
          "type": "address"
        },
        {
          "indexed": false,
          "name": "flight",
          "type": "string"
        },
        {
          "indexed": false,
          "name": "timestamp",
          "type": "uint256"
        }
      ],
      "name": "OracleRequest",
      "type": "event"
    },
    {
      "constant": false,
      "inputs": [
        {
          "name": "flight",
          "type": "string"
        }
      ],
      "name": "getFlight",
      "outputs": [
        {
          "name": "",
          "type": "bool"
        },
        {
          "name": "",
          "type": "uint8"
        },
        {
          "name": "",
          "type": "uint256"
        },
        {
          "name": "",
          "type": "address"
        }
      ],
      "payable": false,
      "stateMutability": "nonpayable",
      "type": "function"
    },
    {
      "constant": false,
      "inputs": [],
      "name": "isOperational",
      "outputs": [
        {
          "name": "",
          "type": "bool"
        }
      ],
      "payable": false,
      "stateMutability": "nonpayable",
      "type": "function"
    },
    {
      "constant": false,
      "inputs": [],
      "name": "addEther",
      "outputs": [],
      "payable": true,
      "stateMutability": "payable",
      "type": "function"
    },
    {
      "constant": false,
      "inputs": [
        {
          "name": "newAirline",
          "type": "address"
        }
      ],
      "name": "registerAirline",
      "outputs": [
        {
          "name": "success",
          "type": "bool"
        },
        {
          "name": "votes",
          "type": "uint256"
        }
      ],
      "payable": false,
      "stateMutability": "nonpayable",
      "type": "function"
    },
    {
      "constant": false,
      "inputs": [
        {
          "name": "flight",
          "type": "string"
        }
      ],
      "name": "removeFlight",
      "outputs": [],
      "payable": false,
      "stateMutability": "nonpayable",
      "type": "function"
    },
    {
      "constant": false,
      "inputs": [
        {
          "name": "updatedTimestamp",
          "type": "uint256"
        },
        {
          "name": "flight",
          "type": "string"
        }
      ],
      "name": "registerFlight",
      "outputs": [],
      "payable": false,
      "stateMutability": "nonpayable",
      "type": "function"
    },
    {
      "constant": false,
      "inputs": [
        {
          "name": "airline",
          "type": "address"
        },
        {
          "name": "flight",
          "type": "string"
        },
        {
          "name": "timestamp",
          "type": "uint256"
        }
      ],
      "name": "fetchFlightStatus",
      "outputs": [],
      "payable": false,
      "stateMutability": "nonpayable",
      "type": "function"
    },
    {
      "constant": false,
      "inputs": [],
      "name": "registerOracle",
      "outputs": [],
      "payable": true,
      "stateMutability": "payable",
      "type": "function"
    },
    {
      "constant": true,
      "inputs": [],
      "name": "getMyIndexes",
      "outputs": [
        {
          "name": "",
          "type": "uint8[3]"
        }
      ],
      "payable": false,
      "stateMutability": "view",
      "type": "function"
    },
    {
      "constant": false,
      "inputs": [
        {
          "name": "index",
          "type": "uint8"
        },
        {
          "name": "airline",
          "type": "address"
        },
        {
          "name": "flight",
          "type": "string"
        },
        {
          "name": "timestamp",
          "type": "uint256"
        },
        {
          "name": "statusCode",
          "type": "uint8"
        }
      ],
      "name": "submitOracleResponse",
      "outputs": [],
      "payable": false,
      "stateMutability": "nonpayable",
      "type": "function"
    }
  ],
  "bytecode": "0x60806040526000600760006101000a81548160ff021916908360ff1602179055506000600760016101000a81548160ff021916908360ff160217905550604051604080612860833981018060405281019080805190602001909291908051906020019092919050505081600460006101000a81548173ffffffffffffffffffffffffffffffffffffffff021916908373ffffffffffffffffffffffffffffffffffffffff160217905550600460009054906101000a900473ffffffffffffffffffffffffffffffffffffffff1673ffffffffffffffffffffffffffffffffffffffff1663bdfd9877826040518263ffffffff167c0100000000000000000000000000000000000000000000000000000000028152600401808273ffffffffffffffffffffffffffffffffffffffff1673ffffffffffffffffffffffffffffffffffffffff168152602001915050600060405180830381600087803b15801561016657600080fd5b505af115801561017a573d6000803e3d6000fd5b5050505033600360006101000a81548173ffffffffffffffffffffffffffffffffffffffff021916908373ffffffffffffffffffffffffffffffffffffffff1602179055505050612690806101d06000396000f3006080604052600436106100e6576000357c0100000000000000000000000000000000000000000000000000000000900463ffffffff1680631bc09567146100eb578063339d25901461011c5780633b9f9fb0146101265780635f1cc0e61461017d57806364b4f751146101d05780638894dd2b146101fb578063a67dc60d14610205578063b2bf7ad01461025c578063b3ecbc7914610302578063bdfd98771461037d578063c10f2700146103df578063c389ba001461045e578063cd905dff14610499578063ce059596146104c8578063f057375214610590578063f83f11c0146105d5575b600080fd5b3480156100f757600080fd5b5061010061063a565b604051808260ff1660ff16815260200191505060405180910390f35b61012461064d565b005b34801561013257600080fd5b50610167600480360381019080803573ffffffffffffffffffffffffffffffffffffffff169060200190929190505050610775565b6040518082815260200191505060405180910390f35b34801561018957600080fd5b5061019261078d565b6040518082600360200280838360005b838110156101bd5780820151818401526020810190506101a2565b5050505090500191505060405180910390f35b3480156101dc57600080fd5b506101e5610902565b6040518082815260200191505060405180910390f35b61020361090e565b005b34801561021157600080fd5b50610246600480360381019080803573ffffffffffffffffffffffffffffffffffffffff1690602001909291905050506109fc565b6040518082815260200191505060405180910390f35b34801561026857600080fd5b5061028760048036038101908080359060200190929190505050610a14565b6040518080602001828103825283818151815260200191508051906020019080838360005b838110156102c75780820151818401526020810190506102ac565b50505050905090810190601f1680156102f45780820380516001836020036101000a031916815260200191505b509250505060405180910390f35b34801561030e57600080fd5b50610363600480360381019080803573ffffffffffffffffffffffffffffffffffffffff169060200190929190803573ffffffffffffffffffffffffffffffffffffffff169060200190929190505050610acf565b604051808215151515815260200191505060405180910390f35b34801561038957600080fd5b506103be600480360381019080803573ffffffffffffffffffffffffffffffffffffffff169060200190929190505050610afe565b60405180831515151581526020018281526020019250505060405180910390f35b3480156103eb57600080fd5b5061045c600480360381019080803560ff169060200190929190803573ffffffffffffffffffffffffffffffffffffffff16906020019092919080359060200190820180359060200191909192939192939080359060200190929190803560ff16906020019092919050505061127a565b005b34801561046a57600080fd5b50610497600480360381019080803590602001908201803590602001919091929391929390505050611893565b005b3480156104a557600080fd5b506104ae611a5a565b604051808215151515815260200191505060405180910390f35b3480156104d457600080fd5b5061052f600480360381019080803590602001908201803590602001908080601f0160208091040260200160405190810160405280939291908181526020018383808284378201915050505050509192919290505050611b22565b60405180851515151581526020018460ff1660ff1681526020018381526020018273ffffffffffffffffffffffffffffffffffffffff1673ffffffffffffffffffffffffffffffffffffffff16815260200194505050505060405180910390f35b34801561059c57600080fd5b506105d360048036038101908080359060200190929190803590602001908201803590602001919091929391929390505050611d2d565b005b3480156105e157600080fd5b50610638600480360381019080803573ffffffffffffffffffffffffffffffffffffffff16906020019092919080359060200190820180359060200191909192939192939080359060200190929190505050611f5a565b005b600760009054906101000a900460ff1681565b6106556124d2565b670de0b6b3a764000034101515156106d5576040517f08c379a000000000000000000000000000000000000000000000000000000000815260040180806020018281038252601c8152602001807f526567697374726174696f6e206665652069732072657175697265640000000081525060200191505060405180910390fd5b6106de336121c4565b9050604080519081016040528060011515815260200182815250600860003373ffffffffffffffffffffffffffffffffffffffff1673ffffffffffffffffffffffffffffffffffffffff16815260200190815260200160002060008201518160000160006101000a81548160ff02191690831515021790555060208201518160010190600361076e9291906124f5565b5090505050565b60006020528060005260406000206000915090505481565b6107956124d2565b600860003373ffffffffffffffffffffffffffffffffffffffff1673ffffffffffffffffffffffffffffffffffffffff16815260200190815260200160002060000160009054906101000a900460ff161515610859576040517f08c379a000000000000000000000000000000000000000000000000000000000815260040180806020018281038252601b8152602001807f4e6f74207265676973746572656420617320616e206f7261636c65000000000081525060200191505060405180910390fd5b600860003373ffffffffffffffffffffffffffffffffffffffff1673ffffffffffffffffffffffffffffffffffffffff1681526020019081526020016000206001016003806020026040519081016040528092919082600380156108f8576020028201916000905b82829054906101000a900460ff1660ff16815260200190600101906020826000010492830192600103820291508084116108c15790505b5050505050905090565b670de0b6b3a764000081565b600460009054906101000a900473ffffffffffffffffffffffffffffffffffffffff1673ffffffffffffffffffffffffffffffffffffffff1663b60d4288346040518263ffffffff167c01000000000000000000000000000000000000000000000000000000000281526004016000604051808303818588803b15801561099457600080fd5b505af11580156109a8573d6000803e3d6000fd5b505050505034600160003373ffffffffffffffffffffffffffffffffffffffff1673ffffffffffffffffffffffffffffffffffffffff16815260200190815260200160002060008282540192505081905550565b60016020528060005260406000206000915090505481565b600681815481101515610a2357fe5b906000526020600020016000915090508054600181600116156101000203166002900480601f016020809104026020016040519081016040528092919081815260200182805460018160011615610100020316600290048015610ac75780601f10610a9c57610100808354040283529160200191610ac7565b820191906000526020600020905b815481529060010190602001808311610aaa57829003601f168201915b505050505081565b60026020528160005260406000206020528060005260406000206000915091509054906101000a900460ff1681565b600080600460009054906101000a900473ffffffffffffffffffffffffffffffffffffffff1673ffffffffffffffffffffffffffffffffffffffff16630e248a11336040518263ffffffff167c0100000000000000000000000000000000000000000000000000000000028152600401808273ffffffffffffffffffffffffffffffffffffffff1673ffffffffffffffffffffffffffffffffffffffff168152602001915050602060405180830381600087803b158015610bbe57600080fd5b505af1158015610bd2573d6000803e3d6000fd5b505050506040513d6020811015610be857600080fd5b81019080805190602001909291905050501515610c6d576040517f08c379a00000000000000000000000000000000000000000000000000000000081526004018080602001828103825260158152602001807f43616c6c6572206973206e6f74206169726c696e65000000000000000000000081525060200191505060405180910390fd5b6001915060001515600260008573ffffffffffffffffffffffffffffffffffffffff1673ffffffffffffffffffffffffffffffffffffffff16815260200190815260200160002060003373ffffffffffffffffffffffffffffffffffffffff1673ffffffffffffffffffffffffffffffffffffffff16815260200190815260200160002060009054906101000a900460ff161515141515610d76576040517f08c379a00000000000000000000000000000000000000000000000000000000081526004018080602001828103825260108152602001807f6169726c696e652064696420766f74650000000000000000000000000000000081525060200191505060405180910390fd5b60048060009054906101000a900473ffffffffffffffffffffffffffffffffffffffff1673ffffffffffffffffffffffffffffffffffffffff1663f55267746040518163ffffffff167c0100000000000000000000000000000000000000000000000000000000028152600401602060405180830381600087803b158015610dfd57600080fd5b505af1158015610e11573d6000803e3d6000fd5b505050506040513d6020811015610e2757600080fd5b81019080805190602001909291905050501015610f6557600460009054906101000a900473ffffffffffffffffffffffffffffffffffffffff1673ffffffffffffffffffffffffffffffffffffffff1663bdfd9877846040518263ffffffff167c0100000000000000000000000000000000000000000000000000000000028152600401808273ffffffffffffffffffffffffffffffffffffffff1673ffffffffffffffffffffffffffffffffffffffff168152602001915050600060405180830381600087803b158015610efb57600080fd5b505af1158015610f0f573d6000803e3d6000fd5b5050505060016000808573ffffffffffffffffffffffffffffffffffffffff1673ffffffffffffffffffffffffffffffffffffffff1681526020019081526020016000206000828254019250508190555061119c565b600460009054906101000a900473ffffffffffffffffffffffffffffffffffffffff1673ffffffffffffffffffffffffffffffffffffffff1663f55267746040518163ffffffff167c0100000000000000000000000000000000000000000000000000000000028152600401602060405180830381600087803b158015610feb57600080fd5b505af1158015610fff573d6000803e3d6000fd5b505050506040513d602081101561101557600080fd5b810190808051906020019092919050505060026000808673ffffffffffffffffffffffffffffffffffffffff1673ffffffffffffffffffffffffffffffffffffffff168152602001908152602001600020540210151561114957600460009054906101000a900473ffffffffffffffffffffffffffffffffffffffff1673ffffffffffffffffffffffffffffffffffffffff1663bdfd9877846040518263ffffffff167c0100000000000000000000000000000000000000000000000000000000028152600401808273ffffffffffffffffffffffffffffffffffffffff1673ffffffffffffffffffffffffffffffffffffffff168152602001915050600060405180830381600087803b15801561112c57600080fd5b505af1158015611140573d6000803e3d6000fd5b5050505061119b565b60016000808573ffffffffffffffffffffffffffffffffffffffff1673ffffffffffffffffffffffffffffffffffffffff16815260200190815260200160002060008282540192505081905550600091505b5b6001600260008573ffffffffffffffffffffffffffffffffffffffff1673ffffffffffffffffffffffffffffffffffffffff16815260200190815260200160002060003373ffffffffffffffffffffffffffffffffffffffff1673ffffffffffffffffffffffffffffffffffffffff16815260200190815260200160002060006101000a81548160ff021916908315150217905550816000808573ffffffffffffffffffffffffffffffffffffffff1673ffffffffffffffffffffffffffffffffffffffff1681526020019081526020016000205491509150915091565b60008660ff16600860003373ffffffffffffffffffffffffffffffffffffffff1673ffffffffffffffffffffffffffffffffffffffff16815260200190815260200160002060010160006003811015156112d057fe5b602091828204019190069054906101000a900460ff1660ff16148061135f57508660ff16600860003373ffffffffffffffffffffffffffffffffffffffff1673ffffffffffffffffffffffffffffffffffffffff168152602001908152602001600020600101600160038110151561134457fe5b602091828204019190069054906101000a900460ff1660ff16145b806113d457508660ff16600860003373ffffffffffffffffffffffffffffffffffffffff1673ffffffffffffffffffffffffffffffffffffffff16815260200190815260200160002060010160026003811015156113b957fe5b602091828204019190069054906101000a900460ff1660ff16145b151561146e576040517f08c379a00000000000000000000000000000000000000000000000000000000081526004018080602001828103825260238152602001807f496e64657820646f6573206e6f74206d61746368206f7261636c65207265717581526020017f657374000000000000000000000000000000000000000000000000000000000081525060400191505060405180910390fd5b8686868686604051602001808660ff1660ff167f01000000000000000000000000000000000000000000000000000000000000000281526001018573ffffffffffffffffffffffffffffffffffffffff1673ffffffffffffffffffffffffffffffffffffffff166c010000000000000000000000000281526014018484808284378201915050828152602001955050505050506040516020818303038152906040526040518082805190602001908083835b6020831015156115455780518252602082019150602081019050602083039250611520565b6001836020036101000a0380198251168184511680821785525050505050509050019150506040518091039020905060096000826000191660001916815260200190815260200160002060000160149054906101000a900460ff16151561163a576040517f08c379a000000000000000000000000000000000000000000000000000000000815260040180806020018281038252602f8152602001807f466c69676874206f722074696d657374616d7020646f206e6f74206d6174636881526020017f206f7261636c652072657175657374000000000000000000000000000000000081525060400191505060405180910390fd5b60096000826000191660001916815260200190815260200160002060010160008360ff1660ff1681526020019081526020016000203390806001815401808255809150509060018203906000526020600020016000909192909190916101000a81548173ffffffffffffffffffffffffffffffffffffffff021916908373ffffffffffffffffffffffffffffffffffffffff160217905550507f43c853095c2752648493c88b4baac4d580d2594ffb00c6f1d4242d844514f7838686868686604051808673ffffffffffffffffffffffffffffffffffffffff1673ffffffffffffffffffffffffffffffffffffffff168152602001806020018481526020018360ff1660ff16815260200182810382528686828181526020019250808284378201915050965050505050505060405180910390a1600360096000836000191660001916815260200190815260200160002060010160008460ff1660ff1681526020019081526020016000208054905010151561188a577fe23f5229de535c091e3b7bec2665f5d698192d3b31393066e8987b7a05076b6c8686868686604051808673ffffffffffffffffffffffffffffffffffffffff1673ffffffffffffffffffffffffffffffffffffffff168152602001806020018481526020018360ff1660ff16815260200182810382528686828181526020019250808284378201915050965050505050505060405180910390a16118898686868080601f016020809104026020016040519081016040528093929190818152602001838380828437820191505050505050858561236a565b5b50505050505050565b678ac7230489e80000600160003373ffffffffffffffffffffffffffffffffffffffff1673ffffffffffffffffffffffffffffffffffffffff1681526020019081526020016000205410151515611952576040517f08c379a000000000000000000000000000000000000000000000000000000000815260040180806020018281038252600f8152602001807f4e6f7420656e6f7567682066756e64000000000000000000000000000000000081525060200191505060405180910390fd5b60006005838360405180838380828437820191505092505050908152602001604051809103902060000160006101000a81548160ff021916908315150217905550600460009054906101000a900473ffffffffffffffffffffffffffffffffffffffff1673ffffffffffffffffffffffffffffffffffffffff16633fcf1cf483836040518363ffffffff167c01000000000000000000000000000000000000000000000000000000000281526004018080602001828103825284848281815260200192508082843782019150509350505050600060405180830381600087803b158015611a3e57600080fd5b505af1158015611a52573d6000803e3d6000fd5b505050505050565b6000600460009054906101000a900473ffffffffffffffffffffffffffffffffffffffff1673ffffffffffffffffffffffffffffffffffffffff1663cd905dff6040518163ffffffff167c0100000000000000000000000000000000000000000000000000000000028152600401602060405180830381600087803b158015611ae257600080fd5b505af1158015611af6573d6000803e3d6000fd5b505050506040513d6020811015611b0c57600080fd5b8101908080519060200190929190505050905090565b6000806000806005856040518082805190602001908083835b602083101515611b605780518252602082019150602081019050602083039250611b3b565b6001836020036101000a038019825116818451168082178552505050505050905001915050908152602001604051809103902060000160009054906101000a900460ff166005866040518082805190602001908083835b602083101515611bdc5780518252602082019150602081019050602083039250611bb7565b6001836020036101000a038019825116818451168082178552505050505050905001915050908152602001604051809103902060000160019054906101000a900460ff166005876040518082805190602001908083835b602083101515611c585780518252602082019150602081019050602083039250611c33565b6001836020036101000a0380198251168184511680821785525050505050509050019150509081526020016040518091039020600101546005886040518082805190602001908083835b602083101515611cc75780518252602082019150602081019050602083039250611ca2565b6001836020036101000a038019825116818451168082178552505050505050905001915050908152602001604051809103902060020160009054906101000a900473ffffffffffffffffffffffffffffffffffffffff1693509350935093509193509193565b678ac7230489e80000600160003373ffffffffffffffffffffffffffffffffffffffff1673ffffffffffffffffffffffffffffffffffffffff1681526020019081526020016000205410151515611dec576040517f08c379a000000000000000000000000000000000000000000000000000000000815260040180806020018281038252600f8152602001807f4e6f7420656e6f7567682066756e64000000000000000000000000000000000081525060200191505060405180910390fd5b608060405190810160405280600115158152602001600060ff1681526020018481526020013373ffffffffffffffffffffffffffffffffffffffff168152506005838360405180838380828437820191505092505050908152602001604051809103902060008201518160000160006101000a81548160ff02191690831515021790555060208201518160000160016101000a81548160ff021916908360ff1602179055506040820151816001015560608201518160020160006101000a81548173ffffffffffffffffffffffffffffffffffffffff021916908373ffffffffffffffffffffffffffffffffffffffff1602179055509050506006828290918060018154018082558091505090600182039060005260206000200160009091929390919293909192909192509190611f2592919061258f565b50506001600760008282829054906101000a900460ff160192506101000a81548160ff021916908360ff160217905550505050565b600080611f6633612370565b91508186868686604051602001808660ff1660ff167f01000000000000000000000000000000000000000000000000000000000000000281526001018573ffffffffffffffffffffffffffffffffffffffff1673ffffffffffffffffffffffffffffffffffffffff166c010000000000000000000000000281526014018484808284378201915050828152602001955050505050506040516020818303038152906040526040518082805190602001908083835b60208310151561203f578051825260208201915060208101905060208303925061201a565b6001836020036101000a0380198251168184511680821785525050505050509050019150506040518091039020905060408051908101604052803373ffffffffffffffffffffffffffffffffffffffff1681526020016001151581525060096000836000191660001916815260200190815260200160002060008201518160000160006101000a81548173ffffffffffffffffffffffffffffffffffffffff021916908373ffffffffffffffffffffffffffffffffffffffff16021790555060208201518160000160146101000a81548160ff0219169083151502179055509050507f3ed01f2c3fc24c6b329d931e35b03e390d23497d22b3f90e15b600343e93df118287878787604051808660ff1660ff1681526020018573ffffffffffffffffffffffffffffffffffffffff1673ffffffffffffffffffffffffffffffffffffffff1681526020018060200183815260200182810382528585828181526020019250808284378201915050965050505050505060405180910390a1505050505050565b6121cc6124d2565b6121d46124d2565b6121dd83612370565b8160006003811015156121ec57fe5b602002019060ff16908160ff168152505080600060038110151561220c57fe5b602002015181600160038110151561222057fe5b602002019060ff16908160ff16815250505b80600060038110151561224157fe5b602002015160ff1681600160038110151561225857fe5b602002015160ff1614156122945761226f83612370565b81600160038110151561227e57fe5b602002019060ff16908160ff1681525050612232565b8060016003811015156122a357fe5b60200201518160026003811015156122b757fe5b602002019060ff16908160ff16815250505b8060006003811015156122d857fe5b602002015160ff168160026003811015156122ef57fe5b602002015160ff16148061232e575080600160038110151561230d57fe5b602002015160ff1681600260038110151561232457fe5b602002015160ff16145b156123615761233c83612370565b81600260038110151561234b57fe5b602002019060ff16908160ff16815250506122c9565b80915050919050565b50505050565b6000806000600a91508160ff166007600181819054906101000a900460ff168092919060010191906101000a81548160ff021916908360ff16021790555060ff16430340856040516020018083600019166000191681526020018273ffffffffffffffffffffffffffffffffffffffff1673ffffffffffffffffffffffffffffffffffffffff166c01000000000000000000000000028152601401925050506040516020818303038152906040526040518082805190602001908083835b602083101515612453578051825260208201915060208101905060208303925061242e565b6001836020036101000a03801982511681845116808217855250505050505090500191505060405180910390206001900481151561248d57fe5b06905060fa600760019054906101000a900460ff1660ff1611156124c8576000600760016101000a81548160ff021916908360ff1602179055505b8092505050919050565b606060405190810160405280600390602082028038833980820191505090505090565b826003601f0160209004810192821561257e5791602002820160005b8382111561254f57835183826101000a81548160ff021916908360ff1602179055509260200192600101602081600001049283019260010302612511565b801561257c5782816101000a81549060ff021916905560010160208160000104928301926001030261254f565b505b50905061258b919061260f565b5090565b828054600181600116156101000203166002900490600052602060002090601f016020900481019282601f106125d057803560ff19168380011785556125fe565b828001600101855582156125fe579182015b828111156125fd5782358255916020019190600101906125e2565b5b50905061260b919061263f565b5090565b61263c91905b8082111561263857600081816101000a81549060ff021916905550600101612615565b5090565b90565b61266191905b8082111561265d576000816000905550600101612645565b5090565b905600a165627a7a7230582017c012c2e932df30e6f29fe23a5ea613991e6ee7dc41e73e5c44d23d90f5d9aa0029",
  "source": "pragma solidity ^0.4.25;\r\n\r\n// It's important to avoid vulnerabilities due to numeric overflow bugs\r\n// OpenZeppelin's SafeMath library, when used correctly, protects agains such bugs\r\n// More info: https://www.nccgroup.trust/us/about-us/newsroom-and-events/blog/2018/november/smart-contract-insecurity-bad-arithmetic/\r\nimport \"./FlightSuretyData.sol\";\r\n\r\n/************************************************** */\r\n/* FlightSurety Smart Contract                      */\r\n/************************************************** */\r\ncontract FlightSuretyApp {\r\n\r\n\r\n    /********************************************************************************************/\r\n    /*                                       DATA VARIABLES                                     */\r\n    /********************************************************************************************/\r\n\r\n    // Flight status codees\r\n    uint8 private constant STATUS_CODE_UNKNOWN = 0;\r\n    uint8 private constant STATUS_CODE_ON_TIME = 10;\r\n    uint8 private constant STATUS_CODE_LATE_AIRLINE = 20;\r\n    uint8 private constant STATUS_CODE_LATE_WEATHER = 30;\r\n    uint8 private constant STATUS_CODE_LATE_TECHNICAL = 40;\r\n    uint8 private constant STATUS_CODE_LATE_OTHER = 50;\r\n    mapping(address=>uint256) public registratingAirlinesVoteCount;\r\n    mapping(address=>uint256) public registratedAirlinesEther;\r\n    mapping(address=>mapping(address=>bool)) public registratingAirlinesVoteAddress;\r\n    address private contractOwner;          // Account used to deploy contract\r\n    FlightSuretyData private flightSuretyData;\r\n    struct Flight {\r\n        bool isRegistered;\r\n        uint8 statusCode;\r\n        uint256 updatedTimestamp;        \r\n        address airline;\r\n    }\r\n    mapping(string => Flight) private flights;\r\n    string[] public flightNames;\r\n    uint8 public flightCount = 0;\r\n\r\n \r\n    /********************************************************************************************/\r\n    /*                                       FUNCTION MODIFIERS                                 */\r\n    /********************************************************************************************/\r\n\r\n    // Modifiers help avoid duplication of code. They are typically used to validate something\r\n    // before a function is allowed to be executed.\r\n\r\n    /**\r\n    * @dev Modifier that requires the \"operational\" boolean variable to be \"true\"\r\n    *      This is used on all state changing functions to pause the contract in \r\n    *      the event there is an issue that needs to be fixed\r\n    */\r\n    modifier requireIsOperational() \r\n    {\r\n         // Modify to call data contract's status\r\n        require(flightSuretyData.isOperational() ==true, \"Contract is currently not operational\");  \r\n        _;  // All modifiers require an \"_\" which indicates where the function body will be added\r\n    }\r\n\r\n    /**\r\n    * @dev Modifier that requires the \"ContractOwner\" account to be the function caller\r\n    */\r\n    modifier requireContractOwner()\r\n    {\r\n        require(msg.sender == contractOwner, \"Caller is not contract owner\");\r\n        _;\r\n    }\r\n    \r\n    /**\r\n    * @dev Modifier that requires the \"airlineAddress\" account to be the function caller\r\n    */\r\n    modifier requireAirline()\r\n    {\r\n        require(flightSuretyData.isAirline(msg.sender), \"Caller is not airline\");   \r\n        _;\r\n    }\r\n    \r\n     /**\r\n    * @dev Modifier that requires the first account should be payable 10 ether\r\n    */\r\n    modifier require10Ether()\r\n    {\r\n        require(registratedAirlinesEther[msg.sender]>=10 ether, \"Not enough fund\");      \r\n        _;\r\n    }\r\n    \r\n    \r\n   \r\n    /********************************************************************************************/\r\n    /*                                       CONSTRUCTOR                                        */\r\n    /********************************************************************************************/\r\n\r\n    /**\r\n    * @dev Contract constructor\r\n    *\r\n    */\r\n    constructor\r\n                                (\r\n                                    address dataAddress,\r\n                                    address airlineAddress\r\n                                ) \r\n                                payable\r\n                                public \r\n    {\r\n        flightSuretyData = FlightSuretyData(dataAddress);\r\n        flightSuretyData.registerAirline(airlineAddress);\r\n        contractOwner = msg.sender;\r\n    }\r\n\r\n    /********************************************************************************************/\r\n    /*                                       UTILITY FUNCTIONS                                  */\r\n    /********************************************************************************************/\r\n\r\n    function getFlight(string flight)\r\n                            public\r\n                            returns(bool,uint8,uint256,address)\r\n    {\r\n        return  (flights[flight].isRegistered,flights[flight].statusCode,flights[flight].updatedTimestamp,flights[flight].airline);\r\n    }\r\n\r\n    function isOperational() \r\n                            public \r\n\r\n                            returns(bool) \r\n    {\r\n        return flightSuretyData.isOperational();  // Modify to call data contract's status\r\n    }\r\n\r\n    /********************************************************************************************/\r\n    /*                                     SMART CONTRACT FUNCTIONS                             */\r\n    /********************************************************************************************/\r\n    \r\n    /**\r\n    * @dev airline add money \r\n    *\r\n    */ \r\n    function addEther\r\n                    (    \r\n                    \r\n                    )\r\n                    external\r\n                    payable\r\n    {   \r\n        flightSuretyData.fund.value(msg.value)();\r\n        registratedAirlinesEther[msg.sender] += msg.value;\r\n    }\r\n  \r\n   /**\r\n    * @dev Add an airline to the registration queue\r\n    *\r\n    */   \r\n    function registerAirline\r\n                            (   \r\n                                address newAirline\r\n                            )\r\n                            external\r\n                            requireAirline\r\n                            returns(bool success, uint256 votes)\r\n    {\r\n        success = true;\r\n        require(registratingAirlinesVoteAddress[newAirline][msg.sender]==false,\"airline did vote\");\r\n        if(flightSuretyData.airlineCount()<4){\r\n            flightSuretyData.registerAirline(newAirline);  \r\n            registratingAirlinesVoteCount[newAirline]+=1;\r\n        }else{\r\n            if(registratingAirlinesVoteCount[newAirline]*2 >= flightSuretyData.airlineCount()){\r\n            flightSuretyData.registerAirline(newAirline);   \r\n        }else{\r\n            registratingAirlinesVoteCount[newAirline]+=1;\r\n            success = false;\r\n        }   \r\n        }\r\n        registratingAirlinesVoteAddress[newAirline][msg.sender]=true;\r\n        return (success, registratingAirlinesVoteCount[newAirline]);\r\n    }\r\n\r\n    /**\r\n    * @dev Register a future flight for insuring.\r\n    *\r\n    */  \r\n    function removeFlight\r\n                                (\r\n                                    string flight\r\n                                )\r\n                                external\r\n                                require10Ether\r\n    {   \r\n        flights[flight].isRegistered =false;\r\n        flightSuretyData.creditInsurees(flight);\r\n    }\r\n\r\n\r\n   /**\r\n    * @dev Register a future flight for insuring.\r\n    *\r\n    */  \r\n    function registerFlight\r\n                                (\r\n                                    uint256 updatedTimestamp,\r\n                                    string flight\r\n                                )\r\n                                external\r\n                                require10Ether\r\n    {   \r\n        flights[flight] = Flight(\r\n                                        true,\r\n                                        STATUS_CODE_UNKNOWN,\r\n                                        updatedTimestamp,       \r\n                                        msg.sender\r\n                                    );\r\n        flightNames.push(flight);\r\n        flightCount+=1;\r\n    }\r\n    \r\n   /**\r\n    * @dev Called after oracle has updated flight status\r\n    *\r\n    */  \r\n    function processFlightStatus\r\n                                (\r\n                                    address airline,\r\n                                    string memory flight,\r\n                                    uint256 timestamp,\r\n                                    uint8 statusCode\r\n                                )\r\n                                internal\r\n    {\r\n    }\r\n\r\n\r\n    // Generate a request for oracles to fetch flight information\r\n    function fetchFlightStatus\r\n                        (\r\n                            address airline,\r\n                            string flight,\r\n                            uint256 timestamp                            \r\n                        )\r\n                        external\r\n    {\r\n        uint8 index = getRandomIndex(msg.sender);\r\n\r\n        // Generate a unique key for storing the request\r\n        bytes32 key = keccak256(abi.encodePacked(index, airline, flight, timestamp));\r\n        oracleResponses[key] = ResponseInfo({\r\n                                                requester: msg.sender,\r\n                                                isOpen: true\r\n                                            });\r\n\r\n        emit OracleRequest(index, airline, flight, timestamp);\r\n    } \r\n\r\n\r\n// region ORACLE MANAGEMENT\r\n\r\n    // Incremented to add pseudo-randomness at various points\r\n    uint8 private nonce = 0;    \r\n\r\n    // Fee to be paid when registering oracle\r\n    uint256 public constant REGISTRATION_FEE = 1 ether;\r\n\r\n    // Number of oracles that must respond for valid status\r\n    uint256 private constant MIN_RESPONSES = 3;\r\n\r\n\r\n    struct Oracle {\r\n        bool isRegistered;\r\n        uint8[3] indexes;        \r\n    }\r\n\r\n    // Track all registered oracles\r\n    mapping(address => Oracle) private oracles;\r\n\r\n    // Model for responses from oracles\r\n    struct ResponseInfo {\r\n        address requester;                              // Account that requested status\r\n        bool isOpen;                                    // If open, oracle responses are accepted\r\n        mapping(uint8 => address[]) responses;          // Mapping key is the status code reported\r\n                                                        // This lets us group responses and identify\r\n                                                        // the response that majority of the oracles\r\n    }\r\n\r\n    // Track all oracle responses\r\n    // Key = hash(index, flight, timestamp)\r\n    mapping(bytes32 => ResponseInfo) private oracleResponses;\r\n\r\n    // Event fired each time an oracle submits a response\r\n    event FlightStatusInfo(address airline, string flight, uint256 timestamp, uint8 status);\r\n\r\n    event OracleReport(address airline, string flight, uint256 timestamp, uint8 status);\r\n\r\n    // Event fired when flight status request is submitted\r\n    // Oracles track this and if they have a matching index\r\n    // they fetch data and submit a response\r\n    event OracleRequest(uint8 index, address airline, string flight, uint256 timestamp);\r\n\r\n\r\n    // Register an oracle with the contract\r\n    function registerOracle\r\n                            (\r\n                            )\r\n                            external\r\n                            payable\r\n    {\r\n        // Require registration fee\r\n        require(msg.value >= REGISTRATION_FEE, \"Registration fee is required\");\r\n\r\n        uint8[3] memory indexes = generateIndexes(msg.sender);\r\n\r\n        oracles[msg.sender] = Oracle({\r\n                                        isRegistered: true,\r\n                                        indexes: indexes\r\n                                    });\r\n    }\r\n\r\n    function getMyIndexes\r\n                            (\r\n                            )\r\n                            view\r\n                            external\r\n                            returns(uint8[3])\r\n    {\r\n        require(oracles[msg.sender].isRegistered, \"Not registered as an oracle\");\r\n\r\n        return oracles[msg.sender].indexes;\r\n    }\r\n\r\n\r\n\r\n\r\n    // Called by oracle when a response is available to an outstanding request\r\n    // For the response to be accepted, there must be a pending request that is open\r\n    // and matches one of the three Indexes randomly assigned to the oracle at the\r\n    // time of registration (i.e. uninvited oracles are not welcome)\r\n    function submitOracleResponse\r\n                        (\r\n                            uint8 index,\r\n                            address airline,\r\n                            string flight,\r\n                            uint256 timestamp,\r\n                            uint8 statusCode\r\n                        )\r\n                        external\r\n    {\r\n        require((oracles[msg.sender].indexes[0] == index) || (oracles[msg.sender].indexes[1] == index) || (oracles[msg.sender].indexes[2] == index), \"Index does not match oracle request\");\r\n\r\n\r\n        bytes32 key = keccak256(abi.encodePacked(index, airline, flight, timestamp)); \r\n        require(oracleResponses[key].isOpen, \"Flight or timestamp do not match oracle request\");\r\n\r\n        oracleResponses[key].responses[statusCode].push(msg.sender);\r\n\r\n        // Information isn't considered verified until at least MIN_RESPONSES\r\n        // oracles respond with the *** same *** information\r\n        emit OracleReport(airline, flight, timestamp, statusCode);\r\n        if (oracleResponses[key].responses[statusCode].length >= MIN_RESPONSES) {\r\n\r\n            emit FlightStatusInfo(airline, flight, timestamp, statusCode);\r\n\r\n            // Handle flight status as appropriate\r\n            processFlightStatus(airline, flight, timestamp, statusCode);\r\n        }\r\n    }\r\n\r\n\r\n    function getFlightKey\r\n                        (\r\n                            address airline,\r\n                            string flight,\r\n                            uint256 timestamp\r\n                        )\r\n                        pure\r\n                        internal\r\n                        returns(bytes32) \r\n    {\r\n        return keccak256(abi.encodePacked(airline, flight, timestamp));\r\n    }\r\n\r\n    // Returns array of three non-duplicating integers from 0-9\r\n    function generateIndexes\r\n                            (                       \r\n                                address account         \r\n                            )\r\n                            internal\r\n                            returns(uint8[3])\r\n    {\r\n        uint8[3] memory indexes;\r\n        indexes[0] = getRandomIndex(account);\r\n        \r\n        indexes[1] = indexes[0];\r\n        while(indexes[1] == indexes[0]) {\r\n            indexes[1] = getRandomIndex(account);\r\n        }\r\n\r\n        indexes[2] = indexes[1];\r\n        while((indexes[2] == indexes[0]) || (indexes[2] == indexes[1])) {\r\n            indexes[2] = getRandomIndex(account);\r\n        }\r\n\r\n        return indexes;\r\n    }\r\n\r\n    // Returns array of three non-duplicating integers from 0-9\r\n    function getRandomIndex\r\n                            (\r\n                                address account\r\n                            )\r\n                            internal\r\n                            returns (uint8)\r\n    {\r\n        uint8 maxValue = 10;\r\n\r\n        // Pseudo random number...the incrementing nonce adds variation\r\n        uint8 random = uint8(uint256(keccak256(abi.encodePacked(blockhash(block.number - nonce++), account))) % maxValue);\r\n\r\n        if (nonce > 250) {\r\n            nonce = 0;  // Can only fetch blockhashes for last 256 blocks so we adapt\r\n        }\r\n\r\n        return random;\r\n    }\r\n\r\n// endregion\r\n\r\n}   \r\n",
  "sourcePath": "C:/Users/15077693d/Desktop/workplace/blockchain/FlightSurety/contracts/FlightSuretyApp.sol",
  "compiler": {
    "name": "solc",
    "version": "0.4.26+commit.4563c3fc.Emscripten.clang"
  },
  "schemaVersion": "3.3.3",
  "updatedAt": "2021-04-20T15:46:47.359Z",
  "networkType": "ethereum",
  "devdoc": {
    "methods": {
      "addEther()": {
        "details": "airline add money \r     "
      },
      "registerAirline(address)": {
        "details": "Add an airline to the registration queue\r     "
      },
      "registerFlight(uint256,string)": {
        "details": "Register a future flight for insuring.\r     "
      },
      "removeFlight(string)": {
        "details": "Register a future flight for insuring.\r     "
      }
    }
  },
  "userdoc": {
    "methods": {
      "getFlight(string)": {
        "notice": "*****************************************************************************************"
      }
    }
  }
}