{
  "contractName": "FlightSuretyData",
  "abi": [
    {
      "constant": true,
      "inputs": [
        {
          "name": "",
          "type": "address"
        }
      ],
      "name": "airlines",
      "outputs": [
        {
          "name": "",
          "type": "bool"
        }
      ],
      "payable": false,
      "stateMutability": "view",
      "type": "function"
    },
    {
      "constant": true,
      "inputs": [
        {
          "name": "",
          "type": "uint256"
        }
      ],
      "name": "airlineList",
      "outputs": [
        {
          "name": "",
          "type": "address"
        }
      ],
      "payable": false,
      "stateMutability": "view",
      "type": "function"
    },
    {
      "constant": true,
      "inputs": [
        {
          "name": "",
          "type": "address"
        }
      ],
      "name": "clientWithdraw",
      "outputs": [
        {
          "name": "",
          "type": "uint256"
        }
      ],
      "payable": false,
      "stateMutability": "view",
      "type": "function"
    },
    {
      "constant": true,
      "inputs": [],
      "name": "airlineCount",
      "outputs": [
        {
          "name": "",
          "type": "uint256"
        }
      ],
      "payable": false,
      "stateMutability": "view",
      "type": "function"
    },
    {
      "inputs": [],
      "payable": false,
      "stateMutability": "nonpayable",
      "type": "constructor"
    },
    {
      "payable": true,
      "stateMutability": "payable",
      "type": "fallback"
    },
    {
      "constant": false,
      "inputs": [
        {
          "name": "index",
          "type": "uint256"
        },
        {
          "name": "flight",
          "type": "string"
        }
      ],
      "name": "getClientByFlight",
      "outputs": [
        {
          "name": "",
          "type": "address"
        }
      ],
      "payable": false,
      "stateMutability": "nonpayable",
      "type": "function"
    },
    {
      "constant": false,
      "inputs": [
        {
          "name": "flight",
          "type": "string"
        },
        {
          "name": "client",
          "type": "address"
        }
      ],
      "name": "getClientBuyAmount",
      "outputs": [
        {
          "name": "",
          "type": "uint256"
        }
      ],
      "payable": false,
      "stateMutability": "nonpayable",
      "type": "function"
    },
    {
      "constant": false,
      "inputs": [],
      "name": "getContractOwner",
      "outputs": [
        {
          "name": "",
          "type": "address"
        }
      ],
      "payable": false,
      "stateMutability": "nonpayable",
      "type": "function"
    },
    {
      "constant": true,
      "inputs": [],
      "name": "isOperational",
      "outputs": [
        {
          "name": "",
          "type": "bool"
        }
      ],
      "payable": false,
      "stateMutability": "view",
      "type": "function"
    },
    {
      "constant": false,
      "inputs": [
        {
          "name": "mode",
          "type": "bool"
        }
      ],
      "name": "setOperatingStatus",
      "outputs": [],
      "payable": false,
      "stateMutability": "nonpayable",
      "type": "function"
    },
    {
      "constant": false,
      "inputs": [
        {
          "name": "newAirline",
          "type": "address"
        }
      ],
      "name": "registerAirline",
      "outputs": [],
      "payable": false,
      "stateMutability": "nonpayable",
      "type": "function"
    },
    {
      "constant": false,
      "inputs": [
        {
          "name": "flight",
          "type": "string"
        },
        {
          "name": "client",
          "type": "address"
        }
      ],
      "name": "buy",
      "outputs": [],
      "payable": true,
      "stateMutability": "payable",
      "type": "function"
    },
    {
      "constant": false,
      "inputs": [
        {
          "name": "client",
          "type": "address"
        }
      ],
      "name": "withdraw",
      "outputs": [],
      "payable": false,
      "stateMutability": "nonpayable",
      "type": "function"
    },
    {
      "constant": false,
      "inputs": [
        {
          "name": "flight",
          "type": "string"
        }
      ],
      "name": "creditInsurees",
      "outputs": [],
      "payable": false,
      "stateMutability": "nonpayable",
      "type": "function"
    },
    {
      "constant": false,
      "inputs": [
        {
          "name": "flight",
          "type": "string"
        }
      ],
      "name": "pay",
      "outputs": [],
      "payable": false,
      "stateMutability": "nonpayable",
      "type": "function"
    },
    {
      "constant": false,
      "inputs": [],
      "name": "fund",
      "outputs": [],
      "payable": true,
      "stateMutability": "payable",
      "type": "function"
    },
    {
      "constant": false,
      "inputs": [
        {
          "name": "airline",
          "type": "address"
        }
      ],
      "name": "isAirline",
      "outputs": [
        {
          "name": "",
          "type": "bool"
        }
      ],
      "payable": false,
      "stateMutability": "nonpayable",
      "type": "function"
    }
  ],
  "bytecode": "0x60806040526001600060146101000a81548160ff021916908315150217905550600060035534801561003057600080fd5b50336000806101000a81548173ffffffffffffffffffffffffffffffffffffffff021916908373ffffffffffffffffffffffffffffffffffffffff16021790555061107c806100806000396000f3006080604052600436106100e6576000357c0100000000000000000000000000000000000000000000000000000000900463ffffffff1680630e248a11146100f0578063110466ed1461014b5780632b66d72e1461017a5780633fcf1cf4146101b557806341684769146101f0578063442890d51461024b57806348efb581146102a25780634aab4d941461035557806351cff8d9146103f257806374c72769146104355780639ddf4153146104a2578063b60d4288146104f9578063bdfd987714610503578063cd905dff14610546578063e1a3e55c14610575578063f5526774146105c3575b6100ee6105ee565b005b3480156100fc57600080fd5b50610131600480360381019080803573ffffffffffffffffffffffffffffffffffffffff1690602001909291905050506105f0565b604051808215151515815260200191505060405180910390f35b34801561015757600080fd5b50610178600480360381019080803515159060200190929190505050610646565b005b34801561018657600080fd5b506101b3600480360381019080803590602001908201803590602001919091929391929390505050610727565b005b3480156101c157600080fd5b506101ee6004803603810190808035906020019082018035906020019190919293919293905050506108c0565b005b3480156101fc57600080fd5b50610231600480360381019080803573ffffffffffffffffffffffffffffffffffffffff169060200190929190505050610a4a565b604051808215151515815260200191505060405180910390f35b34801561025757600080fd5b50610260610a6a565b604051808273ffffffffffffffffffffffffffffffffffffffff1673ffffffffffffffffffffffffffffffffffffffff16815260200191505060405180910390f35b3480156102ae57600080fd5b5061031360048036038101908080359060200190929190803590602001908201803590602001908080601f0160208091040260200160405190810160405280939291908181526020018383808284378201915050505050509192919290505050610a93565b604051808273ffffffffffffffffffffffffffffffffffffffff1673ffffffffffffffffffffffffffffffffffffffff16815260200191505060405180910390f35b34801561036157600080fd5b506103dc600480360381019080803590602001908201803590602001908080601f0160208091040260200160405190810160405280939291908181526020018383808284378201915050505050509192919290803573ffffffffffffffffffffffffffffffffffffffff169060200190929190505050610b40565b6040518082815260200191505060405180910390f35b3480156103fe57600080fd5b50610433600480360381019080803573ffffffffffffffffffffffffffffffffffffffff169060200190929190505050610bf3565b005b34801561044157600080fd5b5061046060048036038101908080359060200190929190505050610c7c565b604051808273ffffffffffffffffffffffffffffffffffffffff1673ffffffffffffffffffffffffffffffffffffffff16815260200191505060405180910390f35b3480156104ae57600080fd5b506104e3600480360381019080803573ffffffffffffffffffffffffffffffffffffffff169060200190929190505050610cba565b6040518082815260200191505060405180910390f35b6105016105ee565b005b34801561050f57600080fd5b50610544600480360381019080803573ffffffffffffffffffffffffffffffffffffffff169060200190929190505050610cd2565b005b34801561055257600080fd5b5061055b610e6d565b604051808215151515815260200191505060405180910390f35b6105c1600480360381019080803590602001908201803590602001919091929391929390803573ffffffffffffffffffffffffffffffffffffffff169060200190929190505050610e83565b005b3480156105cf57600080fd5b506105d8611004565b6040518082815260200191505060405180910390f35b565b6000600160008373ffffffffffffffffffffffffffffffffffffffff1673ffffffffffffffffffffffffffffffffffffffff16815260200190815260200160002060009054906101000a900460ff169050919050565b6000809054906101000a900473ffffffffffffffffffffffffffffffffffffffff1673ffffffffffffffffffffffffffffffffffffffff163373ffffffffffffffffffffffffffffffffffffffff1614151561070a576040517f08c379a000000000000000000000000000000000000000000000000000000000815260040180806020018281038252601c8152602001807f43616c6c6572206973206e6f7420636f6e7472616374206f776e65720000000081525060200191505060405180910390fd5b80600060146101000a81548160ff02191690831515021790555050565b600080600091505b600484846040518083838082843782019150509250505090815260200160405180910390208054905082101561088957600484846040518083838082843782019150509250505090815260200160405180910390208281548110151561079157fe5b9060005260206000200160009054906101000a900473ffffffffffffffffffffffffffffffffffffffff169050600260036005868660405180838380828437820191505092505050908152602001604051809103902060008473ffffffffffffffffffffffffffffffffffffffff1673ffffffffffffffffffffffffffffffffffffffff168152602001908152602001600020540281151561082f57fe5b04600660008373ffffffffffffffffffffffffffffffffffffffff1673ffffffffffffffffffffffffffffffffffffffff16815260200190815260200160002060008282540192505081905550818060010192505061072f565b6004848460405180838380828437820191505092505050908152602001604051809103902060006108ba919061100a565b50505050565b600080600091505b6004848460405180838380828437820191505092505050908152602001604051809103902080549050821015610a1357600484846040518083838082843782019150509250505090815260200160405180910390208281548110151561092a57fe5b9060005260206000200160009054906101000a900473ffffffffffffffffffffffffffffffffffffffff1690506005848460405180838380828437820191505092505050908152602001604051809103902060008273ffffffffffffffffffffffffffffffffffffffff1673ffffffffffffffffffffffffffffffffffffffff16815260200190815260200160002054600660008373ffffffffffffffffffffffffffffffffffffffff1673ffffffffffffffffffffffffffffffffffffffff1681526020019081526020016000206000828254019250508190555081806001019250506108c8565b600484846040518083838082843782019150509250505090815260200160405180910390206000610a44919061100a565b50505050565b60016020528060005260406000206000915054906101000a900460ff1681565b60008060009054906101000a900473ffffffffffffffffffffffffffffffffffffffff16905090565b60006004826040518082805190602001908083835b602083101515610acd5780518252602082019150602081019050602083039250610aa8565b6001836020036101000a038019825116818451168082178552505050505050905001915050908152602001604051809103902083815481101515610b0d57fe5b9060005260206000200160009054906101000a900473ffffffffffffffffffffffffffffffffffffffff16905092915050565b60006005836040518082805190602001908083835b602083101515610b7a5780518252602082019150602081019050602083039250610b55565b6001836020036101000a038019825116818451168082178552505050505050905001915050908152602001604051809103902060008373ffffffffffffffffffffffffffffffffffffffff1673ffffffffffffffffffffffffffffffffffffffff16815260200190815260200160002054905092915050565b8073ffffffffffffffffffffffffffffffffffffffff166108fc600660008473ffffffffffffffffffffffffffffffffffffffff1673ffffffffffffffffffffffffffffffffffffffff168152602001908152602001600020549081150290604051600060405180830381858888f19350505050158015610c78573d6000803e3d6000fd5b5050565b600281815481101515610c8b57fe5b906000526020600020016000915054906101000a900473ffffffffffffffffffffffffffffffffffffffff1681565b60066020528060005260406000206000915090505481565b8060001515600160008373ffffffffffffffffffffffffffffffffffffffff1673ffffffffffffffffffffffffffffffffffffffff16815260200190815260200160002060009054906101000a900460ff161515141515610d9b576040517f08c379a00000000000000000000000000000000000000000000000000000000081526004018080602001828103825260188152602001807f6169726c696e652064696420726567697374726174696f6e000000000000000081525060200191505060405180910390fd5b60018060008473ffffffffffffffffffffffffffffffffffffffff1673ffffffffffffffffffffffffffffffffffffffff16815260200190815260200160002060006101000a81548160ff02191690831515021790555060028290806001815401808255809150509060018203906000526020600020016000909192909190916101000a81548173ffffffffffffffffffffffffffffffffffffffff021916908373ffffffffffffffffffffffffffffffffffffffff1602179055505060016003600082825401925050819055505050565b60008060149054906101000a900460ff16905090565b600034118015610e9b5750670de0b6b3a76400003411155b1515610f0f576040517f08c379a000000000000000000000000000000000000000000000000000000000815260040180806020018281038252601c8152602001807f5061796d656e74206973206e6f74206265747765656e2030202d20310000000081525060200191505060405180910390fd5b346005848460405180838380828437820191505092505050908152602001604051809103902060008373ffffffffffffffffffffffffffffffffffffffff1673ffffffffffffffffffffffffffffffffffffffff16815260200190815260200160002081905550600483836040518083838082843782019150509250505090815260200160405180910390208190806001815401808255809150509060018203906000526020600020016000909192909190916101000a81548173ffffffffffffffffffffffffffffffffffffffff021916908373ffffffffffffffffffffffffffffffffffffffff16021790555050505050565b60035481565b5080546000825590600052602060002090810190611028919061102b565b50565b61104d91905b80821115611049576000816000905550600101611031565b5090565b905600a165627a7a723058207fa54636e20b82327e745afd922a811b59eec97360f621f9f42cbfca15c57dd30029",
  "source": "pragma solidity ^0.4.25;\n\n\ncontract FlightSuretyData {\n\n\n    /********************************************************************************************/\n    /*                                       DATA VARIABLES                                     */\n    /********************************************************************************************/\n\n    address private contractOwner;                                      // Account used to deploy contract\n    bool private operational = true;                                    // Blocks all state changes throughout the contract if false\n    mapping(address=>bool) public airlines;\n    address[] public airlineList;\n    uint256 public airlineCount = 0;\n    mapping(string=>address[]) private  clientBuyAddress;\n    mapping(string=>mapping(address=>uint256)) private  clientBuy;\n    mapping(address=>uint256) public clientWithdraw;\n    /********************************************************************************************/\n    /*                                       EVENT DEFINITIONS                                  */\n    /********************************************************************************************/\n\n\n    /**\n    * @dev Constructor\n    *      The deploying account becomes contractOwner\n    */\n    constructor\n                                (\n                                ) \n                                public \n    {\n        contractOwner = msg.sender;\n    }\n\n    /********************************************************************************************/\n    /*                                       FUNCTION MODIFIERS                                 */\n    /********************************************************************************************/\n\n    // Modifiers help avoid duplication of code. They are typically used to validate something\n    // before a function is allowed to be executed.\n\n    /**\n    * @dev Modifier that requires the \"operational\" boolean variable to be \"true\"\n    *      This is used on all state changing functions to pause the contract in \n    *      the event there is an issue that needs to be fixed\n    */\n    modifier requireIsOperational() \n    {\n        require(operational, \"Contract is currently not operational\");\n        _;  // All modifiers require an \"_\" which indicates where the function body will be added\n    }\n\n    /**\n    * @dev Modifier that requires the \"ContractOwner\" account to be the function caller\n    */\n    modifier requireContractOwner()\n    {\n        require(msg.sender == contractOwner, \"Caller is not contract owner\");\n        _;\n    }\n    \n    /**\n    * @dev Modifier that requires the airline did not do registration\n    */\n     modifier requireNoRegistration(address airline)\n    {\n        require(airlines[airline]==false, \"airline did registration\");\n        _;\n    }\n\n    /********************************************************************************************/\n    /*                                       UTILITY FUNCTIONS                                  */\n    /********************************************************************************************/\n\n    function getClientByFlight(\n                                \n                                uint256 index,\n                                string flight\n                                )\n                                public\n                                returns(address)\n    {\n        return clientBuyAddress[flight][index];\n    }\n\n    function getClientBuyAmount(\n                                \n                                string flight,\n                                address client\n                                )\n                                public\n                                returns(uint256)\n    {\n        return clientBuy[flight][client];\n    }\n\n    function getContractOwner()\n                                public \n                                returns(address)\n    {\n        return contractOwner;\n    } \n\n    /**\n    * @dev Get operating status of contract\n    *\n    * @return A bool that is the current operating status\n    */      \n    function isOperational() \n                            public \n                            view \n                            returns(bool) \n    {\n        return operational;\n    }\n\n\n    /**\n    * @dev Sets contract operations on/off\n    *\n    * When operational mode is disabled, all write transactions except for this one will fail\n    */    \n    function setOperatingStatus\n                            (\n                                bool mode\n                            ) \n                            external\n                            requireContractOwner \n    {\n        operational = mode;\n    }\n\n    /********************************************************************************************/\n    /*                                     SMART CONTRACT FUNCTIONS                             */\n    /********************************************************************************************/\n\n   /**\n    * @dev Add an airline to the registration queue\n    *      Can only be called from FlightSuretyApp contract\n    *\n    */   \n    function registerAirline\n                            (  \n                                address newAirline \n                            )\n                            external\n                            requireNoRegistration(newAirline)\n    {\n        airlines[newAirline]=true;\n        airlineList.push(newAirline);\n        airlineCount+=1;\n    }\n\n\n   /**\n    * @dev Buy insurance for a flight\n    *\n    */   \n    function buy\n                            (      \n                                string flight,\n                                address client\n                            )\n                            external\n                            payable\n    {\n        require(msg.value>0 && msg.value<=1 ether,\"Payment is not between 0 - 1\");\n       clientBuy[flight][client]=msg.value;\n       clientBuyAddress[flight].push(client);\n    }\n\n    /**\n     *  @dev client withdraw \n    */\n    function withdraw\n                                (\n                                    address client\n                                )\n                                external\n    {\n        client.transfer(clientWithdraw[client]);\n    }\n    \n    /**\n     *  @dev Credits payouts to insurees\n    */\n    function creditInsurees\n                                (\n                                    string flight\n                                )\n                                external\n    {\n        for(uint256 i=0; i < clientBuyAddress[flight].length ; i++){\n            address clientAddress = clientBuyAddress[flight][i];\n            clientWithdraw[clientAddress]+=clientBuy[flight][clientAddress];\n        }\n        delete clientBuyAddress[flight];\n    }\n    \n\n    /**\n     *  @dev Transfers eligible payout funds to insuree\n     *\n    */\n    function pay\n                            (\n                                string flight\n                            )\n                            external\n    {\n         for(uint256 i=0; i < clientBuyAddress[flight].length ; i++){\n            address clientAddress = clientBuyAddress[flight][i];\n            clientWithdraw[clientAddress]+=clientBuy[flight][clientAddress]*3/2;\n        }\n        delete clientBuyAddress[flight];\n    }\n\n   /**\n    * @dev Initial funding for the insurance. Unless there are too many delayed flights\n    *      resulting in insurance payouts, the contract should be self-sustaining\n    *\n    */   \n    function fund\n                            (   \n                            )\n                            public\n                            payable\n    {\n    }\n\n    function getFlightKey\n                        (\n                            address airline,\n                            string memory flight,\n                            uint256 timestamp\n                        )\n                        pure\n                        internal\n                        returns(bytes32) \n    {\n        return keccak256(abi.encodePacked(airline, flight, timestamp));\n    }\n\n    function isAirline\n                      (\n                          address airline\n                      )\n                      external\n                      returns(bool)\n    {\n        return airlines[airline];\n    }\n\n    /**\n    * @dev Fallback function for funding smart contract.\n    *\n    */\n    function() \n                            external \n                            payable \n    {\n        fund();\n    }\n\n\n}\n\n\n",
  "sourcePath": "/Users/yiulapsang/Desktop/workspace/blockchain/FlightSurety/contracts/FlightSuretyData.sol",
  "compiler": {
    "name": "solc",
    "version": "0.4.26+commit.4563c3fc.Emscripten.clang"
  },
  "schemaVersion": "3.3.3",
  "updatedAt": "2021-04-22T02:06:57.096Z",
  "networkType": "ethereum",
  "devdoc": {
    "methods": {
      "buy(string,address)": {
        "details": "Buy insurance for a flight    "
      },
      "creditInsurees(string)": {
        "details": "Credits payouts to insurees"
      },
      "fund()": {
        "details": "Initial funding for the insurance. Unless there are too many delayed flights     resulting in insurance payouts, the contract should be self-sustaining    "
      },
      "isOperational()": {
        "details": "Get operating status of contract",
        "return": "A bool that is the current operating status"
      },
      "pay(string)": {
        "details": "Transfers eligible payout funds to insuree    "
      },
      "registerAirline(address)": {
        "details": "Add an airline to the registration queue     Can only be called from FlightSuretyApp contract    "
      },
      "setOperatingStatus(bool)": {
        "details": "Sets contract operations on/off    * When operational mode is disabled, all write transactions except for this one will fail"
      },
      "withdraw(address)": {
        "details": "client withdraw "
      }
    }
  },
  "userdoc": {
    "methods": {
      "getClientByFlight(uint256,string)": {
        "notice": "*****************************************************************************************"
      }
    }
  }
}