{
  "contractName": "FlightSuretyApp",
  "abi": [
    {
      "constant": true,
      "inputs": [],
      "name": "flightCount",
      "outputs": [
        {
          "name": "",
          "type": "uint8"
        }
      ],
      "payable": false,
      "stateMutability": "view",
      "type": "function"
    },
    {
      "constant": true,
      "inputs": [
        {
          "name": "",
          "type": "address"
        }
      ],
      "name": "registratingAirlinesVoteCount",
      "outputs": [
        {
          "name": "",
          "type": "uint256"
        }
      ],
      "payable": false,
      "stateMutability": "view",
      "type": "function"
    },
    {
      "constant": true,
      "inputs": [],
      "name": "REGISTRATION_FEE",
      "outputs": [
        {
          "name": "",
          "type": "uint256"
        }
      ],
      "payable": false,
      "stateMutability": "view",
      "type": "function"
    },
    {
      "constant": true,
      "inputs": [
        {
          "name": "",
          "type": "address"
        }
      ],
      "name": "registratedAirlinesEther",
      "outputs": [
        {
          "name": "",
          "type": "uint256"
        }
      ],
      "payable": false,
      "stateMutability": "view",
      "type": "function"
    },
    {
      "constant": true,
      "inputs": [
        {
          "name": "",
          "type": "uint256"
        }
      ],
      "name": "flightNames",
      "outputs": [
        {
          "name": "",
          "type": "string"
        }
      ],
      "payable": false,
      "stateMutability": "view",
      "type": "function"
    },
    {
      "constant": true,
      "inputs": [
        {
          "name": "",
          "type": "address"
        },
        {
          "name": "",
          "type": "address"
        }
      ],
      "name": "registratingAirlinesVoteAddress",
      "outputs": [
        {
          "name": "",
          "type": "bool"
        }
      ],
      "payable": false,
      "stateMutability": "view",
      "type": "function"
    },
    {
      "inputs": [
        {
          "name": "dataAddress",
          "type": "address"
        },
        {
          "name": "airlineAddress",
          "type": "address"
        }
      ],
      "payable": true,
      "stateMutability": "payable",
      "type": "constructor"
    },
    {
      "anonymous": false,
      "inputs": [
        {
          "indexed": false,
          "name": "airline",
          "type": "address"
        },
        {
          "indexed": false,
          "name": "flight",
          "type": "string"
        },
        {
          "indexed": false,
          "name": "timestamp",
          "type": "uint256"
        },
        {
          "indexed": false,
          "name": "status",
          "type": "uint8"
        }
      ],
      "name": "FlightStatusInfo",
      "type": "event"
    },
    {
      "anonymous": false,
      "inputs": [
        {
          "indexed": false,
          "name": "airline",
          "type": "address"
        },
        {
          "indexed": false,
          "name": "flight",
          "type": "string"
        },
        {
          "indexed": false,
          "name": "timestamp",
          "type": "uint256"
        },
        {
          "indexed": false,
          "name": "status",
          "type": "uint8"
        }
      ],
      "name": "OracleReport",
      "type": "event"
    },
    {
      "anonymous": false,
      "inputs": [
        {
          "indexed": false,
          "name": "index",
          "type": "uint8"
        },
        {
          "indexed": false,
          "name": "airline",
          "type": "address"
        },
        {
          "indexed": false,
          "name": "flight",
          "type": "string"
        },
        {
          "indexed": false,
          "name": "timestamp",
          "type": "uint256"
        }
      ],
      "name": "OracleRequest",
      "type": "event"
    },
    {
      "constant": false,
      "inputs": [
        {
          "name": "flight",
          "type": "string"
        }
      ],
      "name": "getFlight",
      "outputs": [
        {
          "name": "",
          "type": "bool"
        },
        {
          "name": "",
          "type": "uint8"
        },
        {
          "name": "",
          "type": "uint256"
        },
        {
          "name": "",
          "type": "address"
        },
        {
          "name": "",
          "type": "bool"
        },
        {
          "name": "",
          "type": "uint256"
        }
      ],
      "payable": false,
      "stateMutability": "nonpayable",
      "type": "function"
    },
    {
      "constant": false,
      "inputs": [],
      "name": "isOperational",
      "outputs": [
        {
          "name": "",
          "type": "bool"
        }
      ],
      "payable": false,
      "stateMutability": "nonpayable",
      "type": "function"
    },
    {
      "constant": false,
      "inputs": [
        {
          "name": "flight",
          "type": "string"
        }
      ],
      "name": "buyInsurance",
      "outputs": [],
      "payable": true,
      "stateMutability": "payable",
      "type": "function"
    },
    {
      "constant": false,
      "inputs": [
        {
          "name": "flight",
          "type": "string"
        }
      ],
      "name": "repayClient",
      "outputs": [],
      "payable": false,
      "stateMutability": "nonpayable",
      "type": "function"
    },
    {
      "constant": false,
      "inputs": [],
      "name": "addEther",
      "outputs": [],
      "payable": true,
      "stateMutability": "payable",
      "type": "function"
    },
    {
      "constant": false,
      "inputs": [
        {
          "name": "newAirline",
          "type": "address"
        }
      ],
      "name": "registerAirline",
      "outputs": [
        {
          "name": "success",
          "type": "bool"
        },
        {
          "name": "votes",
          "type": "uint256"
        }
      ],
      "payable": false,
      "stateMutability": "nonpayable",
      "type": "function"
    },
    {
      "constant": false,
      "inputs": [
        {
          "name": "flight",
          "type": "string"
        }
      ],
      "name": "removeFlight",
      "outputs": [],
      "payable": false,
      "stateMutability": "nonpayable",
      "type": "function"
    },
    {
      "constant": false,
      "inputs": [
        {
          "name": "updatedTimestamp",
          "type": "uint256"
        },
        {
          "name": "flight",
          "type": "string"
        }
      ],
      "name": "registerFlight",
      "outputs": [],
      "payable": false,
      "stateMutability": "nonpayable",
      "type": "function"
    },
    {
      "constant": false,
      "inputs": [
        {
          "name": "airline",
          "type": "address"
        },
        {
          "name": "flight",
          "type": "string"
        },
        {
          "name": "timestamp",
          "type": "uint256"
        }
      ],
      "name": "fetchFlightStatus",
      "outputs": [],
      "payable": false,
      "stateMutability": "nonpayable",
      "type": "function"
    },
    {
      "constant": false,
      "inputs": [],
      "name": "registerOracle",
      "outputs": [],
      "payable": true,
      "stateMutability": "payable",
      "type": "function"
    },
    {
      "constant": true,
      "inputs": [],
      "name": "getMyIndexes",
      "outputs": [
        {
          "name": "",
          "type": "uint8[3]"
        }
      ],
      "payable": false,
      "stateMutability": "view",
      "type": "function"
    },
    {
      "constant": false,
      "inputs": [
        {
          "name": "index",
          "type": "uint8"
        },
        {
          "name": "airline",
          "type": "address"
        },
        {
          "name": "flight",
          "type": "string"
        },
        {
          "name": "timestamp",
          "type": "uint256"
        },
        {
          "name": "statusCode",
          "type": "uint8"
        }
      ],
      "name": "submitOracleResponse",
      "outputs": [],
      "payable": false,
      "stateMutability": "nonpayable",
      "type": "function"
    }
  ],
  "bytecode": "0x60806040526000600760006101000a81548160ff021916908360ff1602179055506000600760016101000a81548160ff021916908360ff160217905550604051604080612c5a833981018060405281019080805190602001909291908051906020019092919050505081600460006101000a81548173ffffffffffffffffffffffffffffffffffffffff021916908373ffffffffffffffffffffffffffffffffffffffff160217905550600460009054906101000a900473ffffffffffffffffffffffffffffffffffffffff1673ffffffffffffffffffffffffffffffffffffffff1663bdfd9877826040518263ffffffff167c0100000000000000000000000000000000000000000000000000000000028152600401808273ffffffffffffffffffffffffffffffffffffffff1673ffffffffffffffffffffffffffffffffffffffff168152602001915050600060405180830381600087803b15801561016657600080fd5b505af115801561017a573d6000803e3d6000fd5b5050505033600360006101000a81548173ffffffffffffffffffffffffffffffffffffffff021916908373ffffffffffffffffffffffffffffffffffffffff1602179055505050612a8a806101d06000396000f3006080604052600436106100fc576000357c0100000000000000000000000000000000000000000000000000000000900463ffffffff1680631bc0956714610101578063339d2590146101325780633b9f9fb01461013c5780635f1cc0e61461019357806364b4f751146101e65780636ea21ad6146102115780638894dd2b1461023f578063a67dc60d14610249578063b2bf7ad0146102a0578063b3ecbc7914610346578063bdfd9877146103c1578063c10f270014610423578063c389ba00146104a2578063c89bf8be146104dd578063cd905dff14610518578063ce05959614610547578063f057375214610621578063f83f11c014610666575b600080fd5b34801561010d57600080fd5b506101166106cb565b604051808260ff1660ff16815260200191505060405180910390f35b61013a6106de565b005b34801561014857600080fd5b5061017d600480360381019080803573ffffffffffffffffffffffffffffffffffffffff169060200190929190505050610806565b6040518082815260200191505060405180910390f35b34801561019f57600080fd5b506101a861081e565b6040518082600360200280838360005b838110156101d35780820151818401526020810190506101b8565b5050505090500191505060405180910390f35b3480156101f257600080fd5b506101fb610993565b6040518082815260200191505060405180910390f35b61023d60048036038101908080359060200190820180359060200191909192939192939050505061099f565b005b610247610ad2565b005b34801561025557600080fd5b5061028a600480360381019080803573ffffffffffffffffffffffffffffffffffffffff169060200190929190505050610bc0565b6040518082815260200191505060405180910390f35b3480156102ac57600080fd5b506102cb60048036038101908080359060200190929190505050610bd8565b6040518080602001828103825283818151815260200191508051906020019080838360005b8381101561030b5780820151818401526020810190506102f0565b50505050905090810190601f1680156103385780820380516001836020036101000a031916815260200191505b509250505060405180910390f35b34801561035257600080fd5b506103a7600480360381019080803573ffffffffffffffffffffffffffffffffffffffff169060200190929190803573ffffffffffffffffffffffffffffffffffffffff169060200190929190505050610c93565b604051808215151515815260200191505060405180910390f35b3480156103cd57600080fd5b50610402600480360381019080803573ffffffffffffffffffffffffffffffffffffffff169060200190929190505050610cc2565b60405180831515151581526020018281526020019250505060405180910390f35b34801561042f57600080fd5b506104a0600480360381019080803560ff169060200190929190803573ffffffffffffffffffffffffffffffffffffffff16906020019092919080359060200190820180359060200191909192939192939080359060200190929190803560ff16906020019092919050505061143e565b005b3480156104ae57600080fd5b506104db600480360381019080803590602001908201803590602001919091929391929390505050611a57565b005b3480156104e957600080fd5b50610516600480360381019080803590602001908201803590602001919091929391929390505050611c1e565b005b34801561052457600080fd5b5061052d611d26565b604051808215151515815260200191505060405180910390f35b34801561055357600080fd5b506105ae600480360381019080803590602001908201803590602001908080601f0160208091040260200160405190810160405280939291908181526020018383808284378201915050505050509192919290505050611dee565b60405180871515151581526020018660ff1660ff1681526020018581526020018473ffffffffffffffffffffffffffffffffffffffff1673ffffffffffffffffffffffffffffffffffffffff16815260200183151515158152602001828152602001965050505050505060405180910390f35b34801561062d57600080fd5b50610664600480360381019080803590602001909291908035906020019082018035906020019190919293919293905050506120ed565b005b34801561067257600080fd5b506106c9600480360381019080803573ffffffffffffffffffffffffffffffffffffffff16906020019092919080359060200190820180359060200191909192939192939080359060200190929190505050612354565b005b600760009054906101000a900460ff1681565b6106e66128cc565b670de0b6b3a76400003410151515610766576040517f08c379a000000000000000000000000000000000000000000000000000000000815260040180806020018281038252601c8152602001807f526567697374726174696f6e206665652069732072657175697265640000000081525060200191505060405180910390fd5b61076f336125be565b9050604080519081016040528060011515815260200182815250600860003373ffffffffffffffffffffffffffffffffffffffff1673ffffffffffffffffffffffffffffffffffffffff16815260200190815260200160002060008201518160000160006101000a81548160ff0219169083151502179055506020820151816001019060036107ff9291906128ef565b5090505050565b60006020528060005260406000206000915090505481565b6108266128cc565b600860003373ffffffffffffffffffffffffffffffffffffffff1673ffffffffffffffffffffffffffffffffffffffff16815260200190815260200160002060000160009054906101000a900460ff1615156108ea576040517f08c379a000000000000000000000000000000000000000000000000000000000815260040180806020018281038252601b8152602001807f4e6f74207265676973746572656420617320616e206f7261636c65000000000081525060200191505060405180910390fd5b600860003373ffffffffffffffffffffffffffffffffffffffff1673ffffffffffffffffffffffffffffffffffffffff168152602001908152602001600020600101600380602002604051908101604052809291908260038015610989576020028201916000905b82829054906101000a900460ff1660ff16815260200190600101906020826000010492830192600103820291508084116109525790505b5050505050905090565b670de0b6b3a764000081565b600460009054906101000a900473ffffffffffffffffffffffffffffffffffffffff1673ffffffffffffffffffffffffffffffffffffffff1663e1a3e55c348484336040518563ffffffff167c010000000000000000000000000000000000000000000000000000000002815260040180806020018373ffffffffffffffffffffffffffffffffffffffff1673ffffffffffffffffffffffffffffffffffffffff168152602001828103825285858281815260200192508082843782019150509450505050506000604051808303818588803b158015610a7e57600080fd5b505af1158015610a92573d6000803e3d6000fd5b5050505050600160058383604051808383808284378201915050925050509081526020016040518091039020600301600082825401925050819055505050565b600460009054906101000a900473ffffffffffffffffffffffffffffffffffffffff1673ffffffffffffffffffffffffffffffffffffffff1663b60d4288346040518263ffffffff167c01000000000000000000000000000000000000000000000000000000000281526004016000604051808303818588803b158015610b5857600080fd5b505af1158015610b6c573d6000803e3d6000fd5b505050505034600160003373ffffffffffffffffffffffffffffffffffffffff1673ffffffffffffffffffffffffffffffffffffffff16815260200190815260200160002060008282540192505081905550565b60016020528060005260406000206000915090505481565b600681815481101515610be757fe5b906000526020600020016000915090508054600181600116156101000203166002900480601f016020809104026020016040519081016040528092919081815260200182805460018160011615610100020316600290048015610c8b5780601f10610c6057610100808354040283529160200191610c8b565b820191906000526020600020905b815481529060010190602001808311610c6e57829003601f168201915b505050505081565b60026020528160005260406000206020528060005260406000206000915091509054906101000a900460ff1681565b600080600460009054906101000a900473ffffffffffffffffffffffffffffffffffffffff1673ffffffffffffffffffffffffffffffffffffffff16630e248a11336040518263ffffffff167c0100000000000000000000000000000000000000000000000000000000028152600401808273ffffffffffffffffffffffffffffffffffffffff1673ffffffffffffffffffffffffffffffffffffffff168152602001915050602060405180830381600087803b158015610d8257600080fd5b505af1158015610d96573d6000803e3d6000fd5b505050506040513d6020811015610dac57600080fd5b81019080805190602001909291905050501515610e31576040517f08c379a00000000000000000000000000000000000000000000000000000000081526004018080602001828103825260158152602001807f43616c6c6572206973206e6f74206169726c696e65000000000000000000000081525060200191505060405180910390fd5b6001915060001515600260008573ffffffffffffffffffffffffffffffffffffffff1673ffffffffffffffffffffffffffffffffffffffff16815260200190815260200160002060003373ffffffffffffffffffffffffffffffffffffffff1673ffffffffffffffffffffffffffffffffffffffff16815260200190815260200160002060009054906101000a900460ff161515141515610f3a576040517f08c379a00000000000000000000000000000000000000000000000000000000081526004018080602001828103825260108152602001807f6169726c696e652064696420766f74650000000000000000000000000000000081525060200191505060405180910390fd5b60048060009054906101000a900473ffffffffffffffffffffffffffffffffffffffff1673ffffffffffffffffffffffffffffffffffffffff1663f55267746040518163ffffffff167c0100000000000000000000000000000000000000000000000000000000028152600401602060405180830381600087803b158015610fc157600080fd5b505af1158015610fd5573d6000803e3d6000fd5b505050506040513d6020811015610feb57600080fd5b8101908080519060200190929190505050101561112957600460009054906101000a900473ffffffffffffffffffffffffffffffffffffffff1673ffffffffffffffffffffffffffffffffffffffff1663bdfd9877846040518263ffffffff167c0100000000000000000000000000000000000000000000000000000000028152600401808273ffffffffffffffffffffffffffffffffffffffff1673ffffffffffffffffffffffffffffffffffffffff168152602001915050600060405180830381600087803b1580156110bf57600080fd5b505af11580156110d3573d6000803e3d6000fd5b5050505060016000808573ffffffffffffffffffffffffffffffffffffffff1673ffffffffffffffffffffffffffffffffffffffff16815260200190815260200160002060008282540192505081905550611360565b600460009054906101000a900473ffffffffffffffffffffffffffffffffffffffff1673ffffffffffffffffffffffffffffffffffffffff1663f55267746040518163ffffffff167c0100000000000000000000000000000000000000000000000000000000028152600401602060405180830381600087803b1580156111af57600080fd5b505af11580156111c3573d6000803e3d6000fd5b505050506040513d60208110156111d957600080fd5b810190808051906020019092919050505060026000808673ffffffffffffffffffffffffffffffffffffffff1673ffffffffffffffffffffffffffffffffffffffff168152602001908152602001600020540210151561130d57600460009054906101000a900473ffffffffffffffffffffffffffffffffffffffff1673ffffffffffffffffffffffffffffffffffffffff1663bdfd9877846040518263ffffffff167c0100000000000000000000000000000000000000000000000000000000028152600401808273ffffffffffffffffffffffffffffffffffffffff1673ffffffffffffffffffffffffffffffffffffffff168152602001915050600060405180830381600087803b1580156112f057600080fd5b505af1158015611304573d6000803e3d6000fd5b5050505061135f565b60016000808573ffffffffffffffffffffffffffffffffffffffff1673ffffffffffffffffffffffffffffffffffffffff16815260200190815260200160002060008282540192505081905550600091505b5b6001600260008573ffffffffffffffffffffffffffffffffffffffff1673ffffffffffffffffffffffffffffffffffffffff16815260200190815260200160002060003373ffffffffffffffffffffffffffffffffffffffff1673ffffffffffffffffffffffffffffffffffffffff16815260200190815260200160002060006101000a81548160ff021916908315150217905550816000808573ffffffffffffffffffffffffffffffffffffffff1673ffffffffffffffffffffffffffffffffffffffff1681526020019081526020016000205491509150915091565b60008660ff16600860003373ffffffffffffffffffffffffffffffffffffffff1673ffffffffffffffffffffffffffffffffffffffff168152602001908152602001600020600101600060038110151561149457fe5b602091828204019190069054906101000a900460ff1660ff16148061152357508660ff16600860003373ffffffffffffffffffffffffffffffffffffffff1673ffffffffffffffffffffffffffffffffffffffff168152602001908152602001600020600101600160038110151561150857fe5b602091828204019190069054906101000a900460ff1660ff16145b8061159857508660ff16600860003373ffffffffffffffffffffffffffffffffffffffff1673ffffffffffffffffffffffffffffffffffffffff168152602001908152602001600020600101600260038110151561157d57fe5b602091828204019190069054906101000a900460ff1660ff16145b1515611632576040517f08c379a00000000000000000000000000000000000000000000000000000000081526004018080602001828103825260238152602001807f496e64657820646f6573206e6f74206d61746368206f7261636c65207265717581526020017f657374000000000000000000000000000000000000000000000000000000000081525060400191505060405180910390fd5b8686868686604051602001808660ff1660ff167f01000000000000000000000000000000000000000000000000000000000000000281526001018573ffffffffffffffffffffffffffffffffffffffff1673ffffffffffffffffffffffffffffffffffffffff166c010000000000000000000000000281526014018484808284378201915050828152602001955050505050506040516020818303038152906040526040518082805190602001908083835b60208310151561170957805182526020820191506020810190506020830392506116e4565b6001836020036101000a0380198251168184511680821785525050505050509050019150506040518091039020905060096000826000191660001916815260200190815260200160002060000160149054906101000a900460ff1615156117fe576040517f08c379a000000000000000000000000000000000000000000000000000000000815260040180806020018281038252602f8152602001807f466c69676874206f722074696d657374616d7020646f206e6f74206d6174636881526020017f206f7261636c652072657175657374000000000000000000000000000000000081525060400191505060405180910390fd5b60096000826000191660001916815260200190815260200160002060010160008360ff1660ff1681526020019081526020016000203390806001815401808255809150509060018203906000526020600020016000909192909190916101000a81548173ffffffffffffffffffffffffffffffffffffffff021916908373ffffffffffffffffffffffffffffffffffffffff160217905550507f43c853095c2752648493c88b4baac4d580d2594ffb00c6f1d4242d844514f7838686868686604051808673ffffffffffffffffffffffffffffffffffffffff1673ffffffffffffffffffffffffffffffffffffffff168152602001806020018481526020018360ff1660ff16815260200182810382528686828181526020019250808284378201915050965050505050505060405180910390a1600360096000836000191660001916815260200190815260200160002060010160008460ff1660ff16815260200190815260200160002080549050101515611a4e577fe23f5229de535c091e3b7bec2665f5d698192d3b31393066e8987b7a05076b6c8686868686604051808673ffffffffffffffffffffffffffffffffffffffff1673ffffffffffffffffffffffffffffffffffffffff168152602001806020018481526020018360ff1660ff16815260200182810382528686828181526020019250808284378201915050965050505050505060405180910390a1611a4d8686868080601f0160208091040260200160405190810160405280939291908181526020018383808284378201915050505050508585612764565b5b50505050505050565b678ac7230489e80000600160003373ffffffffffffffffffffffffffffffffffffffff1673ffffffffffffffffffffffffffffffffffffffff1681526020019081526020016000205410151515611b16576040517f08c379a000000000000000000000000000000000000000000000000000000000815260040180806020018281038252600f8152602001807f4e6f7420656e6f7567682066756e64000000000000000000000000000000000081525060200191505060405180910390fd5b60006005838360405180838380828437820191505092505050908152602001604051809103902060000160006101000a81548160ff021916908315150217905550600460009054906101000a900473ffffffffffffffffffffffffffffffffffffffff1673ffffffffffffffffffffffffffffffffffffffff16633fcf1cf483836040518363ffffffff167c01000000000000000000000000000000000000000000000000000000000281526004018080602001828103825284848281815260200192508082843782019150509350505050600060405180830381600087803b158015611c0257600080fd5b505af1158015611c16573d6000803e3d6000fd5b505050505050565b600460009054906101000a900473ffffffffffffffffffffffffffffffffffffffff1673ffffffffffffffffffffffffffffffffffffffff16632b66d72e83836040518363ffffffff167c01000000000000000000000000000000000000000000000000000000000281526004018080602001828103825284848281815260200192508082843782019150509350505050600060405180830381600087803b158015611cc957600080fd5b505af1158015611cdd573d6000803e3d6000fd5b5050505060016005838360405180838380828437820191505092505050908152602001604051809103902060020160146101000a81548160ff0219169083151502179055505050565b6000600460009054906101000a900473ffffffffffffffffffffffffffffffffffffffff1673ffffffffffffffffffffffffffffffffffffffff1663cd905dff6040518163ffffffff167c0100000000000000000000000000000000000000000000000000000000028152600401602060405180830381600087803b158015611dae57600080fd5b505af1158015611dc2573d6000803e3d6000fd5b505050506040513d6020811015611dd857600080fd5b8101908080519060200190929190505050905090565b6000806000806000806005876040518082805190602001908083835b602083101515611e2f5780518252602082019150602081019050602083039250611e0a565b6001836020036101000a038019825116818451168082178552505050505050905001915050908152602001604051809103902060000160009054906101000a900460ff166005886040518082805190602001908083835b602083101515611eab5780518252602082019150602081019050602083039250611e86565b6001836020036101000a038019825116818451168082178552505050505050905001915050908152602001604051809103902060000160019054906101000a900460ff166005896040518082805190602001908083835b602083101515611f275780518252602082019150602081019050602083039250611f02565b6001836020036101000a03801982511681845116808217855250505050505090500191505090815260200160405180910390206001015460058a6040518082805190602001908083835b602083101515611f965780518252602082019150602081019050602083039250611f71565b6001836020036101000a038019825116818451168082178552505050505050905001915050908152602001604051809103902060020160009054906101000a900473ffffffffffffffffffffffffffffffffffffffff1660058b6040518082805190602001908083835b6020831015156120255780518252602082019150602081019050602083039250612000565b6001836020036101000a038019825116818451168082178552505050505050905001915050908152602001604051809103902060020160149054906101000a900460ff1660058c6040518082805190602001908083835b6020831015156120a1578051825260208201915060208101905060208303925061207c565b6001836020036101000a03801982511681845116808217855250505050505090500191505090815260200160405180910390206003015495509550955095509550955091939550919395565b678ac7230489e80000600160003373ffffffffffffffffffffffffffffffffffffffff1673ffffffffffffffffffffffffffffffffffffffff16815260200190815260200160002054101515156121ac576040517f08c379a000000000000000000000000000000000000000000000000000000000815260040180806020018281038252600f8152602001807f4e6f7420656e6f7567682066756e64000000000000000000000000000000000081525060200191505060405180910390fd5b60c060405190810160405280600115158152602001600060ff1681526020018481526020013373ffffffffffffffffffffffffffffffffffffffff16815260200160001515815260200160008152506005838360405180838380828437820191505092505050908152602001604051809103902060008201518160000160006101000a81548160ff02191690831515021790555060208201518160000160016101000a81548160ff021916908360ff1602179055506040820151816001015560608201518160020160006101000a81548173ffffffffffffffffffffffffffffffffffffffff021916908373ffffffffffffffffffffffffffffffffffffffff16021790555060808201518160020160146101000a81548160ff02191690831515021790555060a08201518160030155905050600682829091806001815401808255809150509060018203906000526020600020016000909192939091929390919290919250919061231f929190612989565b50506001600760008282829054906101000a900460ff160192506101000a81548160ff021916908360ff160217905550505050565b6000806123603361276a565b91508186868686604051602001808660ff1660ff167f01000000000000000000000000000000000000000000000000000000000000000281526001018573ffffffffffffffffffffffffffffffffffffffff1673ffffffffffffffffffffffffffffffffffffffff166c010000000000000000000000000281526014018484808284378201915050828152602001955050505050506040516020818303038152906040526040518082805190602001908083835b6020831015156124395780518252602082019150602081019050602083039250612414565b6001836020036101000a0380198251168184511680821785525050505050509050019150506040518091039020905060408051908101604052803373ffffffffffffffffffffffffffffffffffffffff1681526020016001151581525060096000836000191660001916815260200190815260200160002060008201518160000160006101000a81548173ffffffffffffffffffffffffffffffffffffffff021916908373ffffffffffffffffffffffffffffffffffffffff16021790555060208201518160000160146101000a81548160ff0219169083151502179055509050507f3ed01f2c3fc24c6b329d931e35b03e390d23497d22b3f90e15b600343e93df118287878787604051808660ff1660ff1681526020018573ffffffffffffffffffffffffffffffffffffffff1673ffffffffffffffffffffffffffffffffffffffff1681526020018060200183815260200182810382528585828181526020019250808284378201915050965050505050505060405180910390a1505050505050565b6125c66128cc565b6125ce6128cc565b6125d78361276a565b8160006003811015156125e657fe5b602002019060ff16908160ff168152505080600060038110151561260657fe5b602002015181600160038110151561261a57fe5b602002019060ff16908160ff16815250505b80600060038110151561263b57fe5b602002015160ff1681600160038110151561265257fe5b602002015160ff16141561268e576126698361276a565b81600160038110151561267857fe5b602002019060ff16908160ff168152505061262c565b80600160038110151561269d57fe5b60200201518160026003811015156126b157fe5b602002019060ff16908160ff16815250505b8060006003811015156126d257fe5b602002015160ff168160026003811015156126e957fe5b602002015160ff161480612728575080600160038110151561270757fe5b602002015160ff1681600260038110151561271e57fe5b602002015160ff16145b1561275b576127368361276a565b81600260038110151561274557fe5b602002019060ff16908160ff16815250506126c3565b80915050919050565b50505050565b6000806000600a91508160ff166007600181819054906101000a900460ff168092919060010191906101000a81548160ff021916908360ff16021790555060ff16430340856040516020018083600019166000191681526020018273ffffffffffffffffffffffffffffffffffffffff1673ffffffffffffffffffffffffffffffffffffffff166c01000000000000000000000000028152601401925050506040516020818303038152906040526040518082805190602001908083835b60208310151561284d5780518252602082019150602081019050602083039250612828565b6001836020036101000a03801982511681845116808217855250505050505090500191505060405180910390206001900481151561288757fe5b06905060fa600760019054906101000a900460ff1660ff1611156128c2576000600760016101000a81548160ff021916908360ff1602179055505b8092505050919050565b606060405190810160405280600390602082028038833980820191505090505090565b826003601f016020900481019282156129785791602002820160005b8382111561294957835183826101000a81548160ff021916908360ff160217905550926020019260010160208160000104928301926001030261290b565b80156129765782816101000a81549060ff0219169055600101602081600001049283019260010302612949565b505b5090506129859190612a09565b5090565b828054600181600116156101000203166002900490600052602060002090601f016020900481019282601f106129ca57803560ff19168380011785556129f8565b828001600101855582156129f8579182015b828111156129f75782358255916020019190600101906129dc565b5b509050612a059190612a39565b5090565b612a3691905b80821115612a3257600081816101000a81549060ff021916905550600101612a0f565b5090565b90565b612a5b91905b80821115612a57576000816000905550600101612a3f565b5090565b905600a165627a7a72305820ab23a77193e68a4bc5cfb4c52e22e308da0c3cb5e5f4b58cae0c8f9396b3f8d20029",
  "source": "pragma solidity ^0.4.25;\n\n// It's important to avoid vulnerabilities due to numeric overflow bugs\n// OpenZeppelin's SafeMath library, when used correctly, protects agains such bugs\n// More info: https://www.nccgroup.trust/us/about-us/newsroom-and-events/blog/2018/november/smart-contract-insecurity-bad-arithmetic/\nimport \"./FlightSuretyData.sol\";\n\n/************************************************** */\n/* FlightSurety Smart Contract                      */\n/************************************************** */\ncontract FlightSuretyApp {\n\n\n    /********************************************************************************************/\n    /*                                       DATA VARIABLES                                     */\n    /********************************************************************************************/\n\n    // Flight status codees\n    uint8 private constant STATUS_CODE_UNKNOWN = 0;\n    uint8 private constant STATUS_CODE_ON_TIME = 10;\n    uint8 private constant STATUS_CODE_LATE_AIRLINE = 20;\n    uint8 private constant STATUS_CODE_LATE_WEATHER = 30;\n    uint8 private constant STATUS_CODE_LATE_TECHNICAL = 40;\n    uint8 private constant STATUS_CODE_LATE_OTHER = 50;\n    mapping(address=>uint256) public registratingAirlinesVoteCount;\n    mapping(address=>uint256) public registratedAirlinesEther;\n    mapping(address=>mapping(address=>bool)) public registratingAirlinesVoteAddress;\n    address private contractOwner;          // Account used to deploy contract\n    FlightSuretyData private flightSuretyData;\n    struct Flight {\n        bool isRegistered;\n        uint8 statusCode;\n        uint256 updatedTimestamp;        \n        address airline;\n        bool repayment;\n        uint256 clientCount;\n    }\n    mapping(string => Flight) private flights;\n    string[] public flightNames;\n    uint8 public flightCount = 0;\n\n \n    /********************************************************************************************/\n    /*                                       FUNCTION MODIFIERS                                 */\n    /********************************************************************************************/\n\n    // Modifiers help avoid duplication of code. They are typically used to validate something\n    // before a function is allowed to be executed.\n\n    /**\n    * @dev Modifier that requires the \"operational\" boolean variable to be \"true\"\n    *      This is used on all state changing functions to pause the contract in \n    *      the event there is an issue that needs to be fixed\n    */\n    modifier requireIsOperational() \n    {\n         // Modify to call data contract's status\n        require(flightSuretyData.isOperational() ==true, \"Contract is currently not operational\");  \n        _;  // All modifiers require an \"_\" which indicates where the function body will be added\n    }\n\n    /**\n    * @dev Modifier that requires the \"ContractOwner\" account to be the function caller\n    */\n    modifier requireContractOwner()\n    {\n        require(msg.sender == contractOwner, \"Caller is not contract owner\");\n        _;\n    }\n    \n    /**\n    * @dev Modifier that requires the \"airlineAddress\" account to be the function caller\n    */\n    modifier requireAirline()\n    {\n        require(flightSuretyData.isAirline(msg.sender), \"Caller is not airline\");   \n        _;\n    }\n    \n     /**\n    * @dev Modifier that requires the first account should be payable 10 ether\n    */\n    modifier require10Ether()\n    {\n        require(registratedAirlinesEther[msg.sender]>=10 ether, \"Not enough fund\");      \n        _;\n    }\n    \n    \n   \n    /********************************************************************************************/\n    /*                                       CONSTRUCTOR                                        */\n    /********************************************************************************************/\n\n    /**\n    * @dev Contract constructor\n    *\n    */\n    constructor\n                                (\n                                    address dataAddress,\n                                    address airlineAddress\n                                ) \n                                payable\n                                public \n    {\n        flightSuretyData = FlightSuretyData(dataAddress);\n        flightSuretyData.registerAirline(airlineAddress);\n        contractOwner = msg.sender;\n    }\n\n    /********************************************************************************************/\n    /*                                       UTILITY FUNCTIONS                                  */\n    /********************************************************************************************/\n\n    function getFlight(string flight)\n                            public\n                            returns(bool,uint8,uint256,address, bool, uint256)\n    {\n        return  (flights[flight].isRegistered,\n        flights[flight].statusCode,\n        flights[flight].updatedTimestamp,\n        flights[flight].airline,\n         flights[flight].repayment,\n         flights[flight].clientCount);\n    }\n\n    function isOperational() \n                            public \n\n                            returns(bool) \n    {\n        return flightSuretyData.isOperational();  // Modify to call data contract's status\n    }\n\n    /********************************************************************************************/\n    /*                                     SMART CONTRACT FUNCTIONS                             */\n    /********************************************************************************************/\n\n    /**\n    * @dev client buy insurance\n    *\n    */ \n    function buyInsurance\n                    (    \n                        string flight\n                    )\n                    external\n                    payable\n    {   \n        flightSuretyData.buy.value(msg.value)(flight,  msg.sender);\n        flights[flight].clientCount += 1;\n    }\n\n    /**\n    * @dev repay client\n    *\n    */ \n    function repayClient\n                    (    \n                        string flight\n                    )\n                    external\n    {   \n        flightSuretyData.pay(flight);\n        flights[flight].repayment = true;\n    }\n  \n\n    /**\n    * @dev airline add money \n    *\n    */ \n    function addEther\n                    (    \n                    \n                    )\n                    external\n                    payable\n    {   \n        flightSuretyData.fund.value(msg.value)();\n        registratedAirlinesEther[msg.sender] += msg.value;\n    }\n  \n   /**\n    * @dev Add an airline to the registration queue\n    *\n    */   \n    function registerAirline\n                            (   \n                                address newAirline\n                            )\n                            external\n                            requireAirline\n                            returns(bool success, uint256 votes)\n    {\n        success = true;\n        require(registratingAirlinesVoteAddress[newAirline][msg.sender]==false,\"airline did vote\");\n        if(flightSuretyData.airlineCount()<4){\n            flightSuretyData.registerAirline(newAirline);  \n            registratingAirlinesVoteCount[newAirline]+=1;\n        }else{\n            if(registratingAirlinesVoteCount[newAirline]*2 >= flightSuretyData.airlineCount()){\n            flightSuretyData.registerAirline(newAirline);   \n        }else{\n            registratingAirlinesVoteCount[newAirline]+=1;\n            success = false;\n        }   \n        }\n        registratingAirlinesVoteAddress[newAirline][msg.sender]=true;\n        return (success, registratingAirlinesVoteCount[newAirline]);\n    }\n\n    /**\n    * @dev Register a future flight for insuring.\n    *\n    */  \n    function removeFlight\n                                (\n                                    string flight\n                                )\n                                external\n                                require10Ether\n    {   \n        flights[flight].isRegistered =false;\n        flightSuretyData.creditInsurees(flight);\n    }\n\n\n   /**\n    * @dev Register a future flight for insuring.\n    *\n    */  \n    function registerFlight\n                                (\n                                    uint256 updatedTimestamp,\n                                    string flight\n                                )\n                                external\n                                require10Ether\n    {   \n        flights[flight] = Flight(\n                                        true,\n                                        STATUS_CODE_UNKNOWN,\n                                        updatedTimestamp,       \n                                        msg.sender,\n                                        false,\n                                        0\n                                    );\n        flightNames.push(flight);\n        flightCount+=1;\n    }\n    \n   /**\n    * @dev Called after oracle has updated flight status\n    *\n    */  \n    function processFlightStatus\n                                (\n                                    address airline,\n                                    string memory flight,\n                                    uint256 timestamp,\n                                    uint8 statusCode\n                                )\n                                internal\n    {\n    }\n\n\n    // Generate a request for oracles to fetch flight information\n    function fetchFlightStatus\n                        (\n                            address airline,\n                            string flight,\n                            uint256 timestamp                            \n                        )\n                        external\n    {\n        uint8 index = getRandomIndex(msg.sender);\n\n        // Generate a unique key for storing the request\n        bytes32 key = keccak256(abi.encodePacked(index, airline, flight, timestamp));\n        oracleResponses[key] = ResponseInfo({\n                                                requester: msg.sender,\n                                                isOpen: true\n                                            });\n\n        emit OracleRequest(index, airline, flight, timestamp);\n    } \n\n\n// region ORACLE MANAGEMENT\n\n    // Incremented to add pseudo-randomness at various points\n    uint8 private nonce = 0;    \n\n    // Fee to be paid when registering oracle\n    uint256 public constant REGISTRATION_FEE = 1 ether;\n\n    // Number of oracles that must respond for valid status\n    uint256 private constant MIN_RESPONSES = 3;\n\n\n    struct Oracle {\n        bool isRegistered;\n        uint8[3] indexes;        \n    }\n\n    // Track all registered oracles\n    mapping(address => Oracle) private oracles;\n\n    // Model for responses from oracles\n    struct ResponseInfo {\n        address requester;                              // Account that requested status\n        bool isOpen;                                    // If open, oracle responses are accepted\n        mapping(uint8 => address[]) responses;          // Mapping key is the status code reported\n                                                        // This lets us group responses and identify\n                                                        // the response that majority of the oracles\n    }\n\n    // Track all oracle responses\n    // Key = hash(index, flight, timestamp)\n    mapping(bytes32 => ResponseInfo) private oracleResponses;\n\n    // Event fired each time an oracle submits a response\n    event FlightStatusInfo(address airline, string flight, uint256 timestamp, uint8 status);\n\n    event OracleReport(address airline, string flight, uint256 timestamp, uint8 status);\n\n    // Event fired when flight status request is submitted\n    // Oracles track this and if they have a matching index\n    // they fetch data and submit a response\n    event OracleRequest(uint8 index, address airline, string flight, uint256 timestamp);\n\n\n    // Register an oracle with the contract\n    function registerOracle\n                            (\n                            )\n                            external\n                            payable\n    {\n        // Require registration fee\n        require(msg.value >= REGISTRATION_FEE, \"Registration fee is required\");\n\n        uint8[3] memory indexes = generateIndexes(msg.sender);\n\n        oracles[msg.sender] = Oracle({\n                                        isRegistered: true,\n                                        indexes: indexes\n                                    });\n    }\n\n    function getMyIndexes\n                            (\n                            )\n                            view\n                            external\n                            returns(uint8[3])\n    {\n        require(oracles[msg.sender].isRegistered, \"Not registered as an oracle\");\n\n        return oracles[msg.sender].indexes;\n    }\n\n\n\n\n    // Called by oracle when a response is available to an outstanding request\n    // For the response to be accepted, there must be a pending request that is open\n    // and matches one of the three Indexes randomly assigned to the oracle at the\n    // time of registration (i.e. uninvited oracles are not welcome)\n    function submitOracleResponse\n                        (\n                            uint8 index,\n                            address airline,\n                            string flight,\n                            uint256 timestamp,\n                            uint8 statusCode\n                        )\n                        external\n    {\n        require((oracles[msg.sender].indexes[0] == index) || (oracles[msg.sender].indexes[1] == index) || (oracles[msg.sender].indexes[2] == index), \"Index does not match oracle request\");\n\n\n        bytes32 key = keccak256(abi.encodePacked(index, airline, flight, timestamp)); \n        require(oracleResponses[key].isOpen, \"Flight or timestamp do not match oracle request\");\n\n        oracleResponses[key].responses[statusCode].push(msg.sender);\n\n        // Information isn't considered verified until at least MIN_RESPONSES\n        // oracles respond with the *** same *** information\n        emit OracleReport(airline, flight, timestamp, statusCode);\n        if (oracleResponses[key].responses[statusCode].length >= MIN_RESPONSES) {\n\n            emit FlightStatusInfo(airline, flight, timestamp, statusCode);\n\n            // Handle flight status as appropriate\n            processFlightStatus(airline, flight, timestamp, statusCode);\n        }\n    }\n\n\n    function getFlightKey\n                        (\n                            address airline,\n                            string flight,\n                            uint256 timestamp\n                        )\n                        pure\n                        internal\n                        returns(bytes32) \n    {\n        return keccak256(abi.encodePacked(airline, flight, timestamp));\n    }\n\n    // Returns array of three non-duplicating integers from 0-9\n    function generateIndexes\n                            (                       \n                                address account         \n                            )\n                            internal\n                            returns(uint8[3])\n    {\n        uint8[3] memory indexes;\n        indexes[0] = getRandomIndex(account);\n        \n        indexes[1] = indexes[0];\n        while(indexes[1] == indexes[0]) {\n            indexes[1] = getRandomIndex(account);\n        }\n\n        indexes[2] = indexes[1];\n        while((indexes[2] == indexes[0]) || (indexes[2] == indexes[1])) {\n            indexes[2] = getRandomIndex(account);\n        }\n\n        return indexes;\n    }\n\n    // Returns array of three non-duplicating integers from 0-9\n    function getRandomIndex\n                            (\n                                address account\n                            )\n                            internal\n                            returns (uint8)\n    {\n        uint8 maxValue = 10;\n\n        // Pseudo random number...the incrementing nonce adds variation\n        uint8 random = uint8(uint256(keccak256(abi.encodePacked(blockhash(block.number - nonce++), account))) % maxValue);\n\n        if (nonce > 250) {\n            nonce = 0;  // Can only fetch blockhashes for last 256 blocks so we adapt\n        }\n\n        return random;\n    }\n\n// endregion\n\n}   \n",
  "sourcePath": "/Users/yiulapsang/Desktop/workspace/blockchain/FlightSurety/contracts/FlightSuretyApp.sol",
  "compiler": {
    "name": "solc",
    "version": "0.4.26+commit.4563c3fc.Emscripten.clang"
  },
  "schemaVersion": "3.3.3",
  "updatedAt": "2021-04-21T09:34:14.689Z",
  "networkType": "ethereum",
  "devdoc": {
    "methods": {
      "addEther()": {
        "details": "airline add money     "
      },
      "buyInsurance(string)": {
        "details": "client buy insurance    "
      },
      "registerAirline(address)": {
        "details": "Add an airline to the registration queue    "
      },
      "registerFlight(uint256,string)": {
        "details": "Register a future flight for insuring.    "
      },
      "removeFlight(string)": {
        "details": "Register a future flight for insuring.    "
      },
      "repayClient(string)": {
        "details": "repay client    "
      }
    }
  },
  "userdoc": {
    "methods": {
      "getFlight(string)": {
        "notice": "*****************************************************************************************"
      }
    }
  }
}